{"abi":[{"type":"receive","stateMutability":"payable"},{"type":"function","name":"addCapital","inputs":[],"outputs":[],"stateMutability":"payable"},{"type":"function","name":"addSupportedStablecoin","inputs":[{"name":"token","type":"address","internalType":"address"}],"outputs":[],"stateMutability":"nonpayable"},{"type":"function","name":"addYieldStrategy","inputs":[{"name":"strategy","type":"address","internalType":"address"},{"name":"allocation","type":"uint256","internalType":"uint256"}],"outputs":[],"stateMutability":"nonpayable"},{"type":"function","name":"depositPremium","inputs":[{"name":"policyId","type":"uint256","internalType":"uint256"}],"outputs":[{"name":"success","type":"bool","internalType":"bool"}],"stateMutability":"payable"},{"type":"function","name":"emergencyWithdrawal","inputs":[{"name":"strategy","type":"address","internalType":"address"},{"name":"amount","type":"uint256","internalType":"uint256"}],"outputs":[],"stateMutability":"nonpayable"},{"type":"function","name":"forceRebalance","inputs":[],"outputs":[],"stateMutability":"nonpayable"},{"type":"function","name":"getBalanceInfo","inputs":[],"outputs":[{"name":"premiumPool","type":"uint256","internalType":"uint256"},{"name":"claimPool","type":"uint256","internalType":"uint256"},{"name":"yieldPool","type":"uint256","internalType":"uint256"},{"name":"totalBalance","type":"uint256","internalType":"uint256"},{"name":"totalClaims","type":"uint256","internalType":"uint256"}],"stateMutability":"view"},{"type":"function","name":"getCropExposure","inputs":[{"name":"cropType","type":"string","internalType":"string"}],"outputs":[{"name":"","type":"uint256","internalType":"uint256"}],"stateMutability":"view"},{"type":"function","name":"getFinancialHealth","inputs":[],"outputs":[{"name":"solvencyRatio","type":"uint256","internalType":"uint256"},{"name":"reserveRatio","type":"uint256","internalType":"uint256"},{"name":"liquidityRatio","type":"uint256","internalType":"uint256"}],"stateMutability":"view"},{"type":"function","name":"getRegionalExposure","inputs":[{"name":"region","type":"string","internalType":"string"}],"outputs":[{"name":"","type":"uint256","internalType":"uint256"}],"stateMutability":"view"},{"type":"function","name":"getRiskExposure","inputs":[],"outputs":[{"name":"totalExposure","type":"uint256","internalType":"uint256"},{"name":"activePolicyCount","type":"uint256","internalType":"uint256"},{"name":"coverageToReserveRatio","type":"uint256","internalType":"uint256"}],"stateMutability":"view"},{"type":"function","name":"getVersion","inputs":[],"outputs":[{"name":"","type":"string","internalType":"string"}],"stateMutability":"view"},{"type":"function","name":"initialize","inputs":[{"name":"insuranceContract","type":"address","internalType":"address"}],"outputs":[],"stateMutability":"nonpayable"},{"type":"function","name":"owner","inputs":[],"outputs":[{"name":"","type":"address","internalType":"address"}],"stateMutability":"view"},{"type":"function","name":"pause","inputs":[],"outputs":[],"stateMutability":"nonpayable"},{"type":"function","name":"paused","inputs":[],"outputs":[{"name":"","type":"bool","internalType":"bool"}],"stateMutability":"view"},{"type":"function","name":"processClaim","inputs":[{"name":"policyId","type":"uint256","internalType":"uint256"},{"name":"recipient","type":"address","internalType":"address payable"},{"name":"amount","type":"uint256","internalType":"uint256"}],"outputs":[{"name":"success","type":"bool","internalType":"bool"}],"stateMutability":"nonpayable"},{"type":"function","name":"processRefund","inputs":[{"name":"policyId","type":"uint256","internalType":"uint256"},{"name":"recipient","type":"address","internalType":"address payable"},{"name":"amount","type":"uint256","internalType":"uint256"}],"outputs":[{"name":"success","type":"bool","internalType":"bool"}],"stateMutability":"nonpayable"},{"type":"function","name":"receiveYieldReturns","inputs":[],"outputs":[],"stateMutability":"payable"},{"type":"function","name":"removeSupportedStablecoin","inputs":[{"name":"token","type":"address","internalType":"address"}],"outputs":[],"stateMutability":"nonpayable"},{"type":"function","name":"removeYieldStrategy","inputs":[{"name":"strategy","type":"address","internalType":"address"}],"outputs":[],"stateMutability":"nonpayable"},{"type":"function","name":"renounceOwnership","inputs":[],"outputs":[],"stateMutability":"nonpayable"},{"type":"function","name":"setFinancialParameters","inputs":[{"name":"targetReserveRatio","type":"uint256","internalType":"uint256"},{"name":"minReserveRatio","type":"uint256","internalType":"uint256"},{"name":"maxYieldAllocation","type":"uint256","internalType":"uint256"},{"name":"emergencyWithdrawalLimit","type":"uint256","internalType":"uint256"}],"outputs":[],"stateMutability":"nonpayable"},{"type":"function","name":"setInsuranceContract","inputs":[{"name":"insuranceContract","type":"address","internalType":"address"}],"outputs":[],"stateMutability":"nonpayable"},{"type":"function","name":"transferOwnership","inputs":[{"name":"newOwner","type":"address","internalType":"address"}],"outputs":[],"stateMutability":"nonpayable"},{"type":"function","name":"unpause","inputs":[],"outputs":[],"stateMutability":"nonpayable"},{"type":"function","name":"withdrawFees","inputs":[{"name":"amount","type":"uint256","internalType":"uint256"}],"outputs":[],"stateMutability":"nonpayable"},{"type":"event","name":"CapitalAdded","inputs":[{"name":"from","type":"address","indexed":true,"internalType":"address"},{"name":"amount","type":"uint256","indexed":false,"internalType":"uint256"}],"anonymous":false},{"type":"event","name":"CapitalWithdrawn","inputs":[{"name":"to","type":"address","indexed":true,"internalType":"address"},{"name":"amount","type":"uint256","indexed":false,"internalType":"uint256"}],"anonymous":false},{"type":"event","name":"ClaimPaid","inputs":[{"name":"policyId","type":"uint256","indexed":true,"internalType":"uint256"},{"name":"recipient","type":"address","indexed":true,"internalType":"address"},{"name":"amount","type":"uint256","indexed":false,"internalType":"uint256"}],"anonymous":false},{"type":"event","name":"Initialized","inputs":[{"name":"version","type":"uint8","indexed":false,"internalType":"uint8"}],"anonymous":false},{"type":"event","name":"OwnershipTransferred","inputs":[{"name":"previousOwner","type":"address","indexed":true,"internalType":"address"},{"name":"newOwner","type":"address","indexed":true,"internalType":"address"}],"anonymous":false},{"type":"event","name":"Paused","inputs":[{"name":"account","type":"address","indexed":false,"internalType":"address"}],"anonymous":false},{"type":"event","name":"PremiumDeposited","inputs":[{"name":"policyId","type":"uint256","indexed":true,"internalType":"uint256"},{"name":"amount","type":"uint256","indexed":false,"internalType":"uint256"}],"anonymous":false},{"type":"event","name":"RefundProcessed","inputs":[{"name":"policyId","type":"uint256","indexed":true,"internalType":"uint256"},{"name":"recipient","type":"address","indexed":true,"internalType":"address"},{"name":"amount","type":"uint256","indexed":false,"internalType":"uint256"}],"anonymous":false},{"type":"event","name":"RiskPoolRebalanced","inputs":[{"name":"timestamp","type":"uint256","indexed":false,"internalType":"uint256"},{"name":"totalReserves","type":"uint256","indexed":false,"internalType":"uint256"}],"anonymous":false},{"type":"event","name":"Unpaused","inputs":[{"name":"account","type":"address","indexed":false,"internalType":"address"}],"anonymous":false},{"type":"event","name":"YieldGenerated","inputs":[{"name":"amount","type":"uint256","indexed":false,"internalType":"uint256"}],"anonymous":false},{"type":"error","name":"ExceedsWithdrawalLimit","inputs":[]},{"type":"error","name":"InsufficientFunds","inputs":[]},{"type":"error","name":"InvalidParameters","inputs":[]},{"type":"error","name":"TransferFailed","inputs":[]},{"type":"error","name":"UnauthorizedCaller","inputs":[]},{"type":"error","name":"YieldStrategyError","inputs":[]}],"bytecode":{"object":"0x608080604052346100165761209c908161001c8239f35b600080fdfe60806040908082526004908136101561006a575b5050361561002057600080fd5b61002c3460cc54611bd0565b60cc5561003b3460d054611bd0565b60d055513481527f5511b8c44e0b2636184a3835fd15fe9e9378e48facdcf16c8c5eb4941185806260203392a2005b600090813560e01c90816307dfcc8e1461158b575080630d8e6e2c1461148e5780631619abcc1461130e5780631645242a146112de57806324532867146112575780633a8107cf146112095780633f4ba83a146111725780634110b2c9146110f2578063508f44a21461100657806357d9989c14610ef65780635c975abb14610ed25780635e318e0714610ddb5780636dcc0d8614610d50578063715018a614610cf35780638456cb5914610c985780638da5cb5b14610c6f578063ab7a578814610c4e578063beb529401461098f578063c4d66de814610774578063c81be65c14610744578063d35efe7714610657578063d5d3f78b14610617578063df31460114610583578063eeab8ed014610314578063f2fde38b1461027d578063fc00e6281461022d5763fd4a7ccd0361001357823461022957816003193601126102295760db549160d2549360cc549182151560001461021b576127109182860292868404148615171561020857505061020492916101e791611c06565b905b51938493846040919493926060820195825260208201520152565b0390f35b634e487b7160e01b825260119052602490fd5b9050610204929150906101e9565b5080fd5b50823461022957816003193601126102295760cb5460cc5460cd5460a0939061025f8161025a8587611bd0565b611bd0565b9160cf54938151958652602086015284015260608301526080820152f35b50919034610310576020366003190112610310576102996117d6565b916102a26117ec565b6001600160a01b038316156102be57836102bb84611844565b80f35b906020608492519162461bcd60e51b8352820152602660248201527f4f776e61626c653a206e6577206f776e657220697320746865207a65726f206160448201526564647265737360d01b6064820152fd5b8280fd5b509190602092836003193601126105805760ca54823592906001600160a01b03908116330361057157610345611c33565b341561052e578260249185825260de8852868220600160ff1982541617905560ca5416865192838092630cc0380160e41b825288878301525afa908115610524578391610501575b508481019081516103c56103b389610160850151818b5193828580945193849201611769565b810160d9815203019020918254611bd0565b90556103fa6103e8886101808551940151818a5193828580945193849201611769565b810160da815203019020918254611bd0565b9055610409815160db54611bd0565b60db555183835260df86528483205560d25460001981146104ee5760010160d255611b589081340291348304036104db57612710809204926107d09182340292348404036102085750506104929291610487910461047c6104738261046e8634611c26565b611c26565b9360cc54611bd0565b60cc5560cd54611bd0565b60cd5560cb54611bd0565b60cb556104a13460ce54611bd0565b60ce557f450e6679419a88571339543f4388d600bc5484457d8810dc154bb8ad5710f7de838351348152a26104d4611f3b565b5160018152f35b634e487b7160e01b835260119052602482fd5b634e487b7160e01b835260118252602483fd5b61051d91503d8085833e6105158183611927565b8101906119cd565b503861038d565b85513d85823e3d90fd5b845162461bcd60e51b8152808301879052601f60248201527f5072656d69756d20616d6f756e74206d75737420626520706f736974697665006044820152606490fd5b508351635c427cd960e01b8152fd5b80fd5b509190346103105760203660031901126103105761059f6117d6565b6105a76117ec565b6001600160a01b03169182156105d45750506bffffffffffffffffffffffff60a01b60ca54161760ca5580f35b906020606492519162461bcd60e51b8352820152601960248201527f496e76616c696420696e737572616e63652061646472657373000000000000006044820152fd5b508234610229576020366003190112610229576106326117d6565b61063a6117ec565b6001600160a01b0316825260d76020528120805460ff1916905580f35b5091346103105780600319360112610310576106716117d6565b916024359261067e6117ec565b6001600160a01b031690811561070157831515806106f5575b156106bd5750835260dc602052808320600160ff1982541617905560dd60205282205580f35b606490602084519162461bcd60e51b8352820152601260248201527124b73b30b634b21030b63637b1b0ba34b7b760711b6044820152fd5b50611388841115610697565b606490602084519162461bcd60e51b8352820152601860248201527f496e76616c6964207374726174656779206164647265737300000000000000006044820152fd5b50823461022957602090816107583661178c565b91908284519384928337810160d9815203019020549051908152f35b5091346103105760203660031901126103105761078f6117d6565b9183549260ff8460081c161591828093610982575b801561096b575b15610911575060ff19808516600190811787559483610900575b506107df60ff875460081c166107da816118c7565b6118c7565b6107e833611844565b61081260ff875460081c166107fc816118c7565b610805816118c7565b866065556107da816118c7565b6097541660975561082460c95461188d565b601f81116108b6575b50600a640312e302e360dc1b0160c95560ca80546001600160a01b0319166001600160a01b0392909216919091179055613a9860d355612ee060d455610bb860d5556107d060d65561087d578280f35b825461ff0019168355519081527f7f26b83ff96e1f2b6a682f133852f6798a09c465da95921460cefb384740249890602090a138808280f35b60c9865284601f7f66be4f155c5ef2ebd3772b228f2f00681e4ed5826cdb3b1943cc11ad15ad1d28920160051c8201915b8281106108f557505061082d565b8781550185906108e7565b61ffff1916610101178655386107c5565b608490602085519162461bcd60e51b8352820152602e60248201527f496e697469616c697a61626c653a20636f6e747261637420697320616c72656160448201526d191e481a5b9a5d1a585b1a5e995960921b6064820152fd5b50303b1580156107ab5750600160ff8616146107ab565b50600160ff8616106107a4565b50829034610580576109a03661173a565b60ca546001600160a01b039691929087163303610c3f576109bf611c33565b6109c7611d27565b8215610bfc578616936109db851515611c77565b83815260209660de88526109f460ff8884205416611cb7565b8160cb54858110610b7c575b50602491610a108660cb54611c26565b60cb5586825260de8a5288822060ff19815416905560ca5416885192838092630cc0380160e41b825289888301525afa908115610b725790610acc918391610b57575b50878101908151610a8c610a7a8c8c81610160870151915193828580945193849201611769565b810160d9815203019020918254611c26565b9055610ac1610aaf8b6101808551940151818d5193828580945193849201611769565b810160da815203019020918254611c26565b90555160db54611c26565b60db5583815260df8752808681205560d2548015610b44576000190160d25580808085885af1610afa611cf7565b5015610b365750847f79ff6a60b3e21b3630b207e2a7b0b50b69b197d3d7ca776108ed2afb8fbac8dc918551908152a360016065555160018152f35b84516312171d8360e31b8152fd5b506011602492634e487b7160e01b835252fd5b610b6b91503d8085833e6105158183611927565b5089610a53565b87513d84823e3d90fd5b905060cd5485610b8c8284611bd0565b10610bec579160008051602061204783398151915289610bdb8461025a610bce602498610bc4610bbd8c9a8f611c26565b8092611c26565b938460cd55611bd0565b918260cb5560cc54611bd0565b8151904282528d820152a191610a00565b885163356680b760e01b81528590fd5b855162461bcd60e51b8152602081840152601e60248201527f526566756e6420616d6f756e74206d75737420626520706f73697469766500006044820152606490fd5b508451635c427cd960e01b8152fd5b5034610580578060031936011261058057610c676117ec565b6102bb611dc9565b50823461022957816003193601126102295760335490516001600160a01b039091168152602090f35b50823461022957816003193601126102295760207f62e78cea01bee320cd4e420270b5ea74000d11b0c9f74754ebdbfc544b05a25891610cd66117ec565b610cde611c33565b600160ff19609754161760975551338152a180f35b5034610580578060031936011261058057610d0c6117ec565b603380546001600160a01b0319811690915581906001600160a01b03167f8be0079c531659141344cd1fd0a4f28419497f9722a3daafe3b4186f6b6457e08280a380f35b509190826003193601126103105733835260dc60205260ff828420541615610dcd575060207fba940f7e525c0c7e2b83c7fbf8f07b95c7da51604106be88403040d914a6979b91610da2341515611d7d565b610dae3460cd54611bd0565b60cd55610dbd3460d154611bd0565b60d15551348152a16102bb611dc9565b9051635c427cd960e01b8152fd5b5091903461031057602036600319011261031057803590610dfa6117ec565b610e02611d27565b610e0d821515611d7d565b60cb548060011c8311610e8f5782610e2491611c26565b60cb5560018060a01b0390848080808686603354165af1610e43611cf7565b5015610e8157507ffd282af50c2a0af33f26b6abcc27c8bae5fc57dc3f7ce9b71612b4cd6db59ca091602091603354169351908152a2600160655580f35b83516312171d8360e31b8152fd5b835162461bcd60e51b8152602081840152601e60248201527f45786365656473206d6178696d756d20666565207769746864726177616c00006044820152606490fd5b50823461022957816003193601126102295760209060ff6097541690519015158152f35b509134610310578060031936011261031057610f106117d6565b9060243591610f1d6117ec565b610f25611d27565b6001600160a01b031680855260dc6020528185205490939060ff1615610fd157610f50831515611d7d565b60cb5490612710610f7c610f73610f6a60cc548096611bd0565b60cd5490611bd0565b60d65490611bf3565b048411610fc3575091602091610fb3827ffd282af50c2a0af33f26b6abcc27c8bae5fc57dc3f7ce9b71612b4cd6db59ca095611bd0565b60cc5551908152a2600160655580f35b8251630e50c7b360e11b8152fd5b6020606492519162461bcd60e51b8352820152601060248201526f496e76616c696420737472617465677960801b6044820152fd5b50823461022957816003193601126102295760cb5460cc549361102c610f6a8684611bd0565b60db5495861580159692906110e857612710908181029181830414901517156110ca578761105991611c06565b955b156110dd576127108082029082820414821517156110ca5761107f88600a92611c06565b975b049384156110b8579061109391611bd0565b916127109283810293818504149015171561020857505061020492916101e791611c06565b505050505061020490612710906101e9565b634e487b7160e01b835260118452602483fd5b600a61271097611081565b506127109561105b565b50828160031936011261022957611107611d27565b61110f611c33565b61111a341515611d7d565b6111263460cc54611bd0565b60cc556111353460d054611bd0565b60d055513481527f5511b8c44e0b2636184a3835fd15fe9e9378e48facdcf16c8c5eb4941185806260203392a261116a611dc9565b600160655580f35b5091903461031057826003193601126103105761118d6117ec565b6097549060ff8216156111cf575060ff1916609755513381527f5db9ee0a495bf2e6ff9c91a7834c1ba4fdd244a5e8aa4e537bd38aeae4b073aa90602090a180f35b606490602084519162461bcd60e51b8352820152601460248201527314185d5cd8589b194e881b9bdd081c185d5cd95960621b6044820152fd5b50808334611254576020366003190112611254576112256117d6565b61122d6117ec565b6001600160a01b0316825260dc6020908152818320805460ff1916905560dd905281205580f35b50fd5b50919034610310576020366003190112610310576112736117d6565b61127b6117ec565b6001600160a01b03169081156112a35750825260d76020528120805460ff1916600117905580f35b606490602084519162461bcd60e51b83528201526015602482015274496e76616c696420746f6b656e206164647265737360581b6044820152fd5b50823461022957602090816112f23661178c565b91908284519384928337810160da815203019020549051908152f35b509190346103105760803660031901126103105780356024359060443592606435946113386117ec565b8383111561144b5783156113f9576113888086116113b657861161136757505060d35560d45560d55560d65580f35b906020608492519162461bcd60e51b8352820152602360248201527f456d657267656e6379207769746864726177616c206c696d697420746f6f20686044820152620d2ced60eb1b6064820152fd5b815162461bcd60e51b8152602081850152601d60248201527f4d6178207969656c6420616c6c6f636174696f6e20746f6f20686967680000006044820152606490fd5b906020608492519162461bcd60e51b8352820152602660248201527f4d696e696d756d207265736572766520726174696f206d75737420626520706f60448201526573697469766560d01b6064820152fd5b906020606492519162461bcd60e51b8352820152601a60248201527f546172676574206d75737420657863656564206d696e696d756d0000000000006044820152fd5b50823461022957816003193601126102295780518260c954826114b08261188d565b95868252602096879384840195600191828116908160001461156a575060011461150e575b5050506114e492500383611927565b6115008351948593818552519283809286015285850190611769565b601f01601f19168101030190f35b60c981527f66be4f155c5ef2ebd3772b228f2f00681e4ed5826cdb3b1943cc11ad15ad1d2895935091905b8183106115525750889450508201016114e488806114d5565b85548884018501529485019487945091830191611539565b925050506114e494925060ff19168552151560051b820101869288806114d5565b84929150346102295761159d3661173a565b60ca54909692936001600160a01b0392918316330361172c57506115bf611c33565b6115c7611d27565b86156116e95716926115da841515611c77565b82815260de6020526115f160ff8683205416611cb7565b60cc54868110611670575b506116098660cc54611c26565b60cc556116188660cf54611bd0565b60cf5580808088875af161162a611cf7565b5015610e8157507faf3c8fdd75d667f71d36d7840b8ef9086c516c9b047ad6a83a5a66151342123a602080958551908152a3611664611dc9565b60016065555160018152f35b60cd548761167e8284611bd0565b106116d9576116c76116be836116b58a946116ab610bbd600080516020612047833981519152988f611c26565b928360cd55611bd0565b8060cc55611bd0565b60cb5490611bd0565b8151904282526020820152a1866115fc565b865163356680b760e01b81528490fd5b855162461bcd60e51b8152602081850152601d60248201527f436c61696d20616d6f756e74206d75737420626520706f7369746976650000006044820152606490fd5b635c427cd960e01b81528390fd5b606090600319011261176457600435906024356001600160a01b0381168103611764579060443590565b600080fd5b60005b83811061177c5750506000910152565b818101518382015260200161176c565b9060206003198301126117645760043567ffffffffffffffff9283821161176457806023830112156117645781600401359384116117645760248483010111611764576024019190565b600435906001600160a01b038216820361176457565b6033546001600160a01b0316330361180057565b606460405162461bcd60e51b815260206004820152602060248201527f4f776e61626c653a2063616c6c6572206973206e6f7420746865206f776e65726044820152fd5b603380546001600160a01b039283166001600160a01b0319821681179092559091167f8be0079c531659141344cd1fd0a4f28419497f9722a3daafe3b4186f6b6457e0600080a3565b90600182811c921680156118bd575b60208310146118a757565b634e487b7160e01b600052602260045260246000fd5b91607f169161189c565b156118ce57565b60405162461bcd60e51b815260206004820152602b60248201527f496e697469616c697a61626c653a20636f6e7472616374206973206e6f74206960448201526a6e697469616c697a696e6760a81b6064820152608490fd5b90601f8019910116810190811067ffffffffffffffff82111761194957604052565b634e487b7160e01b600052604160045260246000fd5b5190811515820361176457565b67ffffffffffffffff811161194957601f01601f191660200190565b81601f8201121561176457805161199e8161196c565b926119ac6040519485611927565b81845260208284010111611764576119ca9160208085019101611769565b90565b919060409081848203126117645783519067ffffffffffffffff91828111611764578501906101a0808383031261176457845190810181811085821117611949578552825181526020808401519094906001600160a01b0381168103611764578583015285840151868301526060918285015183820152608090818601518282015260a0958681015187830152611a6660c0820161195f565b60c0830152611a7760e0820161195f565b60e0830152610100808201519083015261012080820151908301526101408082015190830152610160808201518581116117645787611ab7918401611988565b9083015261018090818101519085821161176457611ad791889101611988565b9082015298868101519083821161176457019484601f8701121561176457855197838911611949578860051b94815199611b138a88018c611927565b8a5288808b01968901019787891161176457898101965b898810611b3f57505050505050505050505090565b875187811161176457820185601f19828c030112611764578451918683018381108a821117611bbb5786528c820151928984116117645787838f958e87611b899281980101611988565b835288810151858401528781015189840152611ba68b820161195f565b88840152015189820152815201970196611b2a565b60246000634e487b7160e01b81526041600452fd5b91908201809211611bdd57565b634e487b7160e01b600052601160045260246000fd5b81810292918115918404141715611bdd57565b8115611c10570490565b634e487b7160e01b600052601260045260246000fd5b91908203918211611bdd57565b60ff60975416611c3f57565b60405162461bcd60e51b815260206004820152601060248201526f14185d5cd8589b194e881c185d5cd95960821b6044820152606490fd5b15611c7e57565b60405162461bcd60e51b8152602060048201526011602482015270125b9d985b1a59081c9958da5c1a595b9d607a1b6044820152606490fd5b15611cbe57565b60405162461bcd60e51b8152602060048201526011602482015270506f6c696379206e6f742061637469766560781b6044820152606490fd5b3d15611d22573d90611d088261196c565b91611d166040519384611927565b82523d6000602084013e565b606090565b600260655414611d38576002606555565b60405162461bcd60e51b815260206004820152601f60248201527f5265656e7472616e637947756172643a207265656e7472616e742063616c6c006044820152606490fd5b15611d8457565b60405162461bcd60e51b815260206004820152601760248201527f416d6f756e74206d75737420626520706f7369746976650000000000000000006044820152606490fd5b60db548015611f325760cc547e068db8bac710cb295e9e1b089a027525460aa64c2f837b4a2339c0ebedfa438111611f1d5761271090818102918183041490151715611bdd5781611e1991611c06565b905b60d454809210611e32575b5050611e30611f3b565b565b60008215611f095750600019918083048211611ef657611e559061271092611bf3565b04905b60cc5491828111611e6a575b50611e26565b82611e7491611c26565b9060cd5492838311611eee575b82611e8d575b50611e64565b611eac836116ab60409560008051602061204783398151915297611c26565b908160cc558101908110600014611ed457505b8151904282526020820152a138808080611e87565b60cb54810190811015611ee75750611ebf565b9050611ebf565b839250611e81565b612710611f039204611bf3565b90611e58565b634e487b7160e01b81526012600452602490fd5b611f2c90612710830490611c06565b90611e1b565b61271090611e1b565b611f6b60cb5460cc54611f4e8183611bd0565b91611f5c60cd548094611bd0565b61271094859160d55490611bf3565b04938484101561203f5760db54801561203957818402848104831485151715611bdd5781611f9891611c06565b60d354809111611fac575b50505050505050565b611fcb92611fbe611fc5928894611bf3565b0485611c26565b95611c26565b808511612031575b5083611fe2575b808080611fa3565b61025a604093612012866120086000805160206120478339815191529861201c97611c26565b928360cc55611bd0565b908160cd55611bd0565b8151904282526020820152a138808080611fda565b935038611fd3565b81611f98565b505050505056fe61edca141e69b2f7b6056a1b5b95cd7105defd0d2985d897ca0242c227e44e4da2646970667358221220c580d2380996931cbb3a9ff4f5fcf637f75d0970e10e4588b22845f3e20a036a64736f6c63430008130033","linkReferences":{}},"methodIdentifiers":{"addCapital()":"4110b2c9","addSupportedStablecoin(address)":"24532867","addYieldStrategy(address,uint256)":"d35efe77","depositPremium(uint256)":"eeab8ed0","emergencyWithdrawal(address,uint256)":"57d9989c","forceRebalance()":"ab7a5788","getBalanceInfo()":"fc00e628","getCropExposure(string)":"1645242a","getFinancialHealth()":"508f44a2","getRegionalExposure(string)":"c81be65c","getRiskExposure()":"fd4a7ccd","getVersion()":"0d8e6e2c","initialize(address)":"c4d66de8","owner()":"8da5cb5b","pause()":"8456cb59","paused()":"5c975abb","processClaim(uint256,address,uint256)":"07dfcc8e","processRefund(uint256,address,uint256)":"beb52940","receiveYieldReturns()":"6dcc0d86","removeSupportedStablecoin(address)":"d5d3f78b","removeYieldStrategy(address)":"3a8107cf","renounceOwnership()":"715018a6","setFinancialParameters(uint256,uint256,uint256,uint256)":"1619abcc","setInsuranceContract(address)":"df314601","transferOwnership(address)":"f2fde38b","unpause()":"3f4ba83a","withdrawFees(uint256)":"5e318e07"},"id":93}