{"abi":[{"type":"function","name":"lastParameterType","inputs":[],"outputs":[{"name":"","type":"string","internalType":"string"}],"stateMutability":"view"},{"type":"function","name":"lastPolicyId","inputs":[],"outputs":[{"name":"","type":"uint256","internalType":"uint256"}],"stateMutability":"view"},{"type":"function","name":"lastProviders","inputs":[{"name":"","type":"uint256","internalType":"uint256"}],"outputs":[{"name":"","type":"address","internalType":"address"}],"stateMutability":"view"},{"type":"function","name":"lastRegion","inputs":[],"outputs":[{"name":"","type":"string","internalType":"string"}],"stateMutability":"view"},{"type":"function","name":"requestClimateData","inputs":[{"name":"policyId","type":"uint256","internalType":"uint256"},{"name":"parameterType","type":"string","internalType":"string"},{"name":"region","type":"string","internalType":"string"},{"name":"dataProviders","type":"address[]","internalType":"address[]"}],"outputs":[{"name":"","type":"bytes32","internalType":"bytes32"}],"stateMutability":"nonpayable"}],"bytecode":{"object":"0x608080604052346100165761088c908161001c8239f35b600080fdfe608060408181526004918236101561001657600080fd5b600092833560e01c91826335bba935146106ea575081634c06a626146106405781638d54f04a14610185578163cd8432981461013d575063e6717d831461005c57600080fd5b3461013957816003193601126101395780519082600180549161007e83610704565b8086529282811690811561011157506001146100b5575b5050506100a7826100b194038361073e565b5191829182610776565b0390f35b94508085527fb10e2d527612073b26eecdfd717e6a320cf44b4afac2b0732d9fcbe2b7fa0cf65b8286106100f9575050506100a78260206100b19582010194610095565b805460208787018101919091529095019481016100dc565b6100b19750869350602092506100a794915060ff191682840152151560051b82010194610095565b5080fd5b90503461018157602036600319011261018157359160035483101561017e57506101686020926107f2565b60018060a01b0391549060031b1c169051908152f35b80fd5b8280fd5b82843461017e57608036600319011261017e5760249067ffffffffffffffff8235818111610181576101ba90369087016107bf565b929091604435818111610181576101d490369089016107bf565b916064359681881161063c573660238901121561063c57878a013599828b1161062b5789516005998c8b1b8460209e8f906102118285018761073e565b855284019183010191368311610627578501905b828210610604575050508135998a8855848a116105f2578c6001958b61024b8854610704565b928b601f948a8682116105a0575b50509084831160011461051557508b9161050a575b5060001960038e901b1c19168c881b1787555b88116104f857908786959493928f8b61029b600254610704565b8381116104a5575b5091831160011461042157508a91610416575b5060001960038a901b1c191688861b176002555b60039182548a8455806103d5575b5089979a98968f8f9b915b61032c575b505050505050505061032294818786519889968d88019b8c528888013785019186830185815237019083820152038681018452018261073e565b5190209051908152f35b9091929394959697999b989a83518310156103c9575081841b8301015184546001600160a01b0391821690680100000000000000008110156103b757808a610376920188556107f2565b815490881b93841b19169190921b17905560001981146103a5579086809695949392018f8f9b999c9a986102e3565b634e487b7160e01b8a5260118552858afd5b634e487b7160e01b8d5260418852888dfd5b9a989b999750806102e8565b838b527fc2575a0e9e593c00f959f8c92f12db2869c3395a3b0502d05e2516446f71f85b908101905b81811061040b57506102d8565b8b81558897016103fe565b90508701358f6102b6565b91601f19811660028d527f405787fa12a823e0f2b7631cc41b3ba8828b3321ca811111fa75cd3aa3bb5ace938d905b8c83831061048a5750505010610470575b50508488811b016002556102ca565b88013560001960038b901b60f8161c191690558e80610461565b85013586558b9a90950194938401938d935090810190610450565b60026104e892527f405787fa12a823e0f2b7631cc41b3ba8828b3321ca811111fa75cd3aa3bb5ace84808701881c8201928588106104ef575b01871c019061083f565b8b386102a3565b925081926104de565b634e487b7160e01b8952604184528489fd5b90508b01353861026e565b8c928e918b85528b7fb10e2d527612073b26eecdfd717e6a320cf44b4afac2b0732d9fcbe2b7fa0cf695935b601f198416851061058457505050601f19811610905061056a575b5050868c811b018755610281565b8c013560001960038f901b60f8161c191690558f8061055c565b90859683949596849301358155019501930191908f8c90610541565b6105e192527fb10e2d527612073b26eecdfd717e6a320cf44b4afac2b0732d9fcbe2b7fa0cf686808601891c8201928587106105e9575b01881c019061083f565b8b388a610259565b925081926105d7565b634e487b7160e01b8852604183528388fd5b81356001600160a01b0381168103610623578152908e01908e01610225565b8a80fd5b8980fd5b634e487b7160e01b86526041905284fd5b8480fd5b5050346101395781600319360112610139578051908260025461066281610704565b80855291600191808316908115610111575060011461068d575050506100a7826100b194038361073e565b9450600285527f405787fa12a823e0f2b7631cc41b3ba8828b3321ca811111fa75cd3aa3bb5ace5b8286106106d2575050506100a78260206100b19582010194610095565b805460208787018101919091529095019481016106b5565b849034610139578160031936011261013957602091548152f35b90600182811c92168015610734575b602083101461071e57565b634e487b7160e01b600052602260045260246000fd5b91607f1691610713565b90601f8019910116810190811067ffffffffffffffff82111761076057604052565b634e487b7160e01b600052604160045260246000fd5b6020808252825181830181905290939260005b8281106107ab57505060409293506000838284010152601f8019910116010190565b818101860151848201604001528501610789565b9181601f840112156107ed5782359167ffffffffffffffff83116107ed57602083818601950101116107ed57565b600080fd5b6003548110156108295760036000527fc2575a0e9e593c00f959f8c92f12db2869c3395a3b0502d05e2516446f71f85b0190600090565b634e487b7160e01b600052603260045260246000fd5b81811061084a575050565b6000815560010161083f56fea2646970667358221220453c0c27dfac92949b0c5960fe8b056feb51d851b03e5a14087e0cbccbabe00864736f6c63430008130033","linkReferences":{}},"methodIdentifiers":{"lastParameterType()":"e6717d83","lastPolicyId()":"35bba935","lastProviders(uint256)":"cd843298","lastRegion()":"4c06a626","requestClimateData(uint256,string,string,address[])":"8d54f04a"},"id":105}