{"abi":[{"type":"function","name":"addHistoricalData","inputs":[{"name":"region","type":"string","internalType":"string"},{"name":"parameterType","type":"string","internalType":"string"},{"name":"timestamp","type":"uint256","internalType":"uint256"},{"name":"value","type":"uint256","internalType":"uint256"}],"outputs":[],"stateMutability":"nonpayable"},{"type":"function","name":"fulfillChainlinkRequest","inputs":[{"name":"requestId","type":"bytes32","internalType":"bytes32"},{"name":"value","type":"uint256","internalType":"uint256"}],"outputs":[],"stateMutability":"nonpayable"},{"type":"function","name":"getAverageHistoricalData","inputs":[{"name":"region","type":"string","internalType":"string"},{"name":"parameterType","type":"string","internalType":"string"},{"name":"startTime","type":"uint256","internalType":"uint256"},{"name":"endTime","type":"uint256","internalType":"uint256"}],"outputs":[{"name":"","type":"uint256","internalType":"uint256"}],"stateMutability":"view"},{"type":"function","name":"getHistoricalData","inputs":[{"name":"region","type":"string","internalType":"string"},{"name":"parameterType","type":"string","internalType":"string"},{"name":"timestamp","type":"uint256","internalType":"uint256"}],"outputs":[{"name":"","type":"uint256","internalType":"uint256"}],"stateMutability":"view"},{"type":"function","name":"getRequestStatus","inputs":[{"name":"requestId","type":"bytes32","internalType":"bytes32"}],"outputs":[{"name":"fulfilled","type":"bool","internalType":"bool"},{"name":"value","type":"uint256","internalType":"uint256"},{"name":"responseCount","type":"uint256","internalType":"uint256"}],"stateMutability":"view"},{"type":"function","name":"getVersion","inputs":[],"outputs":[{"name":"","type":"string","internalType":"string"}],"stateMutability":"view"},{"type":"function","name":"initialize","inputs":[{"name":"insuranceContract","type":"address","internalType":"address"},{"name":"chainlinkToken","type":"address","internalType":"address"},{"name":"chainlinkOracle","type":"address","internalType":"address"},{"name":"jobId","type":"bytes32","internalType":"bytes32"},{"name":"chainlinkFee","type":"uint256","internalType":"uint256"}],"outputs":[],"stateMutability":"nonpayable"},{"type":"function","name":"isRegisteredProvider","inputs":[{"name":"provider","type":"address","internalType":"address"}],"outputs":[{"name":"","type":"bool","internalType":"bool"}],"stateMutability":"view"},{"type":"function","name":"owner","inputs":[],"outputs":[{"name":"","type":"address","internalType":"address"}],"stateMutability":"view"},{"type":"function","name":"pause","inputs":[],"outputs":[],"stateMutability":"nonpayable"},{"type":"function","name":"paused","inputs":[],"outputs":[{"name":"","type":"bool","internalType":"bool"}],"stateMutability":"view"},{"type":"function","name":"registerProvider","inputs":[{"name":"provider","type":"address","internalType":"address"}],"outputs":[],"stateMutability":"nonpayable"},{"type":"function","name":"removeProvider","inputs":[{"name":"provider","type":"address","internalType":"address"}],"outputs":[],"stateMutability":"nonpayable"},{"type":"function","name":"renounceOwnership","inputs":[],"outputs":[],"stateMutability":"nonpayable"},{"type":"function","name":"requestClimateData","inputs":[{"name":"policyId","type":"uint256","internalType":"uint256"},{"name":"parameterType","type":"string","internalType":"string"},{"name":"region","type":"string","internalType":"string"},{"name":"dataProviders","type":"address[]","internalType":"address[]"}],"outputs":[{"name":"requestId","type":"bytes32","internalType":"bytes32"}],"stateMutability":"nonpayable"},{"type":"function","name":"setChainlinkParams","inputs":[{"name":"token","type":"address","internalType":"address"},{"name":"oracle","type":"address","internalType":"address"},{"name":"jobId","type":"bytes32","internalType":"bytes32"},{"name":"fee","type":"uint256","internalType":"uint256"}],"outputs":[],"stateMutability":"nonpayable"},{"type":"function","name":"setConsensusParameters","inputs":[{"name":"threshold","type":"uint256","internalType":"uint256"},{"name":"minResponses","type":"uint256","internalType":"uint256"},{"name":"maxResponses","type":"uint256","internalType":"uint256"}],"outputs":[],"stateMutability":"nonpayable"},{"type":"function","name":"setDeviationThreshold","inputs":[{"name":"threshold","type":"uint256","internalType":"uint256"}],"outputs":[],"stateMutability":"nonpayable"},{"type":"function","name":"setInsuranceContract","inputs":[{"name":"insuranceContract","type":"address","internalType":"address"}],"outputs":[],"stateMutability":"nonpayable"},{"type":"function","name":"setRequestTimeout","inputs":[{"name":"timeout","type":"uint256","internalType":"uint256"}],"outputs":[],"stateMutability":"nonpayable"},{"type":"function","name":"submitOracleData","inputs":[{"name":"requestId","type":"bytes32","internalType":"bytes32"},{"name":"value","type":"uint256","internalType":"uint256"}],"outputs":[],"stateMutability":"nonpayable"},{"type":"function","name":"transferOwnership","inputs":[{"name":"newOwner","type":"address","internalType":"address"}],"outputs":[],"stateMutability":"nonpayable"},{"type":"function","name":"unpause","inputs":[],"outputs":[],"stateMutability":"nonpayable"},{"type":"event","name":"DataFulfilled","inputs":[{"name":"requestId","type":"bytes32","indexed":true,"internalType":"bytes32"},{"name":"value","type":"uint256","indexed":false,"internalType":"uint256"}],"anonymous":false},{"type":"event","name":"DataProviderResponse","inputs":[{"name":"requestId","type":"bytes32","indexed":true,"internalType":"bytes32"},{"name":"provider","type":"address","indexed":false,"internalType":"address"},{"name":"value","type":"uint256","indexed":false,"internalType":"uint256"}],"anonymous":false},{"type":"event","name":"DataRequested","inputs":[{"name":"requestId","type":"bytes32","indexed":true,"internalType":"bytes32"},{"name":"policyId","type":"uint256","indexed":true,"internalType":"uint256"},{"name":"parameterType","type":"string","indexed":false,"internalType":"string"}],"anonymous":false},{"type":"event","name":"FailedCallback","inputs":[{"name":"requestId","type":"bytes32","indexed":true,"internalType":"bytes32"},{"name":"policyId","type":"uint256","indexed":true,"internalType":"uint256"}],"anonymous":false},{"type":"event","name":"Initialized","inputs":[{"name":"version","type":"uint8","indexed":false,"internalType":"uint8"}],"anonymous":false},{"type":"event","name":"OwnershipTransferred","inputs":[{"name":"previousOwner","type":"address","indexed":true,"internalType":"address"},{"name":"newOwner","type":"address","indexed":true,"internalType":"address"}],"anonymous":false},{"type":"event","name":"Paused","inputs":[{"name":"account","type":"address","indexed":false,"internalType":"address"}],"anonymous":false},{"type":"event","name":"Unpaused","inputs":[{"name":"account","type":"address","indexed":false,"internalType":"address"}],"anonymous":false},{"type":"error","name":"CallbackFailed","inputs":[]},{"type":"error","name":"InsufficientResponses","inputs":[]},{"type":"error","name":"InvalidRequestParameters","inputs":[]},{"type":"error","name":"RequestAlreadyFulfilled","inputs":[]},{"type":"error","name":"RequestNotFound","inputs":[]},{"type":"error","name":"UnauthorizedDataProvider","inputs":[]}],"bytecode":{"object":"0x6080806040523461001657612038908161001c8239f35b600080fdfe608080604052600436101561001357600080fd5b60003560e01c9081630b5df63b14611223575080630b884e5f146111b45780630d8e6e2c146110ce5780630e2600161461108957806338437df2146110265780633f4ba83a14610f9257806345d0766414610f0e57806351ca236f14610ecf57806353a15edc14610ea3578063574cfacc14610e1e5780635c975abb14610dfb57806361e6efc714610dd4578063622b6af414610d76578063715018a614610d195780638456cb5914610cbf5780638a355a5714610c7d5780638d54f04a146106255780638da5cb5b146105fc5780638fbddede1461056d5780639819adb314610311578063c98c536014610242578063df314601146101b05763f2fde38b1461011c57600080fd5b346101ab5760203660031901126101ab5761013561131c565b61013d6113e8565b6001600160a01b038116156101575761015590611440565b005b60405162461bcd60e51b815260206004820152602660248201527f4f776e61626c653a206e6577206f776e657220697320746865207a65726f206160448201526564647265737360d01b6064820152608490fd5b600080fd5b346101ab5760203660031901126101ab576101c961131c565b6101d16113e8565b6001600160a01b031680156101fd576bffffffffffffffffffffffff60a01b60ca54161760ca55600080f35b60405162461bcd60e51b815260206004820152601960248201527f496e76616c696420696e737572616e63652061646472657373000000000000006044820152606490fd5b346101ab5760603660031901126101ab576044356024356004356102646113e8565b80151580610305575b61027690611fc2565b81156102c85781831061028e5760cc5560cd5560ce55005b60405162461bcd60e51b815260206004820152601260248201527126b0bc1036bab9ba103132901f1e9036b4b760711b6044820152606490fd5b60405162461bcd60e51b8152602060048201526015602482015274496e76616c6964206d696e20726573706f6e73657360581b6044820152606490fd5b5061271081111561026d565b346101ab5760a03660031901126101ab5761032a61131c565b610332611332565b6001600160a01b039160443583811691908290036101ab576000549360ff8560081c161593848095610560575b8015610549575b156104ed5760ff19808716600190811760005596866104db575b5061039b60ff60005460081c1661039681611521565b611521565b6103a433611440565b6103cf60ff60005460081c166103b981611521565b6103c281611521565b8860655561039681611521565b609754166097556103e160c954611489565b601f811161048f575b50600a640312e302e360dc1b0160c955816bffffffffffffffffffffffff60a01b93168360ca54161760ca556119c860cc55600360cd55600a60ce556201518060cf556107d060d255168160d354161760d35560d454161760d45560643560d55560843560d65561045757005b60207f7f26b83ff96e1f2b6a682f133852f6798a09c465da95921460cefb38474024989161ff001960005416600055604051908152a1005b60c960005286601f7f66be4f155c5ef2ebd3772b228f2f00681e4ed5826cdb3b1943cc11ad15ad1d28920160051c8201915b8281106104cf5750506103ea565b600081550187906104c1565b61ffff19166101011760005587610380565b60405162461bcd60e51b815260206004820152602e60248201527f496e697469616c697a61626c653a20636f6e747261637420697320616c72656160448201526d191e481a5b9a5d1a585b1a5e995960921b6064820152608490fd5b50303b1580156103665750600160ff871614610366565b50600160ff87161061035f565b346101ab5761057b36611375565b94929190936105886113e8565b428510156105be5760206105af94826040519384928337810160d181520301902091611d47565b60009182526020526040902055005b60405162461bcd60e51b815260206004820152601660248201527543616e6e6f742073657420667574757265206461746160501b6044820152606490fd5b346101ab5760003660031901126101ab576033546040516001600160a01b039091168152602090f35b346101ab5760803660031901126101ab576024356001600160401b0381116101ab57610655903690600401611348565b6044356001600160401b0381116101ab57610674903690600401611348565b91606435906001600160401b0382116101ab57366023830112156101ab578160040135946001600160401b0386116109e3578560051b92604051966106bc60208601896113c7565b8752602087019060248295820101903682116101ab57602401915b818310610c5d57505060ca546001600160a01b031633039050610c19576106fc6115f8565b60043515610be0578115610ba2578415610b6c5785519460cd54809610610b275760009460005b88518110156107775760018060a01b0360208260051b8b0101511660005260cb60205260ff60406000205416610762575b61075d90611581565b610723565b9561076f61075d91611581565b969050610754565b5086889610610ae25760405160208101906004358252858560408301376107c4608082868982018188604083016000815237014260408201524460608201520360608101845201826113c7565b519020948560005260d060205260406000209060043582556001600160401b0386116109e357610804866107fb6001850154611489565b600185016114da565b856000601f8211600114610a7457600091610a69575b508660011b906000198860031b1c19161760018301555b6001600160401b0384116109e35760028201610857856108518354611489565b836114da565b846000601f8211600114610a04576000916109f9575b508560011b906000198760031b1c19161790555b4260038301556004820180546001600160a01b03191633179055965160058201976001600160401b0382116109e3576801000000000000000082116109e3578854828a558083106109c5575b509760005260206000209760005b8281106109a85760208989817fa1d140e05da8ffb70d1fe28264b7372073f972f70ee71e0289ac37c64ecfbe008b8b8b600060098d6006810160ff198154169055826008820155015560018060a01b0360d35416151580610994575b610975575b505083604051918783528188840152604083013760006040858301015260408160043595601f80199101168101030190a3604051908152f35b61098c916109843688866115c1565b5036916115c1565b50868061093c565b5060d4546001600160a01b03161515610937565b81516001600160a01b0316818b01556020909101906001016108db565b6109dd908a60005283602060002091820191016114c3565b896108cd565b634e487b7160e01b600052604160045260246000fd5b90508401358a61086d565b60008381526020812092505b601f1988168110610a51575086601f19811610610a37575b5050600185811b019055610881565b850135600019600388901b60f8161c191690558980610a28565b9091602060018192858a013581550193019101610a10565b90508501358961081a565b90506001830160005260206000209060005b601f1989168110610aca575087601f19811610610ab0575b5050600186811b016001830155610831565b860135600019600389901b60f8161c191690558880610a9e565b9091602060018192858b013581550193019101610a86565b60405162461bcd60e51b815260206004820152601c60248201527f496e73756666696369656e742076616c69642070726f766964657273000000006044820152606490fd5b60405162461bcd60e51b815260206004820152601b60248201527f496e73756666696369656e7420646174612070726f76696465727300000000006044820152606490fd5b60405162461bcd60e51b815260206004820152600e60248201526d24b73b30b634b2103932b3b4b7b760911b6044820152606490fd5b60405162461bcd60e51b8152602060048201526016602482015275496e76616c696420706172616d65746572207479706560501b6044820152606490fd5b60405162461bcd60e51b8152602060048201526011602482015270125b9d985b1a59081c1bdb1a58de481251607a1b6044820152606490fd5b606460405162461bcd60e51b815260206004820152602060248201527f43616c6c6572206973206e6f7420696e737572616e636520636f6e74726163746044820152fd5b82356001600160a01b03811681036101ab578152602092830192016106d7565b346101ab5760203660031901126101ab57610c9661131c565b610c9e6113e8565b6001600160a01b0316600090815260cb60205260409020805460ff19169055005b346101ab5760003660031901126101ab57610cd86113e8565b610ce06115f8565b600160ff1960975416176097557f62e78cea01bee320cd4e420270b5ea74000d11b0c9f74754ebdbfc544b05a2586020604051338152a1005b346101ab5760003660031901126101ab57610d326113e8565b603380546001600160a01b031981169091556000906001600160a01b03167f8be0079c531659141344cd1fd0a4f28419497f9722a3daafe3b4186f6b6457e08280a3005b346101ab5760203660031901126101ab57600435610d926113e8565b8015610d9d5760cf55005b60405162461bcd60e51b815260206004820152600f60248201526e125b9d985b1a59081d1a5b595bdd5d608a1b6044820152606490fd5b346101ab576020610df3610de736611375565b94939093929192611d60565b604051908152f35b346101ab5760003660031901126101ab57602060ff609754166040519015158152f35b346101ab5760603660031901126101ab576001600160401b036004358181116101ab57610e4f903690600401611348565b916024359081116101ab57610e8a92610e6e6020923690600401611348565b929093826040519384928337810160d181520301902091611d47565b6044356000526020526020604060002054604051908152f35b346101ab5760203660031901126101ab57600435610ebf6113e8565b610eca811515611fc2565b60d255005b346101ab5760203660031901126101ab576001600160a01b03610ef061131c565b1660005260cb602052602060ff604060002054166040519015158152f35b346101ab5760203660031901126101ab5760043560005260d06020526040600020600381015415610f80578060ff600660609301541690610f646008600983015492015491821515600014610f78578290611649565b604051921515835260208301526040820152f35b600190611649565b604051632589d98f60e11b8152600490fd5b346101ab5760003660031901126101ab57610fab6113e8565b60975460ff811615610fea5760ff19166097557f5db9ee0a495bf2e6ff9c91a7834c1ba4fdd244a5e8aa4e537bd38aeae4b073aa6020604051338152a1005b60405162461bcd60e51b815260206004820152601460248201527314185d5cd8589b194e881b9bdd081c185d5cd95960621b6044820152606490fd5b346101ab5760803660031901126101ab5761103f61131c565b611047611332565b61104f6113e8565b60d380546001600160a01b039384166001600160a01b03199182161790915560d4805492909316911617905560443560d55560643560d655005b346101ab5760203660031901126101ab576110a261131c565b6110aa6113e8565b6001600160a01b0316600090815260cb60205260409020805460ff19166001179055005b346101ab5760003660031901126101ab57604051600060c9546110f081611489565b8084529060019081811690811561118d5750600114611132575b61112e8461111a818603826113c7565b6040519182916020835260208301906112dc565b0390f35b60c9600090815292507f66be4f155c5ef2ebd3772b228f2f00681e4ed5826cdb3b1943cc11ad15ad1d285b82841061117557505050810160200161111a8261110a565b8054602085870181019190915290930192810161115d565b60ff191660208087019190915292151560051b8501909201925061111a915083905061110a565b346101ab576111c2366112c6565b908060005260d0602052604060002091600383015415610f805760ff6006840154166112115761120a600984600861015596016111ff8154611581565b905501918254611669565b90556118cc565b60405163533d99dd60e01b8152600490fd5b346101ab57611231366112c6565b90913360005260cb60205260ff60406000205416156112b757506112536115f8565b6002606554146112725761126b916002606555611676565b6001606555005b60405162461bcd60e51b815260206004820152601f60248201527f5265656e7472616e637947756172643a207265656e7472616e742063616c6c006044820152606490fd5b63f14cc2cd60e01b8152600490fd5b60409060031901126101ab576004359060243590565b919082519283825260005b848110611308575050826000602080949584010152601f8019910116010190565b6020818301810151848301820152016112e7565b600435906001600160a01b03821682036101ab57565b602435906001600160a01b03821682036101ab57565b9181601f840112156101ab578235916001600160401b0383116101ab57602083818601950101116101ab57565b60806003198201126101ab576001600160401b03916004358381116101ab57826113a191600401611348565b939093926024359182116101ab576113bb91600401611348565b90916044359060643590565b90601f801991011681019081106001600160401b038211176109e357604052565b6033546001600160a01b031633036113fc57565b606460405162461bcd60e51b815260206004820152602060248201527f4f776e61626c653a2063616c6c6572206973206e6f7420746865206f776e65726044820152fd5b603380546001600160a01b039283166001600160a01b0319821681179092559091167f8be0079c531659141344cd1fd0a4f28419497f9722a3daafe3b4186f6b6457e0600080a3565b90600182811c921680156114b9575b60208310146114a357565b634e487b7160e01b600052602260045260246000fd5b91607f1691611498565b8181106114ce575050565b600081556001016114c3565b9190601f81116114e957505050565b611515926000526020600020906020601f840160051c83019310611517575b601f0160051c01906114c3565b565b9091508190611508565b1561152857565b60405162461bcd60e51b815260206004820152602b60248201527f496e697469616c697a61626c653a20636f6e7472616374206973206e6f74206960448201526a6e697469616c697a696e6760a81b6064820152608490fd5b60001981146115905760010190565b634e487b7160e01b600052601160045260246000fd5b6001600160401b0381116109e357601f01601f191660200190565b9291926115cd826115a6565b916115db60405193846113c7565b8294818452818301116101ab578281602093846000960137010152565b60ff6097541661160457565b60405162461bcd60e51b815260206004820152601060248201526f14185d5cd8589b194e881c185d5cd95960821b6044820152606490fd5b9190820391821161159057565b8115611653570490565b634e487b7160e01b600052601260045260246000fd5b9190820180921161159057565b9060009082825260209060d082526040808420926003840154156118bb5760ff6006850154166118aa578485600586018054915b828110611876575b5050501561186557338552600784019052808420805460ff811661185c5760019060ff1916179055600883019260016116eb8554611581565b80865511156118165760090193845493546000198101908111611802576117129085611649565b90818411156117ca57611725828561163c565b90612710918281029281840414901517156117b657509161174e87969492611515989694611649565b60d2541015611762575b50505050506118cc565b7fead800841ff2c8a9c38239f21123bc22676bcd70d0c8f5a6bae488bfd17494b693611791836117a995611669565b90555133815260208101919091529081906040820190565b0390a28038808080611758565b634e487b7160e01b81526011600452602490fd5b6117d4848361163c565b90612710918281029281840414901517156117b65750916117fd87969492611515989694611649565b61174e565b634e487b7160e01b82526011600452602482fd5b6009018290555133815260208101919091526115159392508291507fead800841ff2c8a9c38239f21123bc22676bcd70d0c8f5a6bae488bfd17494b690604090a26118cc565b50505050505050565b815163f14cc2cd60e01b8152600490fd5b8189528489208101546001600160a01b0316331461189c5761189790611581565b6116aa565b5050505060013880806116b2565b815163533d99dd60e01b8152600490fd5b8151632589d98f60e11b8152600490fd5b600090808252602060d0815260409081842091600883015460cd548110159060ce54811091612710808302908382041483151715611d3357600587015461191291611649565b60cc5411159260038701549361192a60cf5486611669565b42119083611d07575b5050506119435750505050505050565b611951906009860154611649565b906002850191835185818a86549661196888611489565b906001988981169081600014611cf05750600114611cba575b505060d1815203019020918387019286865180928c9087546119a281611489565b908a8116908115611ca55750600114611c6f575b5081520301902090895285528084892055600686019260ff19938185825416179055877f91bbeb6693b54ed164984d080403adc3d9ef9e7712a54536723a61de8084ab90878751858152a28451928887850152828685015285845260608401946001600160401b039285871084881117611beb57610120860187811085821117611c5b5788528a875287519283918d9180548c611a5282611489565b80875296828516928315611c3b57505050600114611bff575b5050611a79925003826113c7565b6080840190815260a0840192835260c08401904282528651928784019084821090821117611beb57611b7e89611b708e9995988a9998611b5e8f998c9b8f988d9a611b3c918b52601884527f4167726f436861696e204f7261636c65204e6574776f726b00000000000000008985015260e08701938452610100870196875260018060a01b0360ca54169d549c8b519b8c9a8b019e8f6304b0314d60e21b905260248c015260448b01525160648a01525160c060848a01526101248901906112dc565b935160a48801525160c4870152519160631992838783030160e48801526112dc565b915190848303016101048501526112dc565b03601f1981018352826113c7565b51925af1923d15611be3573d611b9f611b96826115a6565b945194856113c7565b83523d92013e5b15611bb5575b8080808061185c565b7ff8c83205af6c2b9b674433dcc83812240c38b4ace2fe5e2590990740ee45f19f90549280a3388080611bac565b505050611ba6565b634e487b7160e01b8c52604160045260248cfd5b8b9250908e9182528282205b858310611c23575050611a7993508201013880611a6b565b80548388018501528694508c93909201918101611c0b565b925092509350611a799592501682840152151560051b8201013880611a6b565b634e487b7160e01b8d52604160045260248dfd5b909150878e528d898582205b838310611c8e57505050820190386119b6565b8054888401528d96889650909201918b9101611c7b565b60ff19168552508015150283019150386119b6565b9091508c52828c20878d915b838310611cd95750505081013880611981565b8054878401528b9587955090920191899101611cc6565b60ff19168552505080151502820190503880611981565b821593509091611d2b575b508115611d23575b50388080611933565b905038611d1a565b915038611d12565b634e487b7160e01b89526011600452602489fd5b6020919283604051948593843782019081520301902090565b9095919594939485851115611f8857428511611f43576000938493859688975b8189111580611f39575b15611e00576040805186888237611db38d87838a810160d1815260209586910301902091611d47565b908b600052526000205480611de1575b50611dcd90611581565b976201518081018091116115905797611d80565b611df3611df991611dcd93999a611669565b98611581565b9690611dc3565b50929394965097969094968615611e31575b5050505050508015611e2a57611e2791611649565b90565b5050600090565b611ebf90611e4b611e42848661163c565b60011c84611669565b9660409586519481898737611e718683810160d181526020988991030190208486611d47565b906000528552866000205498611e9a8851838b8237878185810160d18152030190208486611d47565b906000528552848760002054988289519384928337810160d181520301902091611d47565b9160005252600020549180611f1d575b5080611f01575b5080611ee7575b8080808080611e12565b611ef590611efb9293611669565b91611581565b38611edd565b611f1090611f16929394611669565b92611581565b9038611ed6565b611f2c90611f32929495611669565b93611581565b9138611ecf565b50601e8110611d8a565b60405162461bcd60e51b815260206004820152601960248201527f4675747572652074696d65206e6f7420617661696c61626c65000000000000006044820152606490fd5b60405162461bcd60e51b8152602060048201526012602482015271496e76616c69642074696d652072616e676560701b6044820152606490fd5b15611fc957565b60405162461bcd60e51b8152602060048201526011602482015270125b9d985b1a59081d1a1c995cda1bdb19607a1b6044820152606490fdfea26469706673582212203149c80df7f6cd9e2c454ad6b81250e0c29831f57f61384fc1fc7ea08e8afa9e64736f6c63430008130033","linkReferences":{}},"methodIdentifiers":{"addHistoricalData(string,string,uint256,uint256)":"8fbddede","fulfillChainlinkRequest(bytes32,uint256)":"0b884e5f","getAverageHistoricalData(string,string,uint256,uint256)":"61e6efc7","getHistoricalData(string,string,uint256)":"574cfacc","getRequestStatus(bytes32)":"45d07664","getVersion()":"0d8e6e2c","initialize(address,address,address,bytes32,uint256)":"9819adb3","isRegisteredProvider(address)":"51ca236f","owner()":"8da5cb5b","pause()":"8456cb59","paused()":"5c975abb","registerProvider(address)":"0e260016","removeProvider(address)":"8a355a57","renounceOwnership()":"715018a6","requestClimateData(uint256,string,string,address[])":"8d54f04a","setChainlinkParams(address,address,bytes32,uint256)":"38437df2","setConsensusParameters(uint256,uint256,uint256)":"c98c5360","setDeviationThreshold(uint256)":"53a15edc","setInsuranceContract(address)":"df314601","setRequestTimeout(uint256)":"622b6af4","submitOracleData(bytes32,uint256)":"0b5df63b","transferOwnership(address)":"f2fde38b","unpause()":"3f4ba83a"},"id":91}