{"abi":[{"type":"receive","stateMutability":"payable"},{"type":"function","name":"claimsPaid","inputs":[],"outputs":[{"name":"","type":"uint256","internalType":"uint256"}],"stateMutability":"view"},{"type":"function","name":"depositPremium","inputs":[{"name":"","type":"uint256","internalType":"uint256"}],"outputs":[{"name":"","type":"bool","internalType":"bool"}],"stateMutability":"payable"},{"type":"function","name":"getBalanceInfo","inputs":[],"outputs":[{"name":"premiumPool","type":"uint256","internalType":"uint256"},{"name":"claimPool","type":"uint256","internalType":"uint256"},{"name":"yieldPool","type":"uint256","internalType":"uint256"},{"name":"totalBalance","type":"uint256","internalType":"uint256"},{"name":"totalClaims","type":"uint256","internalType":"uint256"}],"stateMutability":"view"},{"type":"function","name":"getClaimsPaid","inputs":[],"outputs":[{"name":"","type":"uint256","internalType":"uint256"}],"stateMutability":"view"},{"type":"function","name":"getFinancialHealth","inputs":[],"outputs":[{"name":"solvencyRatio","type":"uint256","internalType":"uint256"},{"name":"reserveRatio","type":"uint256","internalType":"uint256"},{"name":"liquidityRatio","type":"uint256","internalType":"uint256"}],"stateMutability":"pure"},{"type":"function","name":"getPremiumReceived","inputs":[],"outputs":[{"name":"","type":"uint256","internalType":"uint256"}],"stateMutability":"view"},{"type":"function","name":"getRefundsPaid","inputs":[],"outputs":[{"name":"","type":"uint256","internalType":"uint256"}],"stateMutability":"view"},{"type":"function","name":"getRiskExposure","inputs":[],"outputs":[{"name":"totalExposure","type":"uint256","internalType":"uint256"},{"name":"activePolicyCount","type":"uint256","internalType":"uint256"},{"name":"coverageToReserveRatio","type":"uint256","internalType":"uint256"}],"stateMutability":"pure"},{"type":"function","name":"premiumReceived","inputs":[],"outputs":[{"name":"","type":"uint256","internalType":"uint256"}],"stateMutability":"view"},{"type":"function","name":"processClaim","inputs":[{"name":"","type":"uint256","internalType":"uint256"},{"name":"recipient","type":"address","internalType":"address payable"},{"name":"amount","type":"uint256","internalType":"uint256"}],"outputs":[{"name":"","type":"bool","internalType":"bool"}],"stateMutability":"nonpayable"},{"type":"function","name":"processRefund","inputs":[{"name":"","type":"uint256","internalType":"uint256"},{"name":"recipient","type":"address","internalType":"address payable"},{"name":"amount","type":"uint256","internalType":"uint256"}],"outputs":[{"name":"","type":"bool","internalType":"bool"}],"stateMutability":"nonpayable"},{"type":"function","name":"refundsPaid","inputs":[],"outputs":[{"name":"","type":"uint256","internalType":"uint256"}],"stateMutability":"view"}],"bytecode":{"object":"0x60808060405234610016576103ce908161001c8239f35b600080fdfe60806040818152600436101561001f575b5050361561001d57600080fd5b005b600091823560e01c90816307dfcc8e146102ac5750806320f0e16214610264578063508f44a2146102805780636ea3902614610264578063942096e5146102465780639910961714610228578063afbed63a14610246578063b5e1ecd614610228578063beb529401461017f578063eeab8ed01461015b578063fc00e628146100e15763fd4a7ccd0361001057346100dd57816003193601126100dd57806113886060925191681b1ae4d6e2ef500000835260036020840152820152f35b5080fd5b50903461015857806003193601126101585780549060025482039182116101445760015490683635c9adc5dea0000090828203918211610144575068056bc75e2d6310000060a09447928151958652602086015284015260608301526080820152f35b634e487b7160e01b81526011600452602490fd5b80fd5b5060203660031901126100dd57602091610176348254610375565b90555160018152f35b50346100dd5761018e36610346565b80925047106101e4578380838194936101aa8395600254610375565b600255829082156101da575b6001600160a01b031690f1156101d0576020905160018152f35b51903d90823e3d90fd5b6108fc91506101b6565b825162461bcd60e51b815260206004820152601f60248201527f496e73756666696369656e742062616c616e636520666f7220726566756e64006044820152606490fd5b50346100dd57816003193601126100dd576020906001549051908152f35b50346100dd57816003193601126100dd576020906002549051908152f35b50346100dd57816003193601126100dd57602091549051908152f35b50346100dd57816003193601126100dd5780614e206060925191613a988352612ee06020840152820152f35b905034610342576102bc36610346565b8093919250471061030057508380838194936102db8395600154610375565b600155829082156101da576001600160a01b031690f1156101d0576020905160018152f35b62461bcd60e51b815260206004820152601e60248201527f496e73756666696369656e742062616c616e636520666f7220636c61696d00006044820152606490fd5b8280fd5b606090600319011261037057600435906024356001600160a01b0381168103610370579060443590565b600080fd5b9190820180921161038257565b634e487b7160e01b600052601160045260246000fdfea2646970667358221220fdd955bf2327234d98a5157d380f58fad165f40896e178b4fea3773243c9ee3864736f6c63430008130033","linkReferences":{}},"methodIdentifiers":{"claimsPaid()":"99109617","depositPremium(uint256)":"eeab8ed0","getBalanceInfo()":"fc00e628","getClaimsPaid()":"b5e1ecd6","getFinancialHealth()":"508f44a2","getPremiumReceived()":"20f0e162","getRefundsPaid()":"afbed63a","getRiskExposure()":"fd4a7ccd","premiumReceived()":"6ea39026","processClaim(uint256,address,uint256)":"07dfcc8e","processRefund(uint256,address,uint256)":"beb52940","refundsPaid()":"942096e5"},"id":105}