{"abi":[{"type":"constructor","inputs":[{"name":"insuranceContract","type":"address","internalType":"address"}],"stateMutability":"nonpayable"},{"type":"function","name":"approve","inputs":[{"name":"to","type":"address","internalType":"address"},{"name":"tokenId","type":"uint256","internalType":"uint256"}],"outputs":[],"stateMutability":"nonpayable"},{"type":"function","name":"balanceOf","inputs":[{"name":"owner","type":"address","internalType":"address"}],"outputs":[{"name":"","type":"uint256","internalType":"uint256"}],"stateMutability":"view"},{"type":"function","name":"burnPolicy","inputs":[{"name":"tokenId","type":"uint256","internalType":"uint256"}],"outputs":[],"stateMutability":"nonpayable"},{"type":"function","name":"getApproved","inputs":[{"name":"tokenId","type":"uint256","internalType":"uint256"}],"outputs":[{"name":"","type":"address","internalType":"address"}],"stateMutability":"view"},{"type":"function","name":"getMetadata","inputs":[{"name":"tokenId","type":"uint256","internalType":"uint256"}],"outputs":[{"name":"region","type":"string","internalType":"string"},{"name":"cropType","type":"string","internalType":"string"},{"name":"coverageAmount","type":"uint256","internalType":"uint256"},{"name":"startDate","type":"uint256","internalType":"uint256"},{"name":"endDate","type":"uint256","internalType":"uint256"},{"name":"premium","type":"uint256","internalType":"uint256"},{"name":"climateParameters","type":"string","internalType":"string"}],"stateMutability":"view"},{"type":"function","name":"getPolicyId","inputs":[{"name":"tokenId","type":"uint256","internalType":"uint256"}],"outputs":[{"name":"policyId","type":"uint256","internalType":"uint256"}],"stateMutability":"view"},{"type":"function","name":"getTokenId","inputs":[{"name":"policyId","type":"uint256","internalType":"uint256"}],"outputs":[{"name":"tokenId","type":"uint256","internalType":"uint256"}],"stateMutability":"view"},{"type":"function","name":"isApprovedForAll","inputs":[{"name":"owner","type":"address","internalType":"address"},{"name":"operator","type":"address","internalType":"address"}],"outputs":[{"name":"","type":"bool","internalType":"bool"}],"stateMutability":"view"},{"type":"function","name":"mintPolicy","inputs":[{"name":"policyId","type":"uint256","internalType":"uint256"},{"name":"to","type":"address","internalType":"address"}],"outputs":[{"name":"tokenId","type":"uint256","internalType":"uint256"}],"stateMutability":"nonpayable"},{"type":"function","name":"name","inputs":[],"outputs":[{"name":"","type":"string","internalType":"string"}],"stateMutability":"view"},{"type":"function","name":"owner","inputs":[],"outputs":[{"name":"","type":"address","internalType":"address"}],"stateMutability":"view"},{"type":"function","name":"ownerOf","inputs":[{"name":"tokenId","type":"uint256","internalType":"uint256"}],"outputs":[{"name":"","type":"address","internalType":"address"}],"stateMutability":"view"},{"type":"function","name":"pause","inputs":[],"outputs":[],"stateMutability":"nonpayable"},{"type":"function","name":"paused","inputs":[],"outputs":[{"name":"","type":"bool","internalType":"bool"}],"stateMutability":"view"},{"type":"function","name":"policyExists","inputs":[{"name":"policyId","type":"uint256","internalType":"uint256"}],"outputs":[{"name":"exists","type":"bool","internalType":"bool"}],"stateMutability":"view"},{"type":"function","name":"renounceOwnership","inputs":[],"outputs":[],"stateMutability":"nonpayable"},{"type":"function","name":"safeTransferFrom","inputs":[{"name":"from","type":"address","internalType":"address"},{"name":"to","type":"address","internalType":"address"},{"name":"tokenId","type":"uint256","internalType":"uint256"}],"outputs":[],"stateMutability":"nonpayable"},{"type":"function","name":"safeTransferFrom","inputs":[{"name":"from","type":"address","internalType":"address"},{"name":"to","type":"address","internalType":"address"},{"name":"tokenId","type":"uint256","internalType":"uint256"},{"name":"data","type":"bytes","internalType":"bytes"}],"outputs":[],"stateMutability":"nonpayable"},{"type":"function","name":"setApprovalForAll","inputs":[{"name":"operator","type":"address","internalType":"address"},{"name":"approved","type":"bool","internalType":"bool"}],"outputs":[],"stateMutability":"nonpayable"},{"type":"function","name":"setInsuranceContract","inputs":[{"name":"newInsuranceContract","type":"address","internalType":"address"}],"outputs":[],"stateMutability":"nonpayable"},{"type":"function","name":"setMetadata","inputs":[{"name":"tokenId","type":"uint256","internalType":"uint256"},{"name":"region","type":"string","internalType":"string"},{"name":"cropType","type":"string","internalType":"string"},{"name":"coverageAmount","type":"uint256","internalType":"uint256"},{"name":"startDate","type":"uint256","internalType":"uint256"},{"name":"endDate","type":"uint256","internalType":"uint256"},{"name":"premium","type":"uint256","internalType":"uint256"},{"name":"climateParameters","type":"string","internalType":"string"}],"outputs":[],"stateMutability":"nonpayable"},{"type":"function","name":"supportsInterface","inputs":[{"name":"interfaceId","type":"bytes4","internalType":"bytes4"}],"outputs":[{"name":"","type":"bool","internalType":"bool"}],"stateMutability":"view"},{"type":"function","name":"symbol","inputs":[],"outputs":[{"name":"","type":"string","internalType":"string"}],"stateMutability":"view"},{"type":"function","name":"tokenByIndex","inputs":[{"name":"index","type":"uint256","internalType":"uint256"}],"outputs":[{"name":"","type":"uint256","internalType":"uint256"}],"stateMutability":"view"},{"type":"function","name":"tokenOfOwnerByIndex","inputs":[{"name":"owner","type":"address","internalType":"address"},{"name":"index","type":"uint256","internalType":"uint256"}],"outputs":[{"name":"","type":"uint256","internalType":"uint256"}],"stateMutability":"view"},{"type":"function","name":"tokenURI","inputs":[{"name":"tokenId","type":"uint256","internalType":"uint256"}],"outputs":[{"name":"","type":"string","internalType":"string"}],"stateMutability":"view"},{"type":"function","name":"totalSupply","inputs":[],"outputs":[{"name":"","type":"uint256","internalType":"uint256"}],"stateMutability":"view"},{"type":"function","name":"transferFrom","inputs":[{"name":"from","type":"address","internalType":"address"},{"name":"to","type":"address","internalType":"address"},{"name":"tokenId","type":"uint256","internalType":"uint256"}],"outputs":[],"stateMutability":"nonpayable"},{"type":"function","name":"transferOwnership","inputs":[{"name":"newOwner","type":"address","internalType":"address"}],"outputs":[],"stateMutability":"nonpayable"},{"type":"function","name":"unpause","inputs":[],"outputs":[],"stateMutability":"nonpayable"},{"type":"event","name":"Approval","inputs":[{"name":"owner","type":"address","indexed":true,"internalType":"address"},{"name":"approved","type":"address","indexed":true,"internalType":"address"},{"name":"tokenId","type":"uint256","indexed":true,"internalType":"uint256"}],"anonymous":false},{"type":"event","name":"ApprovalForAll","inputs":[{"name":"owner","type":"address","indexed":true,"internalType":"address"},{"name":"operator","type":"address","indexed":true,"internalType":"address"},{"name":"approved","type":"bool","indexed":false,"internalType":"bool"}],"anonymous":false},{"type":"event","name":"BatchMetadataUpdate","inputs":[{"name":"_fromTokenId","type":"uint256","indexed":false,"internalType":"uint256"},{"name":"_toTokenId","type":"uint256","indexed":false,"internalType":"uint256"}],"anonymous":false},{"type":"event","name":"MetadataUpdate","inputs":[{"name":"_tokenId","type":"uint256","indexed":false,"internalType":"uint256"}],"anonymous":false},{"type":"event","name":"OwnershipTransferred","inputs":[{"name":"previousOwner","type":"address","indexed":true,"internalType":"address"},{"name":"newOwner","type":"address","indexed":true,"internalType":"address"}],"anonymous":false},{"type":"event","name":"Paused","inputs":[{"name":"account","type":"address","indexed":false,"internalType":"address"}],"anonymous":false},{"type":"event","name":"PolicyNFTBurned","inputs":[{"name":"policyId","type":"uint256","indexed":true,"internalType":"uint256"},{"name":"tokenId","type":"uint256","indexed":true,"internalType":"uint256"}],"anonymous":false},{"type":"event","name":"PolicyTokenized","inputs":[{"name":"policyId","type":"uint256","indexed":true,"internalType":"uint256"},{"name":"tokenId","type":"uint256","indexed":true,"internalType":"uint256"},{"name":"owner","type":"address","indexed":false,"internalType":"address"}],"anonymous":false},{"type":"event","name":"Transfer","inputs":[{"name":"from","type":"address","indexed":true,"internalType":"address"},{"name":"to","type":"address","indexed":true,"internalType":"address"},{"name":"tokenId","type":"uint256","indexed":true,"internalType":"uint256"}],"anonymous":false},{"type":"event","name":"Unpaused","inputs":[{"name":"account","type":"address","indexed":false,"internalType":"address"}],"anonymous":false},{"type":"error","name":"InvalidMetadata","inputs":[]},{"type":"error","name":"PolicyAlreadyTokenized","inputs":[]},{"type":"error","name":"PolicyNotFound","inputs":[]},{"type":"error","name":"UnauthorizedCaller","inputs":[]}],"bytecode":{"object":"0x6080346200040357601f906001600160401b0390601f1962003023388190038581018316840185811185821017620003ed578492829160405283396020938491810103126200040357516001600160a01b03808216959094909186900362000403576200006b62000408565b91601083526f4167726f436861696e20506f6c69637960801b858401526200009262000408565b600581526404147524f560dc1b86820152835194838611620003ed576000958654956001968781811c91168015620003e2575b8a821014620003ce579081868493116200037b575b5089908683116001146200031a5789926200030e575b5050600019600383901b1c191690861b1786555b8151938411620002fa5784548581811c91168015620002ef575b88821014620002db57908184869594931162000284575b5087928411600114620002235750859262000217575b5050600019600383901b1c191690821b1790555b600b5490610100600160a81b033360081b1660018060a81b0319831617600b557f8be0079c531659141344cd1fd0a4f28419497f9722a3daafe3b4186f6b6457e060405194339360081c169180a38215620001d657600d80546001600160a01b03191684179055604051612bfa9081620004298239f35b62461bcd60e51b82526004820152601a60248201527f496e76616c696420696e737572616e636520636f6e7472616374000000000000604482015260649150fd5b0151905038806200014b565b85875287872086959093929116875b898282106200026d575050841162000253575b505050811b0190556200015f565b015160001960f88460031b161c1916905538808062000245565b838501518655889790950194938401930162000232565b90919293508587528787208480870160051c8201928a8810620002d1575b9187968992969594930160051c01915b828110620002c257505062000135565b898155879650889101620002b2565b92508192620002a2565b634e487b7160e01b87526022600452602487fd5b90607f16906200011e565b634e487b7160e01b86526041600452602486fd5b015190503880620000f0565b9084899416918a80528b8b20928b5b8d8282106200036457505084116200034a575b505050811b01865562000104565b015160001960f88460031b161c191690553880806200033c565b8385015186558c9790950194938401930162000329565b9091508880528989208680850160051c8201928c8610620003c4575b918a91869594930160051c01915b828110620003b5575050620000da565b8b81558594508a9101620003a5565b9250819262000397565b634e487b7160e01b89526022600452602489fd5b90607f1690620000c5565b634e487b7160e01b600052604160045260246000fd5b600080fd5b60408051919082016001600160401b03811183821017620003ed5760405256fe608080604052600436101561001357600080fd5b60003560e01c90816301ffc9a714611d475750806306fdde0314611ca4578063081812fc14611c86578063095ea7b314611b0c5780630fe92cae14611ade57806314ff5ea314611aab57806318160ddd14611a8d578063205de66a14611a4457806323b872dd14611a205780632f745c591461196e5780633f4ba83a146118da57806342842e0e146118a75780634422456614610e6b5780634f6ccce714610dda5780635499851814610baf5780635c975abb14610b8c5780636352211e14610b5c57806370a0823114610b31578063715018a614610ad05780638456cb5914610a765780638da5cb5b14610a4957806395d89b411461096a578063a22cb46514610898578063a574cea41461077f578063b88d4fde146106f8578063c87b56dd14610682578063df314601146105f5578063e985e9c51461059f578063f2fde38b146104cb5763f457a0fe1461016957600080fd5b346104c6576020806003193601126104c657600d54600435916001600160a01b0391821633036104b4576000838152600260205260409020546101b6906001600160a01b031615156127ce565b82600052600f81526040600020549182600052600e82526000604081205583600052600f82526000604081205560108252610228600660406000206101fa81612828565b61020660018201612828565b6000600282015560006003820155600060048201556000600582015501612828565b61023184612074565b610239612b80565b8082169081610418575050600854846000526009835280604060002055600160401b811015610402578461027682600161028f9401600855612735565b90919082549060031b91821b91600019901b1916179055565b600854600019908181019081116103ec5785600052600984526102b760406000205491612735565b90549060031b1c6102cb8161027684612735565b6000526009845260406000205584600052600060408120556008549081156103d657859281600093016102fd81612735565b8482549160031b1b1916905560085561031584612074565b908484526004865260408420916001600160601b0360a01b928381541690551691828452600386526040842090815401905583835260028552604083209081541690557fddf252ad1be2c89b69c2b068fc378daa952ba7f163c4a11628f55a4df523b3ef8280a4600a815261038e604060002054612097565b6103bb575b507f348510a0dc81be13edea3b824f9f457b535830aa287cb051ac58ecc2eaa622a0600080a3005b600a9083600052526103d06040600020612828565b38610393565b634e487b7160e01b600052603160045260246000fd5b634e487b7160e01b600052601160045260246000fd5b634e487b7160e01b600052604160045260246000fd5b61042190611fb1565b6000198101919082116103ec57856000526007845260406000205482810361046e575b5085600052600060408120556000526006835260406000209060005282526000604081205561028f565b8160005260068552604060002083600052855260406000205482600052600686526040600020826000528652806040600020556000526007855260406000205538610444565b604051635c427cd960e01b8152600490fd5b600080fd5b346104c65760203660031901126104c6576104e4611e2e565b6104ec611f56565b6001600160a01b0381811691821561054b57600b8054610100600160a81b03198116600893841b610100600160a81b031617909155901c167f8be0079c531659141344cd1fd0a4f28419497f9722a3daafe3b4186f6b6457e0600080a3005b60405162461bcd60e51b815260206004820152602660248201527f4f776e61626c653a206e6577206f776e657220697320746865207a65726f206160448201526564647265737360d01b6064820152608490fd5b346104c65760403660031901126104c6576105b8611e2e565b6105c0611e44565b9060018060a01b03809116600052600560205260406000209116600052602052602060ff604060002054166040519015158152f35b346104c65760203660031901126104c65761060e611e2e565b610616611f56565b6001600160a01b0316801561063d576001600160601b0360a01b600d541617600d55600080f35b60405162461bcd60e51b815260206004820152601a60248201527f496e76616c696420696e737572616e636520636f6e74726163740000000000006044820152606490fd5b346104c65760203660031901126104c6576004356000818152600260205260409020546106b9906001600160a01b03161515612028565b600052600a6020526106f46106d160406000206120d1565b60006040516106df81611eaa565b52604051918291602083526020830190611e09565b0390f35b346104c65760803660031901126104c657610711611e2e565b610719611e44565b90606435906044356001600160401b0383116104c657366023840112156104c65761077d93610755610778943690602481600401359101611f01565b92610768610763843361228e565b6121b5565b610773838383612356565b6126aa565b61226a565b005b346104c65760203660031901126104c6576004356000818152600260205260409020546001600160a01b03161561088657600052601060205261085660406000206106f4604051916107d083611e8f565b6107d9816120d1565b83526107e7600182016120d1565b92602081019384526002820154604082019081526003830154926060830193845260048101546080840190815261086461082f600660058501549460a08801958652016120d1565b948560c0820152519751935195519151925193604051998a9960e08b5260e08b0190611e09565b9089820360208b0152611e09565b9460408801526060870152608086015260a085015283820360c0850152611e09565b60405163720caa4f60e01b8152600490fd5b346104c65760403660031901126104c6576108b1611e2e565b602435908115158092036104c6576001600160a01b03169033821461092557336000526005602052604060002082600052602052604060002060ff1981541660ff83161790556040519081527f17307eab39ab6107e8899845ad3d59bd9653f200f220920489ca2b5937696c3160203392a3005b60405162461bcd60e51b815260206004820152601960248201527f4552433732313a20617070726f766520746f2063616c6c6572000000000000006044820152606490fd5b346104c65760003660031901126104c6576040516000600180549061098e82612097565b80855291818116908115610a2257506001146109c9575b6106f4846109b581860382611ec5565b604051918291602083526020830190611e09565b600081815292507fb10e2d527612073b26eecdfd717e6a320cf44b4afac2b0732d9fcbe2b7fa0cf65b828410610a0a5750505081016020016109b5826109a5565b805460208587018101919091529093019281016109f2565b60ff191660208087019190915292151560051b850190920192506109b591508390506109a5565b346104c65760003660031901126104c657600b5460405160089190911c6001600160a01b03168152602090f35b346104c65760003660031901126104c657610a8f611f56565b610a97612b80565b600160ff19600b541617600b557f62e78cea01bee320cd4e420270b5ea74000d11b0c9f74754ebdbfc544b05a2586020604051338152a1005b346104c65760003660031901126104c657610ae9611f56565b600b8054610100600160a81b0319811690915560009060081c6001600160a01b03167f8be0079c531659141344cd1fd0a4f28419497f9722a3daafe3b4186f6b6457e08280a3005b346104c65760203660031901126104c6576020610b54610b4f611e2e565b611fb1565b604051908152f35b346104c65760203660031901126104c6576020610b7a600435612074565b6040516001600160a01b039091168152f35b346104c65760003660031901126104c657602060ff600b54166040519015158152f35b346104c65760403660031901126104c657600435610bcb611e44565b600d546001600160a01b0390811633036104b45782600052602092600e8452604060002054610dc8576001600c54019283600c5581600052600e85528360406000205583600052600f85528160406000205560405192610c2a84611eaa565b600084528116928315610d8557600085815260026020526040902054610c5c906001600160a01b031615155b15612782565b610c64612b80565b60085493856000526009875284604060002055600160401b85101561040257610d766107788893887fb1827ee2a5e482a2668b121ecb8dc532511579e049d7428f6eac87f1c7deb30196610cc3826102768c6001839e01600855612735565b610ccc81611fb1565b86600052600688526040600020816000528852826040600020558260005260078852604060002055610d16610c5683600052600260205260018060a01b0360406000205416151590565b856000526003875260406000206001815401905581600052600287526040600020866001600160601b0360a01b825416179055818660007fddf252ad1be2c89b69c2b068fc378daa952ba7f163c4a11628f55a4df523b3ef8180a461258a565b604051908152a3604051908152f35b6064866040519062461bcd60e51b825280600483015260248201527f4552433732313a206d696e7420746f20746865207a65726f20616464726573736044820152fd5b60405163472c8f8b60e01b8152600490fd5b346104c65760203660031901126104c657600435600854811015610e1157610e03602091612735565b90546040519160031b1c8152f35b60405162461bcd60e51b815260206004820152602c60248201527f455243373231456e756d657261626c653a20676c6f62616c20696e646578206f60448201526b7574206f6620626f756e647360a01b6064820152608490fd5b346104c6576101003660031901126104c6576024356001600160401b0381116104c657610e9c903690600401611f38565b6044356001600160401b0381116104c657610ebb903690600401611f38565b60e4356001600160401b0381116104c657610eda903690600401611f38565b600d549091906001600160a01b031633036104b457600435600090815260026020526040902054610f15906001600160a01b031615156127ce565b60405192610f2284611e8f565b835260208301526064356040830152608435606083015260a435608083015260c43560a083015260c08201526004356000526010602052604060002081519182516001600160401b03811161040257610f7b8354612097565b601f8111611875575b506020601f821160011461180d5781929394600092611802575b50508160011b916000199060031b1c19161782555b60208101518051906001600160401b03821161040257610fd66001850154612097565b601f81116117cd575b50602090601f831160011461175a5760c09392916000918361174f575b50508160011b916000199060031b1c19161760018401555b60408101516002840155606081015160038401556080810151600484015560a0810151600584015501518051906001600160401b0382116104025761105c6006840154612097565b601f811161171a575b50602090601f83116001146116aa57600692916000918361169f575b50508160011b916000199060031b1c1916179101555b6004356000526010602052611493604060002061148e6101b76040516110bc81611e8f565b6110c5846120d1565b81526110d3600185016120d1565b936020820194855260028101546040830190815260038201546060840190815260048301549060808501918252611140611139611139611132611124600660058a01549960a08c019a8b52016120d1565b9460c08a01958652516129e8565b94516129e8565b9451612ac1565b9161114c6004356129e8565b95519851915194604051998a97607b60f81b60208a01527f226e616d65223a20224167726f436861696e20506f6c6963792023000000000060218a015261119d815180926020603c8d019101611de6565b61088b60f21b603c918a01918201527f226465736372697074696f6e223a20224167726963756c747572616c20706172603e8201527f616d657472696320696e737572616e636520706f6c696379206f6e204167726f605e8201526610da185a5b888b60ca1b607e8201526e2261747472696275746573223a205b60881b60858201527f7b2274726169745f74797065223a2022526567696f6e222c202276616c7565226094820152621d101160e91b60b482015281519161126890839060b7840190602001611de6565b019262089f4b60ea1b938460b78201527f7b2274726169745f74797065223a202243726f702054797065222c202276616c60ba820152653ab2911d101160d11b60da8201526112c182518093602060e085019101611de6565b01908360e08301527f7b2274726169745f74797065223a2022436f766572616765222c202276616c7560e38301526432911d101160d91b9182610103820152815190611317826101089460208685019101611de6565b016608115512089f4b60ca1b80928201527f7b2274726169745f74797065223a20225072656d69756d222c202276616c756561010f82015263111d101160e11b61012f820152855190611374826101339860208a85019101611de6565b01948501527f7b2274726169745f74797065223a202253746172742044617465222c2022766161013a8501528266363ab2911d101160c91b948561015a8201528351906113cb826101619660208885019101611de6565b01928301527f7b2274726169745f74797065223a2022456e642044617465222c202276616c75610164830152610184820152835190611414826101899660208885019101611de6565b01928301527f7b2274726169745f74797065223a2022506172616d6574657273222c2022766161018c8301526101ac82015281519061145d826101b39460208685019101611de6565b019061227d60f01b90820152605d60f81b6101b5820152607d60f81b6101b682015203610197810184520182611ec5565b612871565b6114e6603d60405180937f646174613a6170706c69636174696f6e2f6a736f6e3b6261736536342c00000060208301526114d68151809260208686019101611de6565b810103601d810184520182611ec5565b6004356000908152600260205260409020546001600160a01b03161561164357600435600052600a602052604060002081516001600160401b038111610402576115308254612097565b601f8111611606575b50602092601f82116001146115a25792819293600092611597575b50508160011b916000199060031b1c19161790555b7ff8e1a15aba9398e019f0b49df1a4fde98ee17ae345cb5f6b5e2c27f5033e8ce760206040516004358152a1005b015190508380611554565b601f198216938360005260206000209160005b8681106115ee57508360019596106115d5575b505050811b019055611569565b015160001960f88460031b161c191690558380806115c8565b919260206001819286850151815501940192016115b5565b61163390836000526020600020601f840160051c81019160208510611639575b601f0160051c0190612811565b83611539565b9091508190611626565b60405162461bcd60e51b815260206004820152602e60248201527f45524337323155524953746f726167653a2055524920736574206f66206e6f6e60448201526d32bc34b9ba32b73a103a37b5b2b760911b6064820152608490fd5b015190508480611081565b906006840160005260206000209160005b601f19851681106117025750918391600193600695601f198116106116e9575b505050811b01910155611097565b015160001960f88460031b161c191690558480806116db565b919260206001819286850151815501940192016116bb565b61174990600685016000526020600020601f850160051c8101916020861061163957601f0160051c0190612811565b83611065565b015190508580610ffc565b906001850160005260206000209160005b601f19851681106117b5575091839160019360c09695601f1981161061179c575b505050811b016001840155611014565b015160001960f88460031b161c1916905585808061178c565b9192602060018192868501518155019401920161176b565b6117fc90600186016000526020600020601f850160051c8101916020861061163957601f0160051c0190612811565b84610fdf565b015190508480610f9e565b8360005260206000209060005b601f198416811061185d5750600193949583601f19811610611844575b505050811b018255610fb3565b015160001960f88460031b161c19169055848080611837565b9091602060018192858a01518155019301910161181a565b6118a190846000526020600020601f840160051c8101916020851061163957601f0160051c0190612811565b84610f84565b346104c65761077d6107786118bb36611e5a565b90604051926118c984611eaa565b60008452610768610763843361228e565b346104c65760003660031901126104c6576118f3611f56565b600b5460ff8116156119325760ff1916600b557f5db9ee0a495bf2e6ff9c91a7834c1ba4fdd244a5e8aa4e537bd38aeae4b073aa6020604051338152a1005b60405162461bcd60e51b815260206004820152601460248201527314185d5cd8589b194e881b9bdd081c185d5cd95960621b6044820152606490fd5b346104c65760403660031901126104c657611987611e2e565b6024359061199481611fb1565b8210156119c75760018060a01b031660005260066020526040600020906000526020526020604060002054604051908152f35b60405162461bcd60e51b815260206004820152602b60248201527f455243373231456e756d657261626c653a206f776e657220696e646578206f7560448201526a74206f6620626f756e647360a81b6064820152608490fd5b346104c65761077d611a3136611e5a565b91611a3f610763843361228e565b612356565b346104c65760203660031901126104c6576004356000818152600260205260409020546001600160a01b03161561088657600052600f6020526020604060002054604051908152f35b346104c65760003660031901126104c6576020600854604051908152f35b346104c65760203660031901126104c657600435600052600e602052604060002054801561088657602090604051908152f35b346104c65760203660031901126104c657600435600052600e60205260206040600020541515604051908152f35b346104c65760403660031901126104c657611b25611e2e565b602435906001600160a01b038080611b3c85612074565b16921691808314611c3757803314908115611c12575b5015611ba757600083815260046020526040902080546001600160a01b03191683179055611b7f83612074565b167f8c5be1e5ebec7d5bd14f71427d1e84f3dd0314c0f7b2291e5b200ac8c7c3b925600080a4005b60405162461bcd60e51b815260206004820152603d60248201527f4552433732313a20617070726f76652063616c6c6572206973206e6f7420746f60448201527f6b656e206f776e6572206f7220617070726f76656420666f7220616c6c0000006064820152608490fd5b9050600052600560205260406000203360005260205260ff6040600020541684611b52565b60405162461bcd60e51b815260206004820152602160248201527f4552433732313a20617070726f76616c20746f2063757272656e74206f776e656044820152603960f91b6064820152608490fd5b346104c65760203660031901126104c6576020610b7a600435612177565b346104c65760003660031901126104c65760405160008054611cc581612097565b80845290600190818116908115610a225750600114611cee576106f4846109b581860382611ec5565b600080805292507f290decd9548b62a8d60345a988386fc84ba6bc95484008f6362f93160ef3e5635b828410611d2f5750505081016020016109b5826109a5565b80546020858701810191909152909301928101611d17565b346104c65760203660031901126104c6576004359063ffffffff60e01b82168092036104c657602091632483248360e11b8114908115611d89575b5015158152f35b63780e9d6360e01b811491508115611da3575b5083611d82565b6380ac58cd60e01b811491508115611dd5575b8115611dc4575b5083611d9c565b6301ffc9a760e01b14905083611dbd565b635b5e139f60e01b81149150611db6565b60005b838110611df95750506000910152565b8181015183820152602001611de9565b90602091611e2281518092818552858086019101611de6565b601f01601f1916010190565b600435906001600160a01b03821682036104c657565b602435906001600160a01b03821682036104c657565b60609060031901126104c6576001600160a01b039060043582811681036104c6579160243590811681036104c6579060443590565b60e081019081106001600160401b0382111761040257604052565b602081019081106001600160401b0382111761040257604052565b90601f801991011681019081106001600160401b0382111761040257604052565b6001600160401b03811161040257601f01601f191660200190565b929192611f0d82611ee6565b91611f1b6040519384611ec5565b8294818452818301116104c6578281602093846000960137010152565b9080601f830112156104c657816020611f5393359101611f01565b90565b600b5460081c6001600160a01b03163303611f6d57565b606460405162461bcd60e51b815260206004820152602060248201527f4f776e61626c653a2063616c6c6572206973206e6f7420746865206f776e65726044820152fd5b6001600160a01b03168015611fd157600052600360205260406000205490565b60405162461bcd60e51b815260206004820152602960248201527f4552433732313a2061646472657373207a65726f206973206e6f7420612076616044820152683634b21037bbb732b960b91b6064820152608490fd5b1561202f57565b60405162461bcd60e51b815260206004820152601860248201527f4552433732313a20696e76616c696420746f6b656e20494400000000000000006044820152606490fd5b6000908152600260205260409020546001600160a01b0316611f53811515612028565b90600182811c921680156120c7575b60208310146120b157565b634e487b7160e01b600052602260045260246000fd5b91607f16916120a6565b90604051918260008254926120e584612097565b9081845260019485811690816000146121545750600114612111575b505061210f92500383611ec5565b565b9093915060005260209081600020936000915b81831061213c57505061210f93508201013880612101565b85548884018501529485019487945091830191612124565b91505061210f94506020925060ff191682840152151560051b8201013880612101565b60008181526002602052604090205461219a906001600160a01b03161515612028565b6000908152600460205260409020546001600160a01b031690565b156121bc57565b60405162461bcd60e51b815260206004820152602d60248201527f4552433732313a2063616c6c6572206973206e6f7420746f6b656e206f776e6560448201526c1c881bdc88185c1c1c9bdd9959609a1b6064820152608490fd5b60809060208152603260208201527f4552433732313a207472616e7366657220746f206e6f6e20455243373231526560408201527131b2b4bb32b91034b6b83632b6b2b73a32b960711b60608201520190565b1561227157565b60405162461bcd60e51b81528061228a60048201612217565b0390fd5b906001600160a01b0380806122a284612074565b169316918383149384156122d5575b5083156122bf575b50505090565b6122cb91929350612177565b16143880806122b9565b909350600052600560205260406000208260005260205260ff6040600020541692386122b1565b1561230357565b60405162461bcd60e51b815260206004820152602560248201527f4552433732313a207472616e736665722066726f6d20696e636f72726563742060448201526437bbb732b960d91b6064820152608490fd5b61237a9161236384612074565b6001600160a01b03938484169391851684146122fc565b83821693841561253957839161238e612b80565b82612496575090506008549085600052600960205281604060002055600160401b821015610402576123e8926123cf87610276856001899701600855612735565b828603612463575b506123e186612074565b16146122fc565b7fddf252ad1be2c89b69c2b068fc378daa952ba7f163c4a11628f55a4df523b3ef60008481526004602052604081206001600160601b0360a01b9081815416905583825260036020526040822060001981540190558482526040822060018154019055858252600260205284604083209182541617905580a4565b61246c90611fb1565b604060008781526006602052818120838252602052888282205588815260076020522055386123d7565b8583036124a8575b506123e8926123cf565b6124b3919250611fb1565b6000198101919082116103ec576123e89284926000908882526020906007825260409182842054828103612502575b508a8452838381205586845260068152828420918452528120559261249e565b87855260068252838520838652825283852054888652600683528486208287528352808587205585526007825283852055386124e2565b60405162461bcd60e51b8152602060048201526024808201527f4552433732313a207472616e7366657220746f20746865207a65726f206164646044820152637265737360e01b6064820152608490fd5b9192600092909190803b156126a0576125d8946040518092630a85bd0160e11b9485835233600484015287602484015260448301526080606483015281878160209a8b966084830190611e09565b03926001600160a01b03165af184918161265c575b5061264b575050503d600014612643573d61260781611ee6565b906126156040519283611ec5565b81528091833d92013e5b805191826126405760405162461bcd60e51b81528061228a60048201612217565b01fd5b50606061261f565b6001600160e01b0319161492509050565b9091508581813d8311612699575b6126748183611ec5565b8101031261269557516001600160e01b0319811681036126955790386125ed565b8480fd5b503d61266a565b5050915050600190565b9293600093909291803b1561272a579484916127049660405180948193630a85bd0160e11b9788845233600485015260018060a01b0380921660248501526044840152608060648401528260209b8c976084830190611e09565b0393165af184918161265c575061264b575050503d600014612643573d61260781611ee6565b505050915050600190565b60085481101561276c5760086000527ff3f7a9fe364faab93b216da50a3214154f22a0a2b415b23a84c8169e8b636ee30190600090565b634e487b7160e01b600052603260045260246000fd5b1561278957565b60405162461bcd60e51b815260206004820152601c60248201527f4552433732313a20746f6b656e20616c7265616479206d696e746564000000006044820152606490fd5b156127d557565b60405162461bcd60e51b8152602060048201526014602482015273151bdad95b88191bd95cc81b9bdd08195e1a5cdd60621b6044820152606490fd5b81811061281c575050565b60008155600101612811565b6128328154612097565b908161283c575050565b81601f6000931160011461284e575055565b90808391825261286d601f60208420940160051c840160018501612811565b5555565b8051156129d457604051606081018181106001600160401b0382111761040257604052604081527f4142434445464748494a4b4c4d4e4f505152535455565758595a61626364656660208201527f6768696a6b6c6d6e6f707172737475767778797a303132333435363738392b2f604082015281516002928382018092116103ec5760039182900480851b94906001600160fe1b038116036103ec579261293061291a86611ee6565b956129286040519788611ec5565b808752611ee6565b6020860190601f190136823793829183518401925b838110612983575050505051068060011461297057600214612965575090565b603d90600019015390565b50603d9081600019820153600119015390565b85600491979293949701918251600190603f9082828260121c16880101518453828282600c1c16880101518385015382828260061c1688010151888501531685010151878201530195929190612945565b506040516129e181611eaa565b6000815290565b8015612a9357600081805b612a7b5750612a0181611ee6565b90612a0f6040519283611ec5565b808252601f19612a1e82611ee6565b013660208401375b80928015612a745760001982019182116103ec578193600a9260309084840682018092116103ec578551111561276c5760f81b6001600160f81b03191660001a908401601f01530491612a26565b5050905090565b9060001981146103ec576001600a91019104806129f3565b50604051604081018181106001600160401b038211176104025760405260018152600360fc1b602082015290565b662386f26fc1000090046064612ad88183046129e8565b910690600a612ae6836129e8565b9210612b3a575b6021611f53916040519381612b0c869351809260208087019101611de6565b8201601760f91b6020820152612b2b8251809360208785019101611de6565b01036001810184520182611ec5565b906021611f5391612b77826040518093600360fc1b6020830152612b678151809260208686019101611de6565b8101036001810184520182611ec5565b92915050612aed565b60ff600b5416612b8c57565b60405162461bcd60e51b815260206004820152601060248201526f14185d5cd8589b194e881c185d5cd95960821b6044820152606490fdfea2646970667358221220216b094496bb77ef28f131b35aef4acceddcb89fc46aef549dfb19e944ea15a764736f6c63430008130033","linkReferences":{}},"methodIdentifiers":{"approve(address,uint256)":"095ea7b3","balanceOf(address)":"70a08231","burnPolicy(uint256)":"f457a0fe","getApproved(uint256)":"081812fc","getMetadata(uint256)":"a574cea4","getPolicyId(uint256)":"205de66a","getTokenId(uint256)":"14ff5ea3","isApprovedForAll(address,address)":"e985e9c5","mintPolicy(uint256,address)":"54998518","name()":"06fdde03","owner()":"8da5cb5b","ownerOf(uint256)":"6352211e","pause()":"8456cb59","paused()":"5c975abb","policyExists(uint256)":"0fe92cae","renounceOwnership()":"715018a6","safeTransferFrom(address,address,uint256)":"42842e0e","safeTransferFrom(address,address,uint256,bytes)":"b88d4fde","setApprovalForAll(address,bool)":"a22cb465","setInsuranceContract(address)":"df314601","setMetadata(uint256,string,string,uint256,uint256,uint256,uint256,string)":"44224566","supportsInterface(bytes4)":"01ffc9a7","symbol()":"95d89b41","tokenByIndex(uint256)":"4f6ccce7","tokenOfOwnerByIndex(address,uint256)":"2f745c59","tokenURI(uint256)":"c87b56dd","totalSupply()":"18160ddd","transferFrom(address,address,uint256)":"23b872dd","transferOwnership(address)":"f2fde38b","unpause()":"3f4ba83a"},"id":100}