{"abi":[{"type":"receive","stateMutability":"payable"},{"type":"function","name":"addExecutor","inputs":[{"name":"executor","type":"address","internalType":"address"}],"outputs":[],"stateMutability":"nonpayable"},{"type":"function","name":"cancelProposal","inputs":[{"name":"proposalId","type":"uint256","internalType":"uint256"}],"outputs":[],"stateMutability":"nonpayable"},{"type":"function","name":"castVote","inputs":[{"name":"proposalId","type":"uint256","internalType":"uint256"},{"name":"support","type":"bool","internalType":"bool"}],"outputs":[],"stateMutability":"nonpayable"},{"type":"function","name":"createProposal","inputs":[{"name":"title","type":"string","internalType":"string"},{"name":"description","type":"string","internalType":"string"},{"name":"targetContract","type":"address","internalType":"address"},{"name":"value","type":"uint256","internalType":"uint256"},{"name":"callData","type":"bytes","internalType":"bytes"}],"outputs":[{"name":"proposalId","type":"uint256","internalType":"uint256"}],"stateMutability":"nonpayable"},{"type":"function","name":"executeProposal","inputs":[{"name":"proposalId","type":"uint256","internalType":"uint256"}],"outputs":[{"name":"success","type":"bool","internalType":"bool"}],"stateMutability":"nonpayable"},{"type":"function","name":"getGovernanceParameters","inputs":[],"outputs":[{"name":"votingPeriod","type":"uint256","internalType":"uint256"},{"name":"executionDelay","type":"uint256","internalType":"uint256"},{"name":"quorumThreshold","type":"uint256","internalType":"uint256"},{"name":"proposalThreshold","type":"uint256","internalType":"uint256"},{"name":"governanceToken","type":"address","internalType":"address"}],"stateMutability":"view"},{"type":"function","name":"getGovernanceStats","inputs":[],"outputs":[{"name":"totalProposals","type":"uint256","internalType":"uint256"},{"name":"activeProposals","type":"uint256","internalType":"uint256"},{"name":"executedProposals","type":"uint256","internalType":"uint256"}],"stateMutability":"view"},{"type":"function","name":"getProposalCount","inputs":[],"outputs":[{"name":"","type":"uint256","internalType":"uint256"}],"stateMutability":"view"},{"type":"function","name":"getProposalDetails","inputs":[{"name":"proposalId","type":"uint256","internalType":"uint256"}],"outputs":[{"name":"title","type":"string","internalType":"string"},{"name":"description","type":"string","internalType":"string"},{"name":"proposer","type":"address","internalType":"address"},{"name":"createdAt","type":"uint256","internalType":"uint256"},{"name":"votingEndsAt","type":"uint256","internalType":"uint256"},{"name":"executed","type":"bool","internalType":"bool"},{"name":"canceled","type":"bool","internalType":"bool"},{"name":"forVotes","type":"uint256","internalType":"uint256"},{"name":"againstVotes","type":"uint256","internalType":"uint256"},{"name":"status","type":"string","internalType":"string"}],"stateMutability":"view"},{"type":"function","name":"getVersion","inputs":[],"outputs":[{"name":"","type":"string","internalType":"string"}],"stateMutability":"view"},{"type":"function","name":"hasUserVoted","inputs":[{"name":"proposalId","type":"uint256","internalType":"uint256"},{"name":"voter","type":"address","internalType":"address"}],"outputs":[{"name":"hasVoted","type":"bool","internalType":"bool"}],"stateMutability":"view"},{"type":"function","name":"hasVoted","inputs":[{"name":"proposalId","type":"uint256","internalType":"uint256"},{"name":"voter","type":"address","internalType":"address"}],"outputs":[{"name":"","type":"bool","internalType":"bool"}],"stateMutability":"view"},{"type":"function","name":"initialize","inputs":[{"name":"governanceToken","type":"address","internalType":"address"},{"name":"votingPeriod","type":"uint256","internalType":"uint256"},{"name":"executionDelay","type":"uint256","internalType":"uint256"},{"name":"quorumThreshold","type":"uint256","internalType":"uint256"},{"name":"proposalThreshold","type":"uint256","internalType":"uint256"}],"outputs":[],"stateMutability":"nonpayable"},{"type":"function","name":"isExecutor","inputs":[{"name":"account","type":"address","internalType":"address"}],"outputs":[{"name":"","type":"bool","internalType":"bool"}],"stateMutability":"view"},{"type":"function","name":"isProposalActive","inputs":[{"name":"proposalId","type":"uint256","internalType":"uint256"}],"outputs":[{"name":"active","type":"bool","internalType":"bool"}],"stateMutability":"view"},{"type":"function","name":"isProposalReadyForExecution","inputs":[{"name":"proposalId","type":"uint256","internalType":"uint256"}],"outputs":[{"name":"isReady","type":"bool","internalType":"bool"}],"stateMutability":"view"},{"type":"function","name":"owner","inputs":[],"outputs":[{"name":"","type":"address","internalType":"address"}],"stateMutability":"view"},{"type":"function","name":"pause","inputs":[],"outputs":[],"stateMutability":"nonpayable"},{"type":"function","name":"paused","inputs":[],"outputs":[{"name":"","type":"bool","internalType":"bool"}],"stateMutability":"view"},{"type":"function","name":"removeExecutor","inputs":[{"name":"executor","type":"address","internalType":"address"}],"outputs":[],"stateMutability":"nonpayable"},{"type":"function","name":"renounceOwnership","inputs":[],"outputs":[],"stateMutability":"nonpayable"},{"type":"function","name":"transferOwnership","inputs":[{"name":"newOwner","type":"address","internalType":"address"}],"outputs":[],"stateMutability":"nonpayable"},{"type":"function","name":"unpause","inputs":[],"outputs":[],"stateMutability":"nonpayable"},{"type":"function","name":"updateGovernanceParameters","inputs":[{"name":"votingPeriod","type":"uint256","internalType":"uint256"},{"name":"executionDelay","type":"uint256","internalType":"uint256"},{"name":"quorumThreshold","type":"uint256","internalType":"uint256"},{"name":"proposalThreshold","type":"uint256","internalType":"uint256"}],"outputs":[],"stateMutability":"nonpayable"},{"type":"function","name":"updateGovernanceToken","inputs":[{"name":"newToken","type":"address","internalType":"address"}],"outputs":[],"stateMutability":"nonpayable"},{"type":"event","name":"Initialized","inputs":[{"name":"version","type":"uint8","indexed":false,"internalType":"uint8"}],"anonymous":false},{"type":"event","name":"OwnershipTransferred","inputs":[{"name":"previousOwner","type":"address","indexed":true,"internalType":"address"},{"name":"newOwner","type":"address","indexed":true,"internalType":"address"}],"anonymous":false},{"type":"event","name":"Paused","inputs":[{"name":"account","type":"address","indexed":false,"internalType":"address"}],"anonymous":false},{"type":"event","name":"ProposalCanceled","inputs":[{"name":"proposalId","type":"uint256","indexed":true,"internalType":"uint256"}],"anonymous":false},{"type":"event","name":"ProposalCreated","inputs":[{"name":"proposalId","type":"uint256","indexed":true,"internalType":"uint256"},{"name":"proposer","type":"address","indexed":true,"internalType":"address"},{"name":"title","type":"string","indexed":false,"internalType":"string"}],"anonymous":false},{"type":"event","name":"ProposalExecuted","inputs":[{"name":"proposalId","type":"uint256","indexed":true,"internalType":"uint256"}],"anonymous":false},{"type":"event","name":"Unpaused","inputs":[{"name":"account","type":"address","indexed":false,"internalType":"address"}],"anonymous":false},{"type":"event","name":"VoteCast","inputs":[{"name":"proposalId","type":"uint256","indexed":true,"internalType":"uint256"},{"name":"voter","type":"address","indexed":true,"internalType":"address"},{"name":"support","type":"bool","indexed":false,"internalType":"bool"},{"name":"weight","type":"uint256","indexed":false,"internalType":"uint256"}],"anonymous":false},{"type":"event","name":"VotingParametersUpdated","inputs":[{"name":"votingPeriod","type":"uint256","indexed":false,"internalType":"uint256"},{"name":"executionDelay","type":"uint256","indexed":false,"internalType":"uint256"},{"name":"quorum","type":"uint256","indexed":false,"internalType":"uint256"}],"anonymous":false},{"type":"error","name":"AlreadyVoted","inputs":[]},{"type":"error","name":"ExecutionFailed","inputs":[]},{"type":"error","name":"ExecutionNotAllowed","inputs":[]},{"type":"error","name":"InvalidProposalParameters","inputs":[]},{"type":"error","name":"NotEnoughVotingPower","inputs":[]},{"type":"error","name":"NotProposer","inputs":[]},{"type":"error","name":"ProposalAlreadyExecuted","inputs":[]},{"type":"error","name":"ProposalIsCanceled","inputs":[]},{"type":"error","name":"ProposalNotFound","inputs":[]},{"type":"error","name":"ProposalRejected","inputs":[]},{"type":"error","name":"QuorumNotReached","inputs":[]},{"type":"error","name":"TimelockNotElapsed","inputs":[]},{"type":"error","name":"VotingPeriodEnded","inputs":[]},{"type":"error","name":"VotingPeriodNotEnded","inputs":[]}],"bytecode":{"object":"0x6080806040523461001657612187908161001c8239f35b600080fdfe6080604052600436101561001b575b361561001957600080fd5b005b60003560e01c80630d61b519146118105780630d8e6e2c1461172e57806315373e3d1461158b578063164b3d2f1461150f5780631f5a0bbe1461147f578063247884291461143d57806325fd8e76146113b8578063276a8661146112f257806332427be4146112445780633b4d01a71461102f5780633f4ba83a14610f9b5780634385963214610f4e5780634c6c878e146109765780635835cf301461092f5780635c975abb1461090c578063715018a6146108af5780638456cb59146108555780638da5cb5b1461082c578063c08cc02d1461080e578063dc296ae1146107a5578063debfda3014610766578063df91f748146105d0578063e0a8f6f51461042c578063f2fde38b1461039f5763f92ad2190361000e573461039a5760a036600319011261039a5761014c611aac565b600054600881901c60ff161590608435606435602435848061038d575b8015610376575b1561031a5760019560ff1994868887831617600055610308575b506101a560ff60005460081c166101a081611d25565b611d25565b6101ae33611b5e565b6101d960ff60005460081c166101c381611d25565b6101cc81611d25565b886065556101a081611d25565b84609754166097556101ec60c954611ba7565b601f81116102bc575b50600a640312e302e360dc1b0160c95560ca80546001600160a01b0319166001600160a01b0392909216919091179055610230811515611c35565b811515806102b0575b61024290611c81565b61024d831515611ccd565b60cc5560443560cd5560ce5560cf553360005260d16020528260406000209182541617905561027857005b60207f7f26b83ff96e1f2b6a682f133852f6798a09c465da95921460cefb38474024989161ff001960005416600055604051908152a1005b50612710821115610239565b60c960005287601f7f66be4f155c5ef2ebd3772b228f2f00681e4ed5826cdb3b1943cc11ad15ad1d28920160051c8201915b8281106102fc5750506101f5565b600081550188906102ee565b61ffff1916610101176000553861018a565b60405162461bcd60e51b815260206004820152602e60248201527f496e697469616c697a61626c653a20636f6e747261637420697320616c72656160448201526d191e481a5b9a5d1a585b1a5e995960921b6064820152608490fd5b50303b1580156101705750600160ff851614610170565b50600160ff851610610169565b600080fd5b3461039a57602036600319011261039a576103b8611aac565b6103c0611b06565b6001600160a01b038116156103d85761001990611b5e565b60405162461bcd60e51b815260206004820152602660248201527f4f776e61626c653a206e6577206f776e657220697320746865207a65726f206160448201526564647265737360d01b6064820152608490fd5b3461039a5760208060031936011261039a576004359061044a611df5565b811580156105c5575b6105b35761045f611e39565b8160005260d081526040600020600a81019182549160ff83166105a15760ff8360081c1661058f57600101546001600160a01b039081163314801580610581575b61056f576104e2575b505061ff0019166101001790557f789cf55be980739dad1d0699b93b58e806b51c9d96619bfa8fe0a28abaa7b30c600080a26001606555005b8160249160ca5416604051928380926370a0823160e01b82523360048301525afa91821561056357600092610535575b505060cf54116105235783806104a9565b604051631c33ce8d60e11b8152600490fd5b90809250813d831161055c575b61054c8183611da1565b8101031261039a57518480610512565b503d610542565b6040513d6000823e3d90fd5b604051637d1b73b960e01b8152600490fd5b5081603354163314156104a0565b6040516346c48e3760e11b8152600490fd5b6040516351618d5360e01b8152600490fd5b60405163635e873760e01b8152600490fd5b5060cb548211610453565b3461039a57600036600319011261039a5760405163c08cc02d60e01b81526020908181600481305afa90811561056357600091610739575b5060009160009060015b8381111561064157505061063d90604051938493846040919493926060820195825260208201520152565b0390f35b60405163164b3d2f60e01b81526004810182905260249083818381305afa90811561056357600091610704575b506106f4575b60006040518092633b4d01a760e01b825284600483015281305afa908115610563576000916106c7575b506106b2575b6106ad90611dc3565b610612565b916106bf6106ad91611dc3565b9290506106a4565b6106e491503d806000833e6106dc8183611da1565b8101906120a7565b505050509450505050508661069e565b946106fe90611dc3565b94610674565b90508381813d8311610732575b61071b8183611da1565b8101031261039a5761072c9061209a565b8761066e565b503d610711565b90508181813d831161075f575b6107508183611da1565b8101031261039a575182610608565b503d610746565b3461039a57602036600319011261039a576001600160a01b03610787611aac565b1660005260d1602052602060ff604060002054166040519015158152f35b3461039a57604036600319011261039a576004356107c1611ac2565b9080158015610803575b6105b35760005260d0602052600d6040600020019060018060a01b0316600052602052602060ff604060002054166040519015158152f35b5060cb5481116107cb565b3461039a57600036600319011261039a57602060cb54604051908152f35b3461039a57600036600319011261039a576033546040516001600160a01b039091168152602090f35b3461039a57600036600319011261039a5761086e611b06565b610876611df5565b600160ff1960975416176097557f62e78cea01bee320cd4e420270b5ea74000d11b0c9f74754ebdbfc544b05a2586020604051338152a1005b3461039a57600036600319011261039a576108c8611b06565b603380546001600160a01b031981169091556000906001600160a01b03167f8be0079c531659141344cd1fd0a4f28419497f9722a3daafe3b4186f6b6457e08280a3005b3461039a57600036600319011261039a57602060ff609754166040519015158152f35b3461039a57600036600319011261039a5760a060cc5460cd5460ce5460cf5490600180861b0360ca5416926040519485526020850152604084015260608301526080820152f35b3461039a5760a036600319011261039a5760043567ffffffffffffffff811161039a576109a7903690600401611ad8565b60243567ffffffffffffffff811161039a576109c7903690600401611ad8565b6001600160a01b03939092916044359190858316830361039a5760843567ffffffffffffffff811161039a57610a01903690600401611ad8565b939096610a0c611df5565b610a14611e39565b8515610f11578615610ecc5780821615610e87578415610e4257602460208260ca5416604051928380926370a0823160e01b82523360048301525afa90811561056357600091610e10575b5060cf541161052357610a7360cb54611dc3565b968760cb558760005260d060205260406000209388855560018501336001600160601b0360a01b82541617905567ffffffffffffffff8811610d0557610ac988610ac06002880154611ba7565b60028801611be1565b876000601f8211600114610da257600091610d97575b508860011b906000198a60031b1c19161760028601555b67ffffffffffffffff8211610d05578190610b2182610b186003890154611ba7565b60038901611be1565b600090601f8311600114610d2657600092610d1b575b50508160011b916000199060031b1c19161760038401555b67ffffffffffffffff8511610d055760209787956004850191610b7c82610b768554611ba7565b85611be1565b600090601f8311600114610c6b57928260009693600c96937f7585f467599d0f008985f231af99293be388626ac16ca59505c2f8f88969cd639a99968992610c60575b50508160011b9188199060031b1c19161790555b6005830191166001600160601b0360a01b8254161790556064356006820155426007820155610c0460cc5442611de8565b600882015560cd546009820155600a810161ffff19815416905582600b82015501558360405191878352818884015260408301376000604085830101526040813395601f80199101168101030190a36001606555604051908152f35b013590508e80610bbf565b60008481528c81209998979695949392905b601f1984168110610ceb5750827f7585f467599d0f008985f231af99293be388626ac16ca59505c2f8f88969cd63999a600c97959360019360009a9896601f19811610610cd2575b505050811b019055610bd3565b8a1960f88560031b161c199101351690558e8080610cc5565b818301358b556001909a01998c9950908d01908d01610c7d565b634e487b7160e01b600052604160045260246000fd5b013590508a80610b37565b909250600386016000526020600020906000935b601f1984168510610d7f576001945083601f19811610610d65575b505050811b016003840155610b4f565b0135600019600384901b60f8161c191690558a8080610d55565b81810135835560209485019460019093019201610d3a565b90508601358b610adf565b90506002860160005260206000209060005b601f198b168110610df8575089601f19811610610dde575b5050600188811b016002860155610af6565b87013560001960038b901b60f8161c191690558a80610dcc565b9091602060018192858c013581550193019101610db4565b90506020813d602011610e3a575b81610e2b60209383611da1565b8101031261039a575189610a5f565b3d9150610e1e565b60405162461bcd60e51b815260206004820152601960248201527f43616c6c20646174612063616e6e6f7420626520656d707479000000000000006044820152606490fd5b60405162461bcd60e51b815260206004820152601760248201527f496e76616c69642074617267657420636f6e74726163740000000000000000006044820152606490fd5b60405162461bcd60e51b815260206004820152601b60248201527f4465736372697074696f6e2063616e6e6f7420626520656d70747900000000006044820152606490fd5b60405162461bcd60e51b81526020600482015260156024820152745469746c652063616e6e6f7420626520656d70747960581b6044820152606490fd5b3461039a57604036600319011261039a57610f67611ac2565b60043560005260d260205260406000209060018060a01b0316600052602052602060ff604060002054166040519015158152f35b3461039a57600036600319011261039a57610fb4611b06565b60975460ff811615610ff35760ff19166097557f5db9ee0a495bf2e6ff9c91a7834c1ba4fdd244a5e8aa4e537bd38aeae4b073aa6020604051338152a1005b60405162461bcd60e51b815260206004820152601460248201527314185d5cd8589b194e881b9bdd081c185d5cd95960621b6044820152606490fd5b3461039a5760208060031936011261039a5760043580158015611239575b6105b35761063d816110f49260005260d0845260406000209384600a8101549160ff8316938460001461113b575060ff60405161108981611d85565b6008815267115e1958dd5d195960c21b83820152935b60018060a01b03600185015416956007850154600886015490611100600b880154966110de60036110d76002600c8d01549c01611eda565b9f01611eda565b6040519e8f9e8f91610140808452830190611a87565b92818403910152611a87565b9860408c015260608b015260808a0152151560a089015260081c16151560c087015260e0860152610100850152838203610120850152611a87565b60ff8460081c16600014611172575060ff60405161115881611d85565b600881526710d85b98d95b195960c21b838201529361109f565b6008830154904282106111a757505060ff60405161118f81611d85565b600681526541637469766560d01b838201529361109f565b6111b090611f80565b156112105760098301546111c391611de8565b4210156112005760ff6040516111d881611d85565b6016815275417070726f7665642028696e2074696d656c6f636b2960501b838201529361109f565b60ff61120a611eab565b9361109f565b5060ff60405161121f81611d85565b600881526714995a9958dd195960c21b838201529361109f565b5060cb54811161104d565b3461039a57608036600319011261039a577f2f887d9c32f7cc3cbf806949310a3afdd85b147705550dde55deb4af1ab582f96024356004356112e160443560643561128d611b06565b611298841515611c35565b811515806112e6575b6112aa90611c81565b6112b5811515611ccd565b8360cc558460cd558160ce5560cf55604051938493846040919493926060820195825260208201520152565b0390a1005b506127108211156112a1565b3461039a57602036600319011261039a57604051633b4d01a760e01b81526004803590820152600081602481305afa9081156105635760209160008060009360009361138b575b50159283611382575b5082611378575b508161135b575b506040519015158152f35b905081815191012061136b611eab565b8281519101201482611350565b4211915083611349565b15925084611342565b925050506113a491503d806000833e6106dc8183611da1565b985050509450925090509091929185611339565b3461039a57602036600319011261039a576113d1611aac565b6113d9611b06565b6001600160a01b03168015611400576001600160601b0360a01b60ca54161760ca55600080f35b60405162461bcd60e51b8152602060048201526015602482015274496e76616c696420746f6b656e206164647265737360581b6044820152606490fd5b3461039a57602036600319011261039a57611456611aac565b61145e611b06565b6001600160a01b0316600090815260d160205260409020805460ff19169055005b3461039a57602036600319011261039a57611498611aac565b6114a0611b06565b6001600160a01b031680156114ca57600090815260d160205260409020805460ff19166001179055005b60405162461bcd60e51b815260206004820152601860248201527f496e76616c6964206578656375746f72206164647265737300000000000000006044820152606490fd5b3461039a57602036600319011261039a5760043580158015611580575b6105b35760005260d060205260206040600020600a8101549060ff8216159182611571575b508161156257506040519015158152f35b60089150015442111582611350565b60081c60ff1615915083611551565b5060cb54811161152c565b3461039a57604036600319011261039a57600435602435908115159182810361039a576115b6611df5565b81158015611723575b6105b3576115cb611e39565b81600052602060d081526040600020600a81015460ff81166105a15760081c60ff1661058f576008810154421161171157600d8101923360005283835260ff604060002054166116ff5760ca546040516370a0823160e01b815233600482015294908490869060249082906001600160a01b03165afa948515610563576000956116d0575b508415610523573360005283526040600020600160ff198254161790556000146116bb57600b01611682838254611de8565b90555b6040519384528301527fcbdf6214089cba887ecbf35a0b6a734589959c9763342c756bb2a80ca2bc9f6e60403393a36001606555005b600c016116c9838254611de8565b9055611685565b9094508381813d83116116f8575b6116e88183611da1565b8101031261039a57519387611650565b503d6116de565b604051637c9a1cf960e01b8152600490fd5b60405163370ec37160e21b8152600490fd5b5060cb5482116115bf565b3461039a57600036600319011261039a57604051600060c95461175081611ba7565b808452906001908181169081156117e9575060011461178e575b61063d8461177a81860382611da1565b604051918291602083526020830190611a87565b60c9600090815292507f66be4f155c5ef2ebd3772b228f2f00681e4ed5826cdb3b1943cc11ad15ad1d285b8284106117d157505050810160200161177a8261176a565b805460208587018101919091529093019281016117b9565b60ff191660208087019190915292151560051b8501909201925061177a915083905061176a565b3461039a5760208060031936011261039a5760043561182d611df5565b80158015611a59575b6105b3576033546001600160a01b0390811633148015611a42575b156119fd5761185e611e39565b8160005260d083526040600020600a81019182549060ff82166105a15760ff8260081c1661058f576008830154804211156119eb5761189c86611f80565b156119da5760098401546118af91611de8565b42106119c8576001938460ff19809416179055600583015416916004600682015491016040519260009180546118e481611ba7565b928189169182156119b457505060011461197c575b5050916000939181859403925af13d15611977573d61191781611e8f565b906119256040519283611da1565b81526000853d92013e5b1561196557604051917f712ae1383f79ac853f8d882153778e0260ef8f03b504e2866e0593e04d2b291f600080a2806065558152f35b604051632b3f6d1160e21b8152600490fd5b61192f565b9091506000528660002087866000925b8484106119a257505050908301905081836118f9565b8054848801520191019086899161198c565b1686525050801515028301905081836118f9565b60405163333bd2cb60e11b8152600490fd5b60405162e817d760e21b8152600490fd5b604051630cd7c29960e21b8152600490fd5b60405162461bcd60e51b815260048101849052601960248201527f4e6f7420617574686f72697a656420746f2065786563757465000000000000006044820152606490fd5b503360005260d1835260ff60406000205416611851565b5060cb548111611836565b60005b838110611a775750506000910152565b8181015183820152602001611a67565b90602091611aa081518092818552858086019101611a64565b601f01601f1916010190565b600435906001600160a01b038216820361039a57565b602435906001600160a01b038216820361039a57565b9181601f8401121561039a5782359167ffffffffffffffff831161039a576020838186019501011161039a57565b6033546001600160a01b03163303611b1a57565b606460405162461bcd60e51b815260206004820152602060248201527f4f776e61626c653a2063616c6c6572206973206e6f7420746865206f776e65726044820152fd5b603380546001600160a01b039283166001600160a01b0319821681179092559091167f8be0079c531659141344cd1fd0a4f28419497f9722a3daafe3b4186f6b6457e0600080a3565b90600182811c92168015611bd7575b6020831014611bc157565b634e487b7160e01b600052602260045260246000fd5b91607f1691611bb6565b90601f8111611bef57505050565b600091825260208220906020601f850160051c83019410611c2b575b601f0160051c01915b828110611c2057505050565b818155600101611c14565b9092508290611c0b565b15611c3c57565b60405162461bcd60e51b815260206004820152601e60248201527f566f74696e6720706572696f64206d75737420626520706f73697469766500006044820152606490fd5b15611c8857565b60405162461bcd60e51b815260206004820152601860248201527f496e76616c69642071756f72756d207468726573686f6c6400000000000000006044820152606490fd5b15611cd457565b60405162461bcd60e51b815260206004820152602360248201527f50726f706f73616c207468726573686f6c64206d75737420626520706f73697460448201526269766560e81b6064820152608490fd5b15611d2c57565b60405162461bcd60e51b815260206004820152602b60248201527f496e697469616c697a61626c653a20636f6e7472616374206973206e6f74206960448201526a6e697469616c697a696e6760a81b6064820152608490fd5b6040810190811067ffffffffffffffff821117610d0557604052565b90601f8019910116810190811067ffffffffffffffff821117610d0557604052565b6000198114611dd25760010190565b634e487b7160e01b600052601160045260246000fd5b91908201809211611dd257565b60ff60975416611e0157565b60405162461bcd60e51b815260206004820152601060248201526f14185d5cd8589b194e881c185d5cd95960821b6044820152606490fd5b600260655414611e4a576002606555565b60405162461bcd60e51b815260206004820152601f60248201527f5265656e7472616e637947756172643a207265656e7472616e742063616c6c006044820152606490fd5b67ffffffffffffffff8111610d0557601f01601f191660200190565b60405190611eb882611d85565b60138252722932b0b23c903337b91032bc32b1baba34b7b760691b6020830152565b9060405191826000825492611eee84611ba7565b908184526001948581169081600014611f5d5750600114611f1a575b5050611f1892500383611da1565b565b9093915060005260209081600020936000915b818310611f45575050611f1893508201013880611f0a565b85548884018501529485019487945091830191611f2d565b915050611f1894506020925060ff191682840152151560051b8201013880611f0a565b600090815260d060205260408120600c600b82015491015491611fa38383611de8565b60ca546040516318160ddd60e01b815290602090829060049082906001600160a01b03165afa90811561204a578391612015575b5060ce549081810291818304149015171561200157612710900411611ffb57501190565b91505090565b634e487b7160e01b83526011600452602483fd5b90506020813d8211612042575b8161202f60209383611da1565b8101031261203e575138611fd7565b8280fd5b3d9150612022565b6040513d85823e3d90fd5b81601f8201121561039a57805161206b81611e8f565b926120796040519485611da1565b8184526020828401011161039a576120979160208085019101611a64565b90565b5190811515820361039a57565b9190916101408184031261039a5780519267ffffffffffffffff9384811161039a57816120d5918401612055565b93602083015181811161039a57826120ee918501612055565b60408401519094906001600160a01b038116810361039a579360608101519360808201519361211f60a0840161209a565b9361212c60c0850161209a565b9360e0810151936101008201519361012083015190811161039a57612097920161205556fea2646970667358221220c69366e68d7ffd56cdeefc4a8f3789a93c69611e9630b1b14fe9784002875a0264736f6c63430008130033","linkReferences":{}},"methodIdentifiers":{"addExecutor(address)":"1f5a0bbe","cancelProposal(uint256)":"e0a8f6f5","castVote(uint256,bool)":"15373e3d","createProposal(string,string,address,uint256,bytes)":"4c6c878e","executeProposal(uint256)":"0d61b519","getGovernanceParameters()":"5835cf30","getGovernanceStats()":"df91f748","getProposalCount()":"c08cc02d","getProposalDetails(uint256)":"3b4d01a7","getVersion()":"0d8e6e2c","hasUserVoted(uint256,address)":"dc296ae1","hasVoted(uint256,address)":"43859632","initialize(address,uint256,uint256,uint256,uint256)":"f92ad219","isExecutor(address)":"debfda30","isProposalActive(uint256)":"164b3d2f","isProposalReadyForExecution(uint256)":"276a8661","owner()":"8da5cb5b","pause()":"8456cb59","paused()":"5c975abb","removeExecutor(address)":"24788429","renounceOwnership()":"715018a6","transferOwnership(address)":"f2fde38b","unpause()":"3f4ba83a","updateGovernanceParameters(uint256,uint256,uint256,uint256)":"32427be4","updateGovernanceToken(address)":"25fd8e76"},"id":94}