{"abi":[{"type":"function","name":"deployAgroChainSystem","inputs":[{"name":"initialOwner","type":"address","internalType":"address"},{"name":"initialTokenSupply","type":"uint256","internalType":"uint256"},{"name":"tokenCap","type":"uint256","internalType":"uint256"},{"name":"votingPeriod","type":"uint256","internalType":"uint256"},{"name":"executionDelay","type":"uint256","internalType":"uint256"},{"name":"quorumThreshold","type":"uint256","internalType":"uint256"},{"name":"proposalThreshold","type":"uint256","internalType":"uint256"},{"name":"chainlinkToken","type":"address","internalType":"address"},{"name":"chainlinkOracle","type":"address","internalType":"address"},{"name":"chainlinkJobId","type":"bytes32","internalType":"bytes32"},{"name":"chainlinkFee","type":"uint256","internalType":"uint256"}],"outputs":[{"name":"","type":"bool","internalType":"bool"}],"stateMutability":"nonpayable"},{"type":"function","name":"governanceContract","inputs":[],"outputs":[{"name":"","type":"address","internalType":"address"}],"stateMutability":"view"},{"type":"function","name":"insuranceContract","inputs":[],"outputs":[{"name":"","type":"address","internalType":"address"}],"stateMutability":"view"},{"type":"function","name":"oracleContract","inputs":[],"outputs":[{"name":"","type":"address","internalType":"address"}],"stateMutability":"view"},{"type":"function","name":"policyNFTContract","inputs":[],"outputs":[{"name":"","type":"address","internalType":"address"}],"stateMutability":"view"},{"type":"function","name":"proxyAdmin","inputs":[],"outputs":[{"name":"","type":"address","internalType":"contract ProxyAdmin"}],"stateMutability":"view"},{"type":"function","name":"tokenContract","inputs":[],"outputs":[{"name":"","type":"address","internalType":"address"}],"stateMutability":"view"},{"type":"function","name":"treasuryContract","inputs":[],"outputs":[{"name":"","type":"address","internalType":"address"}],"stateMutability":"view"},{"type":"event","name":"SystemDeployed","inputs":[{"name":"insurance","type":"address","indexed":false,"internalType":"address"},{"name":"oracle","type":"address","indexed":false,"internalType":"address"},{"name":"treasury","type":"address","indexed":false,"internalType":"address"},{"name":"governance","type":"address","indexed":false,"internalType":"address"},{"name":"token","type":"address","indexed":false,"internalType":"address"},{"name":"policyNFT","type":"address","indexed":false,"internalType":"address"}],"anonymous":false}],"bytecode":{"object":"0x608080604052346100185762010b1d90816200001e8239f35b600080fdfe60808060405260043610156200001457600080fd5b600090813560e01c90816318da00111462000c125750806324357b691462000be75780633e47158c1462000bbc57806355a373d61462000b91578063aeb18c521462000103578063b172b22214620000d8578063bece753214620000ad5763d012a5a8146200008257600080fd5b34620000aa5780600319360112620000aa57546040516001600160a01b039091168152602090f35b80fd5b5034620000aa5780600319360112620000aa576001546040516001600160a01b039091168152602090f35b5034620000aa5780600319360112620000aa576003546040516001600160a01b039091168152602090f35b5034620000aa57610160366003190112620000aa57600435906001600160a01b0382168203620000aa5760e4356001600160a01b038116810362000b8d5761010435906001600160a01b038216820362000b89576001600160a01b0384161562000b4c57604051610668808201908282106001600160401b0383111762000b1e5790829162000ccd8339039084f08015620009c457600680546001600160a01b0319166001600160a01b03929092169182179055803b1562000b485760405163f2fde38b60e01b81526001600160a01b03861660048201529084908290602490829084905af1801562000aca5762000b32575b50604051613632808201908282106001600160401b0383111762000b1e5790829162001f8c8339039084f0918215620009c457604051612054808201908282106001600160401b0383111762000ad557908291620055be8339039085f092831562000aca576040516120b8808201908282106001600160401b0383111762000b0a579082916200ba0d8339039086f090811562000aff576040519063c0c53b8b60e01b6020830152866024830152866044830152866064830152606482528160a08101106001600160401b0360a08401111762000ae95760a082810160408190526006546001600160a01b0316916001600160401b03610c57860190910190811191111762000b0a5790826200032e8160a094610c576200133587840139609f19946000196001881b0116610c578301870162000c69565b0301910186f0801562000aff5760018060a01b031690855491806001600160601b0360a01b8416178755866040519363189acdbd60e31b602086015216176024830152602482528160608101106001600160401b0360608401111762000ae957606082810160408190526006546001600160a01b0316916001600160401b03610c57860190910190811191111762000ad5579082620003ef81606094610c576200133587840139605f19946001600160a01b0316610c578301870162000c69565b0301910185f0801562000aca57600280546001600160a01b0319166001600160a01b039283161790558454604051639819adb360e01b6020820152908216602482015292811660448401521660648201526101243560848201526101443560a4808301919091528152620004638162000c4d565b60018060a01b03600654166040519283610c578101106001600160401b03610c578601111762000a645791620004b2918493610c576200133586396001600160a01b0316610c57850162000c69565b039082f0801562000a785760018060a01b03166001600160601b0360a01b6001541617600155604051806143fb8101106001600160401b036143fb8301111762000ab6576143fb6200761282396001600160a01b0383166143fb8201908152602435602082015260443560408201528190036060019082f0801562000a785760018060a01b031660045490806001600160601b0360a01b831617600455826040519263f92ad21960e01b6020850152161760248201526064356044820152608435606482015260a435608482015260c43560a482015260a48152620005978162000c4d565b60065460405191906001600160a01b03166001600160401b03610c5784019081119084111762000aa257610c576200133584396000610c578401526020610c578401015260606040610c578401015281815191826060610c578401015260005b83811062000a8557505081600060808094610c578501010152601f8019910116610c5782010103019082f0801562000a7857600380546001600160a01b0319166001600160a01b03928316179055815460405161302380820195939192909116906001600160401b0386118387101762000a6457849560209284926200dac58439815203019083f080156200099a57600580546001600160a01b0319166001600160a01b0392831617905582546001549082169116813b1562000a2f57839160248392604051948593849263496ccd9b60e01b845260048401525af1908115620009c457839162000a4c575b505081546002546001600160a01b039182169116813b1562000a2f5783916024839260405194859384926301ed651160e41b845260048401525af1908115620009c457839162000a34575b505081546003546001600160a01b039182169116813b1562000a2f578391602483926040519485938492631129753f60e01b845260048401525af1908115620009c457839162000a17575b505081546001600160a01b0316803b15620009a55760405163f2fde38b60e01b81526001600160a01b03831660048201529083908290602490829084905af1908115620009c4578391620009ff575b50506001546001600160a01b0316803b15620009a55760405163f2fde38b60e01b81526001600160a01b03831660048201529083908290602490829084905af1908115620009c4578391620009e7575b50506002546001600160a01b0316803b15620009a55760405163f2fde38b60e01b81526001600160a01b03831660048201529083908290602490829084905af1908115620009c4578391620009cf575b50506003546001600160a01b0316803b15620009a55760405163f2fde38b60e01b81526001600160a01b03831660048201529083908290602490829084905af1908115620009c4578391620009a9575b50506005546001600160a01b0316803b15620009a55760405163f2fde38b60e01b81526001600160a01b0390921660048301529091908290602490829084905af180156200099a5762000982575b8154600154600254600354600454600554604080516001600160a01b03978816815295871660208701529386169385019390935290841660608401528316608083015290911660a08201527f8e9f7c3ef913cbc2048c0a0e7d5b88c4cfed1f3a94397ccbd1517d529325988a9060c090a1602060405160018152f35b6200098e829162000c39565b620000aa573862000906565b6040513d84823e3d90fd5b5050fd5b620009b49062000c39565b620009c1578138620008b8565b50fd5b6040513d85823e3d90fd5b620009da9062000c39565b620009c157813862000868565b620009f29062000c39565b620009c157813862000818565b62000a0a9062000c39565b620009c1578138620007c8565b62000a229062000c39565b620009c157813862000779565b505050fd5b62000a3f9062000c39565b620009c15781386200072e565b62000a579062000c39565b620009c1578138620006e3565b634e487b7160e01b85526041600452602485fd5b50604051903d90823e3d90fd5b60208282018101516080610c5788018401015285935001620005f7565b634e487b7160e01b84526041600452602484fd5b634e487b7160e01b82526041600452602482fd5b6040513d86823e3d90fd5b634e487b7160e01b87526041600452602487fd5b634e487b7160e01b600052604160045260246000fd5b6040513d87823e3d90fd5b634e487b7160e01b88526041600452602488fd5b634e487b7160e01b86526041600452602486fd5b62000b409093919362000c39565b9138620001f6565b8380fd5b60405162461bcd60e51b8152602060048201526015602482015274496e76616c6964206f776e6572206164647265737360581b6044820152606490fd5b8280fd5b5080fd5b5034620000aa5780600319360112620000aa576004546040516001600160a01b039091168152602090f35b5034620000aa5780600319360112620000aa576006546040516001600160a01b039091168152602090f35b5034620000aa5780600319360112620000aa576005546040516001600160a01b039091168152602090f35b90503462000b8d578160031936011262000b8d576002546001600160a01b03168152602090f35b6001600160401b03811162000ae957604052565b60e081019081106001600160401b0382111762000ae957604052565b9193929060018060a01b03809116835260209416848301526060604083015280519081606084015260005b82811062000cb757505060809293506000838284010152601f8019910116010190565b81810186015184820160800152850162000c9456fe6080806040523461005b5760008054336001600160a01b0319821681178355916001600160a01b03909116907f8be0079c531659141344cd1fd0a4f28419497f9722a3daafe3b4186f6b6457e09080a361060790816100618239f35b600080fdfe6080604081815260048036101561001557600080fd5b600092833560e01c90848263204e1c7a146104525750508063715018a6146103f85780637eff275e1461037e5780638da5cb5b146103565780639623609d146102415783816399a88ec4146101b557508063f2fde38b146100e95763f3b7dead1461007f57600080fd5b346100e55760203660031901126100e5576001600160a01b039083908190836100a6610491565b86516303e1469160e61b815291165afa926100bf610582565b93156100e257506100da8360208080965183010191016105b2565b169051908152f35b80fd5b8280fd5b50346100e55760203660031901126100e557610103610491565b9061010c61052a565b6001600160a01b03918216928315610163575050600054826bffffffffffffffffffffffff60a01b821617600055167f8be0079c531659141344cd1fd0a4f28419497f9722a3daafe3b4186f6b6457e0600080a380f35b906020608492519162461bcd60e51b8352820152602660248201527f4f776e61626c653a206e6577206f776e657220697320746865207a65726f206160448201526564647265737360d01b6064820152fd5b9290503461023d578060031936011261023d576101d0610491565b6101d86104ac565b906101e161052a565b6001600160a01b03908116803b156102395785928360249286519788958694631b2ce7f360e11b865216908401525af190811561023057506102205750f35b610229906104c2565b6100e25780f35b513d84823e3d90fd5b8580fd5b5050fd5b508290606036600319011261035257610258610491565b926102616104ac565b916044359067ffffffffffffffff821161034e573660238301121561034e57818101359161028e8361050e565b9261029b855194856104ec565b808452366024828401011161034a576024929181889260209586930183880137850101526102c761052a565b6001600160a01b0396871696873b1561034a5784519563278f794360e11b87521690850152826024850152815191826044860152855b8381106103365750505082849581606481858983819884010152601f8019910116810103019134905af190811561023057506102205750f35b8181018301518682016064015282016102fd565b8680fd5b8480fd5b5080fd5b505034610352578160031936011261035257905490516001600160a01b039091168152602090f35b5090346100e557806003193601126100e55782610399610491565b6103a16104ac565b6103a961052a565b6001600160a01b0391821690813b156103f45783602492865197889586946308f2839760e41b865216908401525af190811561023057506103e8575080f35b6103f1906104c2565b80f35b8380fd5b83346100e257806003193601126100e25761041161052a565b80546001600160a01b03198116825581906001600160a01b03167f8be0079c531659141344cd1fd0a4f28419497f9722a3daafe3b4186f6b6457e08280a380f35b91509134610352576020366003190112610352576001600160a01b03928291908461047b610491565b635c60da1b60e01b8352165afa926100bf610582565b600435906001600160a01b03821682036104a757565b600080fd5b602435906001600160a01b03821682036104a757565b67ffffffffffffffff81116104d657604052565b634e487b7160e01b600052604160045260246000fd5b90601f8019910116810190811067ffffffffffffffff8211176104d657604052565b67ffffffffffffffff81116104d657601f01601f191660200190565b6000546001600160a01b0316330361053e57565b606460405162461bcd60e51b815260206004820152602060248201527f4f776e61626c653a2063616c6c6572206973206e6f7420746865206f776e65726044820152fd5b3d156105ad573d906105938261050e565b916105a160405193846104ec565b82523d6000602084013e565b606090565b908160209103126104a757516001600160a01b03811681036104a7579056fea264697066735822122019d4a94cdd1e8472de0ab2c233a971754d9243c177a0048c16dfadb2ea692d2f64736f6c6343000813003360406080815262000c578038038062000018816200030b565b9283398101906060818303126200030657620000348162000347565b916020926200004584840162000347565b8584015190936001600160401b0391908282116200030657019280601f850112156200030657835193620000836200007d866200035c565b6200030b565b948086528786019288828401011162000306578288620000a4930162000378565b823b15620002ac577f360894a13ba1a3210667c828492db98dca3e2076cc3735a920a3ca505d382bbc80546001600160a01b03199081166001600160a01b0386811691821790935590959194600093909290917fbc7cd75a20ee27fd9adebab32041f755214dbc6bffa90cc0225b39da2e5c2d3b8580a2805115801590620002a4575b620001f5575b50505050507fb53127684a568b3173ae13b9f8a6016e243e63b6e8ee1178d6a717850b5d6103937f7e644d79422f17c01e4894b5f4f588d331ebfa28653d42ae832dc59e38c9798f86865493815196818616885216958684820152a18315620001a3575016179055516108009081620004578239f35b60849086519062461bcd60e51b82526004820152602660248201527f455243313936373a206e65772061646d696e20697320746865207a65726f206160448201526564647265737360d01b6064820152fd5b895194606086019081118682101762000290578a52602785527f416464726573733a206c6f772d6c6576656c2064656c65676174652063616c6c89860152660819985a5b195960ca1b8a860152516200027a9493929183918291845af4903d1562000286573d6200026a6200007d826200035c565b90815280938a3d92013e6200039d565b5038808080806200012d565b606092506200039d565b634e487b7160e01b85526041600452602485fd5b508362000127565b865162461bcd60e51b815260048101879052602d60248201527f455243313936373a206e657720696d706c656d656e746174696f6e206973206e60448201526c1bdd08184818dbdb9d1c9858dd609a1b6064820152608490fd5b600080fd5b6040519190601f01601f191682016001600160401b038111838210176200033157604052565b634e487b7160e01b600052604160045260246000fd5b51906001600160a01b03821682036200030657565b6001600160401b0381116200033157601f01601f191660200190565b60005b8381106200038c5750506000910152565b81810151838201526020016200037b565b91929015620004025750815115620003b3575090565b3b15620003bd5790565b60405162461bcd60e51b815260206004820152601d60248201527f416464726573733a2063616c6c20746f206e6f6e2d636f6e74726163740000006044820152606490fd5b825190915015620004165750805190602001fd5b6044604051809262461bcd60e51b82526020600483015262000448815180928160248601526020868601910162000378565b601f01601f19168101030190fdfe60806040523661012e5760008051602061078b833981519152546001600160a01b03163303610129576000356001600160e01b031916631b2ce7f360e11b8103610054575061004c6103d1565b602081519101f35b63278f794360e11b8103610070575061006b610573565b61004c565b6308f2839760e41b8103610087575061006b6102fb565b6303e1469160e61b810361009e575061006b610220565b635c60da1b60e01b036100b35761006b610259565b60405162461bcd60e51b815260206004820152604260248201527f5472616e73706172656e745570677261646561626c6550726f78793a2061646d60448201527f696e2063616e6e6f742066616c6c6261636b20746f2070726f78792074617267606482015261195d60f21b608482015260a490fd5b610171565b60008051602061078b833981519152546001600160a01b03163303610171576000356001600160e01b031916631b2ce7f360e11b8103610054575061004c6103d1565b6000805160206107ab83398151915254600090819081906001600160a01b0316368280378136915af43d82803e156101a7573d90f35b3d90fd5b634e487b7160e01b600052604160045260246000fd5b6040810190811067ffffffffffffffff8211176101dd57604052565b6101ab565b6020810190811067ffffffffffffffff8211176101dd57604052565b90601f8019910116810190811067ffffffffffffffff8211176101dd57604052565b610228610604565b60018060a01b0360008051602061078b833981519152541660405190602082015260208152610256816101c1565b90565b610261610604565b60018060a01b036000805160206107ab833981519152541660405190602082015260208152610256816101c1565b600435906001600160a01b03821682036102a557565b600080fd5b60209060031901126102a5576004356001600160a01b03811681036102a55790565b67ffffffffffffffff81116101dd57601f01601f191660200190565b604051906102f5826101e2565b60008252565b610303610604565b366004116102a5576001600160a01b038061031d366102aa565b1660008051602061078b833981519152917f7e644d79422f17c01e4894b5f4f588d331ebfa28653d42ae832dc59e38c9798f604084549281519084168152846020820152a1811561037d576001600160a01b0319161790556102566102e8565b60405162461bcd60e51b815260206004820152602660248201527f455243313936373a206e65772061646d696e20697320746865207a65726f206160448201526564647265737360d01b6064820152608490fd5b6103d9610604565b366004116102a5576001600160a01b036103f2366102aa565b1660405190610400826101e2565b60008252803b15610497576000805160206107ab83398151915280546001600160a01b03191682179055807fbc7cd75a20ee27fd9adebab32041f755214dbc6bffa90cc0225b39da2e5c2d3b600080a281511580159061048f575b610475575b505060405161046e816101e2565b6000815290565b6104879161048161060b565b91610665565b503880610460565b50600061045b565b60405162461bcd60e51b815260206004820152602d60248201527f455243313936373a206e657720696d706c656d656e746174696f6e206973206e60448201526c1bdd08184818dbdb9d1c9858dd609a1b6064820152608490fd5b803b15610497576000805160206107ab83398151915280546001600160a01b0319166001600160a01b0383169081179091557fbc7cd75a20ee27fd9adebab32041f755214dbc6bffa90cc0225b39da2e5c2d3b600080a281511580159061056b575b61055c575050565b6105689161048161060b565b50565b506001610554565b366004116102a55760403660031901126102a55761058f61028f565b6024359067ffffffffffffffff82116102a557366023830112156102a5578160040135906105bc826102cc565b916105ca60405193846101fe565b80835236602482860101116102a55760208160009260246105fc970183870137840101526001600160a01b03166104f2565b6102566102e8565b346102a557565b604051906060820182811067ffffffffffffffff8211176101dd5760405260278252660819985a5b195960ca1b6040837f416464726573733a206c6f772d6c6576656c2064656c65676174652063616c6c60208201520152565b6000806102569493602081519101845af43d156106a4573d91610687836102cc565b9261069560405194856101fe565b83523d6000602085013e6106f8565b6060916106f8565b156106b357565b60405162461bcd60e51b815260206004820152601d60248201527f416464726573733a2063616c6c20746f206e6f6e2d636f6e74726163740000006044820152606490fd5b91929015610718575081511561070c575090565b610256903b15156106ac565b82519091501561072b5750805190602001fd5b6040519062461bcd60e51b82528160208060048301528251908160248401526000935b828510610771575050604492506000838284010152601f80199101168101030190fd5b848101820151868601604401529381019385935061074e56feb53127684a568b3173ae13b9f8a6016e243e63b6e8ee1178d6a717850b5d6103360894a13ba1a3210667c828492db98dca3e2076cc3735a920a3ca505d382bbca2646970667358221220253c4d09d96e644bd42a3cafacfd5623f4f5ef8c20269318910a2266593ea98b64736f6c634300081300336080806040523461001657613616908161001c8239f35b600080fdfe608080604052600436101561001357600080fd5b60003560e01c9081630d8e6e2c146128c1575080631129753f1461283457806312c0c534146127825780631ed65110146126f557806339f851601461269a5780633b03249c146125f25780633f4ba83a1461255e578063496ccd9b146124d85780635c975abb146124b5578063715018a61461245857806372362c87146123e457806378df9bb6146123c65780637dec3d2e1461130457806383d0e32f14610f525780638456cb5914610ef8578063871ae93a14610ce45780638b86d48a14610cb55780638da5cb5b14610c8c5780639bd52fa914610c4d5780639ee3ca9b14610bef578063b1df32cf14610b94578063b20e8bcc1461090b578063b93621ce14610813578063c0c53b8b146105bc578063cc03801014610357578063d1ce59a714610328578063eb2aa3bc146102ca578063f26e7065146101f25763f2fde38b1461015e57600080fd5b346101ed5760203660031901126101ed576101776129ec565b61017f612a5f565b6001600160a01b038116156101995761019790612ab7565b005b60405162461bcd60e51b815260206004820152602660248201527f4f776e61626c653a206e6577206f776e657220697320746865207a65726f206160448201526564647265737360d01b6064820152608490fd5b600080fd5b346101ed5760603660031901126101ed576001600160401b036004358181116101ed57610223903690600401612a02565b916024359081116101ed5761023c903690600401612a02565b91906044359361024a612a5f565b841515806102be575b156102845760208093826040519384928337810160da81520301902083604051948593843782019081520301902055005b60405162461bcd60e51b8152602060048201526012602482015271496e76616c6964207269736b2073636f726560701b6044820152606490fd5b50612710851115610253565b346101ed5760203660031901126101ed576004356001600160401b0381116101ed576102fc6020913690600401612a02565b9190610306612a5f565b82604051938492833760d790820190815203019020805460ff19166001179055005b346101ed5760003660031901126101ed57606060cd5460ce5460cf549060405192835260208301526040820152f35b346101ed5760203660031901126101ed5760405160043561037782612c8c565b6000825260006020830152600060408301526000606083015260006080830152600060a0830152600060c0830152600060e0830152606061018061010093600085820152600061012082015260006101408201528261016082015201528060005260ca6020526103ed8160406000205414612dcf565b60005260ca60205260406000209060cb60205261040e6040600020926134c4565b91805461041a81612d2a565b906104286040519283612cc3565b80825260208201809360005260206000206000915b8383106105945750505050610502604051948594604086528151604087015260018060a01b03602083015116606087015260408201516080870152606082015160a0870152608082015160c087015260a082015160e087015260c082015115158187015260e082015115156101208701528101516101408601526101208101516101608601526101408101516101808601526101806104ed6101608301516101a0808901526101e08801906129c7565b910151858203603f19016101c08701526129c7565b90838203602085015251808252602082019160208260051b82010193926000915b8383106105305786860387f35b919395509193602080600192601f1985820301865288519060808061055e845160a0855260a08501906129c7565b93858101518685015260408101516040850152606081015115156060850152015191015297019301930190928695949293610523565b600560206001926105a9859b98999a9b6130bc565b815201920192019190969594939661043d565b346101ed5760603660031901126101ed576105d56129ec565b6001600160a01b0360243581811692908390036101ed57604435908282168092036101ed576000549360ff8560081c161593848095610806575b80156107ef575b156107935760ff1980871660019081176000559686610781575b5061064b60ff60005460081c1661064681612b98565b612b98565b61065433612ab7565b61067f60ff60005460081c1661066981612b98565b61067281612b98565b8860655561064681612b98565b6097541660975561069160c954612b00565b601f8111610735575b50600a640312e302e360dc1b0160c9556101f460d3556107d060d45569d3c21bcecceda100000060d55567016345785d8a000060d6556001600160601b0360a01b92168260d054161760d0558160d154161760d15560d254161760d2556106fd57005b60207f7f26b83ff96e1f2b6a682f133852f6798a09c465da95921460cefb38474024989161ff001960005416600055604051908152a1005b60c960005286601f7f66be4f155c5ef2ebd3772b228f2f00681e4ed5826cdb3b1943cc11ad15ad1d28920160051c8201915b82811061077557505061069a565b60008155018790610767565b61ffff19166101011760005587610630565b60405162461bcd60e51b815260206004820152602e60248201527f496e697469616c697a61626c653a20636f6e747261637420697320616c72656160448201526d191e481a5b9a5d1a585b1a5e995960921b6064820152608490fd5b50303b1580156106165750600160ff871614610616565b50600160ff87161061060f565b346101ed5760403660031901126101ed576001600160401b036004358181116101ed57610844903690600401612a02565b916024358181116101ed5761085d903690600401612a2f565b92610866612a5f565b846040519586928337810160d981526020958691030190209183116108f557600160401b83116108f55781548383558084106108d8575b509060005282600020906000905b8382106108b457005b8035916001600160a01b03831683036101ed578560019201928185015501906108ab565b6108ef908360005284866000209182019101612b3a565b8461089d565b634e487b7160e01b600052604160045260246000fd5b346101ed576020806003193601126101ed576004358060005260ca82526109388160406000205414612dcf565b600081815260ca835260409020600101546001600160a01b03919082163303610b4f57610963612e45565b8060005260ca8352604060002091600683019283549161098560ff8416612e9b565b6004820154421015610b115760ff8360081c16610ad3579181610a0d936109c16003899501546127106109ba60d45483613113565b0490612e38565b96879360ff1916905560018160d154169201541660006040518096819582946302fad4a560e61b84528a600485016040919493926060820195825260018060a01b031660208201520152565b03925af1908115610ac757600091610a9a575b5015610a5c577f7c41b459dc71e42d9c8413ad0079d0a19b31e18ab9fb49082b826577e005f3fc83604051848152a26001606555604051908152f35b60405162461bcd60e51b8152600481018490526016602482015275151c99585cdd5c9e481c99599d5b990819985a5b195960521b6044820152606490fd5b610aba9150843d8611610ac0575b610ab28183612cc3565b810190612e13565b84610a20565b503d610aa8565b6040513d6000823e3d90fd5b60405162461bcd60e51b8152600481018790526016602482015275141bdb1a58de48185b1c9958591e4818db185a5b595960521b6044820152606490fd5b60405162461bcd60e51b8152600481018790526016602482015275141bdb1a58de48185b1c9958591e481cdd185c9d195960521b6044820152606490fd5b60405162461bcd60e51b815260048101849052601a60248201527f43616c6c6572206973206e6f7420706f6c696379206f776e65720000000000006044820152606490fd5b346101ed5760203660031901126101ed576004356001600160401b0381116101ed57610bc66020913690600401612a02565b9190610bd0612a5f565b82604051938492833760d790820190815203019020805460ff19169055005b346101ed5760203660031901126101ed576004356001600160401b0381116101ed57610c216020913690600401612a02565b9190610c2b612a5f565b82604051938492833760d890820190815203019020805460ff19166001179055005b346101ed5760203660031901126101ed57600435610c69612a5f565b80151580610c80575b610c7b9061359f565b60d355005b50611388811115610c72565b346101ed5760003660031901126101ed576033546040516001600160a01b039091168152602090f35b346101ed5760203660031901126101ed57600435610cd1612a5f565b610cdf61138882111561359f565b60d455005b6020806003193601126101ed5760043590610cfd612d8b565b8160005260ca8152610d158260406000205414612dcf565b610d1d612e45565b8160005260ca8152604060002090600682019182549060ff8216610ebb576004810154421015610e765760030192835491823410610e315760ff1916600117905560d154604051630eeab8ed60e41b81526004810186905291839183916024918391906001600160a01b03165af18015610ac757610e14575b50610da4825460ce54612e2b565b60ce55610db2825434612e38565b80158015610dee575b50507ff83ccf084d824ee54c49feff5dbce3c2ec49e68747e28bbfd429720226fed10e9154604051908152a26001606555005b600080809381938290610e0b575b3390f115610ac7578380610dbb565b506108fc610dfc565b610e2a90823d8411610ac057610ab28183612cc3565b5083610d96565b60405162461bcd60e51b815260048101859052601c60248201527f496e73756666696369656e74207072656d69756d207061796d656e74000000006044820152606490fd5b60405162461bcd60e51b815260048101849052601c60248201527f506f6c69637920737461727420646174652068617320706173736564000000006044820152606490fd5b60405162461bcd60e51b8152600481018490526015602482015274506f6c69637920616c72656164792061637469766560581b6044820152606490fd5b346101ed5760003660031901126101ed57610f11612a5f565b610f19612d8b565b600160ff1960975416176097557f62e78cea01bee320cd4e420270b5ea74000d11b0c9f74754ebdbfc544b05a2586020604051338152a1005b346101ed576003196040368201126101ed576024356001600160401b0381116101ed57610f83903690600401612a02565b90610f8c612d8b565b6004358060005260209160ca8352610faa8260406000205414612dcf565b8160005260ca835260406000209360ff6006860154610fca828216612e9b565b610fda6004880154421015612edb565b610fea6005880154421115612f20565b60081c161580156112f3575b610fff90612f61565b60009460005b8460005260cb8652604060002080548210156112e7578161102591612d6f565b506040516110488161103a8a82018095612fa4565b03601f198101835282612cc3565b519020604051878101908587833761106f8982888101600083820152038084520182612cc3565b519020146110855761108090612bf8565b611005565b5090919293945060015b156112a25760405185816110a681600a8601612fa4565b60d981520301902060405196878888845492838152018094600052896000209260005b8b828210611283575050506110e092500389612cc3565b8751156112465760d0546040516346aa782560e11b815260048101889052608060248201529798899489946001600160a01b0393841694909392909187919061114490600a61113360848b018d8f612d4e565b91868b84030160448c015201613027565b9287840301606488015251918281520192916000905b8282106112285750505050600083809203925af1938415610ac7576000946111d7575b50907f3bf0ce61f7eaf6fd0666d2734b024cb3aceb277f30b6c8196fb4752e201097a7918460005260cc8652836040600020556111cc6040519283928784526040898501526040840191612d4e565b0390a2604051908152f35b919093508482813d8311611221575b6111f08183612cc3565b810103126101ed579051927f3bf0ce61f7eaf6fd0666d2734b024cb3aceb277f30b6c8196fb4752e201097a761117d565b503d6111e6565b8351811685528c978c9750948501949093019260019091019061115a565b60405162461bcd60e51b815260048101889052601560248201527427379037b930b1b632b9903337b9103932b3b4b7b760591b6044820152606490fd5b85546001600160a01b031684526001958601958e9550930192016110c9565b60405162461bcd60e51b815260048101869052601c60248201527f506172616d657465722074797065206e6f7420696e20706f6c696379000000006044820152606490fd5b5050909192939461108f565b506007850154600286015411610ff6565b346101ed576101003660031901126101ed576004356001600160a01b03811690036101ed576084356001600160401b0381116101ed57611348903690600401612a02565b9060a4356001600160401b0381116101ed57611368903690600401612a02565b929060c4356001600160401b0381116101ed57611389903690600401612a2f565b909460e4356001600160401b0381116101ed576113aa903690600401612a02565b9690926113b5612d8b565b6004356001600160a01b0316156123885760d654602435106123435760d554602435116122fe574260443511156122b957604435606435111561226a5780156122265760ff6040518789823760d788820152602081898101030190205416156121ea5760ff6040518487823760208186810160d88152030190205416156121a55785156121675782156121225787156120dd5760005b818110611d7c575061145e368789612ce4565b9761146a368588612ce4565b61147383612d2a565b996114816040519b8c612cc3565b838b5260208b01368560051b8701116101ed5785905b8560051b87018210611cd35750506114e0916114c36020809381604051938285809451938492016129a4565b810160da81520301902082604051948386809551938492016129a4565b82019081520301902054978815611cc9575b600097885b8b518a10156115d95761151d90606460806115138f8e9061358b565b5101510490612e2b565b898c82606061152c848461358b565b510151156115b8575061154360649260209261358b565b510151046001810181116115a257600181011561158c578c600a60406115138e61157a611586976001611580980160640490612e2b565b9461358b565b99612bf8565b986114f7565b634e487b7160e01b600052601260045260246000fd5b634e487b7160e01b600052601160045260246000fd5b611586935060406115138461157a600a948560206115136115809a8a61358b565b8a908c816064810204606414821517156115a2575190811561158c576127109261162492606461160b93020490612e2b565b60d354808210611cc1575b506024999493959935613113565b04928361163260cd54612bf8565b9889948560cd556040518860408201602080840152528a8d6060830160608c60051b850101908d908d6000905b8110611be657505050946020846116f583958c98956116906117809f996117109c601f198282030182520385612cc3565b6040519b8c99868b01526001600160601b031960043560601b1660408b015260243560548b015260748a015260443560948a015260643560b48a01528c60d49a8b8b0137818d8a01918b830160008152370191888301600081528151948592016129a4565b019185830137016000838201520360b4810184520182612cc3565b602081519101206040519461172486612c8c565b8986526004356001600160a01b0316602087015260243560408701526060860152604435608086015260643560a0860152600060c0860181905260e0860181905261010086018190526101208601526101408501523691612ce4565b610160820152611791368588612ce4565b6101808201528460005260ca602052604060002090805182556001820160018060a01b036020830151166001600160601b0360a01b82541617905560408101516002830155606081015160038301556080810151600483015560a081015160058301556006820161181460c08301511515829060ff801983541691151516179055565b60e0820151151561ff0082549160081b169061ff0019161790556101008101516007830155610120810151600883015561014081015160098301556101608101518051906001600160401b0382116108f55761188082611877600a870154612b00565b600a8701612b51565b602090601f8311600114611b725761018093929160009183611b67575b50508160011b916000199060031b1c191617600a8401555b01518051906001600160401b0382116108f5576118e2826118d9600b860154612b00565b600b8601612b51565b602090601f8311600114611af757600b929160009183611aec575b50508160011b916000199060031b1c1916179101555b60005b81811061197a57505050817f3ba6e40afa81c8fea5bd9b9e8a175e2f7d27d2ac53139854cf6266c4e38add5c61196f602095604051918291602435835260408984015260018060a01b0360043516966040840191612d4e565b0390a3604051908152f35b8460005260cb602052604060002090611994818486612c07565b918054600160401b8110156108f5576119b291600182018155612d6f565b611ad6576119c08380612c3f565b906001600160401b0382116108f55781906119e5826119df8654612b00565b86612b51565b600090601f8311600114611a6e57600092611a63575b50508160011b916000199060031b1c19161781555b602083013560018201556040830135600282015560608301359283151584036101ed576080600491611a54611a5e96600386019060ff801983541691151516179055565b0135910155612bf8565b611916565b013590508a806119fb565b600085815260208120909450915b601f1984168510611abe576001945083601f19811610611aa4575b505050811b018155611a10565b0135600019600384901b60f8161c191690558a8080611a97565b81810135835560209485019460019093019201611a7c565b634e487b7160e01b600052600060045260246000fd5b0151905089806118fd565b90600b840160005260206000209160005b601f1985168110611b4f5750918391600193600b95601f19811610611b36575b505050811b01910155611913565b015160001960f88460031b161c19169055898080611b28565b91926020600181928685015181550194019201611b08565b015190508a8061189d565b90600a850160005260206000209160005b601f1985168110611bce57509183916001936101809695601f19811610611bb5575b505050811b01600a8401556118b5565b015160001960f88460031b161c191690558a8080611ba5565b91926020600181928685015181550194019201611b83565b9450949698999a509496509050605f19858203018352609e198c360301843512156101ed5783358c018035903603601e19018112156101ed576001600160401b038d863501820135116101ed5784358d018101803536036020909101136101ed5760208d600193611c6e839460a080845283019085858c350182013591868d35010101612d4e565b88358301808501358386015260408082013590840152909290611c9390606001612d41565b15156060830152608080918a350101359101529501930191018995938f91938f9a99989694938f948e61165f565b90508b611616565b6101f498506114f2565b6001600160401b038235116101ed5760a0823588013603126101ed5760405190611cfc82612c71565b8235880135906001600160401b0382116101ed5736601f8386358c01010112156101ed576020928392611d3a90369087358d01018035908601612ce4565b815284358a01808401358483015260408082013590830152606090611d60908201612d41565b9082015260808086358c01013590820152815201910190611497565b6020611d89828486612c07565b013515612098576040611d9d828486612c07565b01351561206257608080611db2838587612c07565b013515159081612048575b501561200357611de1611dda611dd4838587612c07565b80612c3f565b3691612ce4565b604051611e0b60208281611dfe81830196878151938492016129a4565b8101038084520182612cc3565b5190206040519060208201671c985a5b99985b1b60c21b8152600892838152611e3381612ca8565b5190208114918215611fd0575b8215611fa0575b508115611f6e575b8115611f3a575b8115611f09575b5015611ecb57611e71611dd4828486612c07565b905015611e8657611e8190612bf8565b61144b565b60405162461bcd60e51b815260206004820152601e60248201527f506172616d6574657220747970652063616e6e6f7420626520656d70747900006044820152606490fd5b60405162461bcd60e51b8152602060048201526016602482015275496e76616c696420706172616d65746572207479706560501b6044820152606490fd5b905060405160208101906966726f73745f6461797360b01b8252600a8152611f3081612ca8565b519020148a611e5d565b905060405160208101906b64726f756768745f6461797360a01b8252600c8152611f6381612ca8565b519020811490611e56565b90506040516020810190691dda5b9917dcdc19595960b21b8252600a8152611f9581612ca8565b519020811490611e4f565b90915060405160208101916768756d696469747960c01b83528152611fc481612ca8565b5190208114908b611e47565b915060405160208101906a74656d706572617475726560a81b8252600b8152611ff881612ca8565b519020811491611e40565b60405162461bcd60e51b815260206004820152601960248201527f496e76616c6964207061796f75742070657263656e74616765000000000000006044820152606490fd5b6127109150612058838587612c07565b013511158a611dbd565b60405162461bcd60e51b815260206004820152600e60248201526d125b9d985b1a59081c195c9a5bd960921b6044820152606490fd5b60405162461bcd60e51b815260206004820152601760248201527f496e76616c6964207468726573686f6c642076616c75650000000000000000006044820152606490fd5b60405162461bcd60e51b815260206004820152601d60248201527f5a4b2070726f6f6620686173682063616e6e6f7420626520656d7074790000006044820152606490fd5b60405162461bcd60e51b815260206004820152601960248201527f43726f7020747970652063616e6e6f7420626520656d707479000000000000006044820152606490fd5b60405162461bcd60e51b8152602060048201526016602482015275526567696f6e2063616e6e6f7420626520656d70747960501b6044820152606490fd5b60405162461bcd60e51b815260206004820152601760248201527f43726f702074797065206e6f7420737570706f727465640000000000000000006044820152606490fd5b60405162461bcd60e51b8152602060048201526014602482015273149959da5bdb881b9bdd081cdd5c1c1bdc9d195960621b6044820152606490fd5b606460405162461bcd60e51b815260206004820152602060248201527f4d7573742068617665206174206c65617374206f6e6520706172616d657465726044820152fd5b60405162461bcd60e51b815260206004820152602160248201527f456e642064617465206d757374206265206166746572207374617274206461746044820152606560f81b6064820152608490fd5b60405162461bcd60e51b815260206004820152601c60248201527f53746172742064617465206d75737420626520696e20667574757265000000006044820152606490fd5b60405162461bcd60e51b815260206004820152601860248201527f436f76657261676520616d6f756e7420746f6f206869676800000000000000006044820152606490fd5b60405162461bcd60e51b815260206004820152601760248201527f436f76657261676520616d6f756e7420746f6f206c6f770000000000000000006044820152606490fd5b60405162461bcd60e51b8152602060048201526016602482015275496e76616c6964206661726d6572206164647265737360501b6044820152606490fd5b346101ed5760003660031901126101ed57602060cd54604051908152f35b346101ed5760403660031901126101ed57602435600435612403612a5f565b8015158061244f575b156124195760d65560d555005b60405162461bcd60e51b815260206004820152600e60248201526d496e76616c6964206c696d69747360901b6044820152606490fd5b5080821161240c565b346101ed5760003660031901126101ed57612471612a5f565b603380546001600160a01b031981169091556000906001600160a01b03167f8be0079c531659141344cd1fd0a4f28419497f9722a3daafe3b4186f6b6457e08280a3005b346101ed5760003660031901126101ed57602060ff609754166040519015158152f35b346101ed5760203660031901126101ed576124f16129ec565b6124f9612a5f565b6001600160a01b03168015612520576001600160601b0360a01b60d054161760d055600080f35b60405162461bcd60e51b8152602060048201526016602482015275496e76616c6964206f7261636c65206164647265737360501b6044820152606490fd5b346101ed5760003660031901126101ed57612577612a5f565b60975460ff8116156125b65760ff19166097557f5db9ee0a495bf2e6ff9c91a7834c1ba4fdd244a5e8aa4e537bd38aeae4b073aa6020604051338152a1005b60405162461bcd60e51b815260206004820152601460248201527314185d5cd8589b194e881b9bdd081c185d5cd95960621b6044820152606490fd5b346101ed5760203660031901126101ed576004358060005260ca60205261261f8160406000205414612dcf565b60005260ca60205260a061263660406000206134c4565b60c081015115159060e08101511515906101008101518461265b826040850151612e38565b92015180421060001461269157612673904290612e38565b925b6040519485526020850152604084015260608301526080820152f35b50600092612675565b346101ed5760203660031901126101ed576004356001600160401b0381116101ed576126cc6020913690600401612a02565b91906126d6612a5f565b82604051938492833760d890820190815203019020805460ff19169055005b346101ed5760203660031901126101ed5761270e6129ec565b612716612a5f565b6001600160a01b0316801561273d576001600160601b0360a01b60d154161760d155600080f35b60405162461bcd60e51b815260206004820152601860248201527f496e76616c6964207472656173757279206164647265737300000000000000006044820152606490fd5b346101ed576003196040368201126101ed57602435906001600160401b0382116101ed5760c09082360301126101ed576127ba612d8b565b60d0546001600160a01b031633036127f8576127e56040916127da612e45565b600401600435613126565b6001606555825191151582526020820152f35b60405162461bcd60e51b815260206004820152601460248201527343616c6c6572206973206e6f74206f7261636c6560601b6044820152606490fd5b346101ed5760203660031901126101ed5761284d6129ec565b612855612a5f565b6001600160a01b0316801561287c576001600160601b0360a01b60d254161760d255600080f35b60405162461bcd60e51b815260206004820152601a60248201527f496e76616c696420676f7665726e616e636520616464726573730000000000006044820152606490fd5b346101ed5760003660031901126101ed57600060c9546128e081612b00565b8084529060019081811690811561297d5750600114612922575b61291e8461290a81860382612cc3565b6040519182916020835260208301906129c7565b0390f35b60c9600090815292507f66be4f155c5ef2ebd3772b228f2f00681e4ed5826cdb3b1943cc11ad15ad1d285b82841061296557505050810160200161290a826128fa565b8054602085870181019190915290930192810161294d565b60ff191660208087019190915292151560051b8501909201925061290a91508390506128fa565b60005b8381106129b75750506000910152565b81810151838201526020016129a7565b906020916129e0815180928185528580860191016129a4565b601f01601f1916010190565b600435906001600160a01b03821682036101ed57565b9181601f840112156101ed578235916001600160401b0383116101ed57602083818601950101116101ed57565b9181601f840112156101ed578235916001600160401b0383116101ed576020808501948460051b0101116101ed57565b6033546001600160a01b03163303612a7357565b606460405162461bcd60e51b815260206004820152602060248201527f4f776e61626c653a2063616c6c6572206973206e6f7420746865206f776e65726044820152fd5b603380546001600160a01b039283166001600160a01b0319821681179092559091167f8be0079c531659141344cd1fd0a4f28419497f9722a3daafe3b4186f6b6457e0600080a3565b90600182811c92168015612b30575b6020831014612b1a57565b634e487b7160e01b600052602260045260246000fd5b91607f1691612b0f565b818110612b45575050565b60008155600101612b3a565b9190601f8111612b6057505050565b612b8c926000526020600020906020601f840160051c83019310612b8e575b601f0160051c0190612b3a565b565b9091508190612b7f565b15612b9f57565b60405162461bcd60e51b815260206004820152602b60248201527f496e697469616c697a61626c653a20636f6e7472616374206973206e6f74206960448201526a6e697469616c697a696e6760a81b6064820152608490fd5b60001981146115a25760010190565b9190811015612c295760051b81013590609e19813603018212156101ed570190565b634e487b7160e01b600052603260045260246000fd5b903590601e19813603018212156101ed57018035906001600160401b0382116101ed576020019181360383136101ed57565b60a081019081106001600160401b038211176108f557604052565b6101a081019081106001600160401b038211176108f557604052565b604081019081106001600160401b038211176108f557604052565b90601f801991011681019081106001600160401b038211176108f557604052565b9291926001600160401b0382116108f55760405191612d0d601f8201601f191660200184612cc3565b8294818452818301116101ed578281602093846000960137010152565b6001600160401b0381116108f55760051b60200190565b359081151582036101ed57565b908060209392818452848401376000828201840152601f01601f1916010190565b8054821015612c29576000526005602060002091020190600090565b60ff60975416612d9757565b60405162461bcd60e51b815260206004820152601060248201526f14185d5cd8589b194e881c185d5cd95960821b6044820152606490fd5b15612dd657565b60405162461bcd60e51b8152602060048201526015602482015274141bdb1a58de48191bd95cc81b9bdd08195e1a5cdd605a1b6044820152606490fd5b908160209103126101ed575180151581036101ed5790565b919082018092116115a257565b919082039182116115a257565b600260655414612e56576002606555565b60405162461bcd60e51b815260206004820152601f60248201527f5265656e7472616e637947756172643a207265656e7472616e742063616c6c006044820152606490fd5b15612ea257565b60405162461bcd60e51b8152602060048201526011602482015270506f6c696379206e6f742061637469766560781b6044820152606490fd5b15612ee257565b60405162461bcd60e51b8152602060048201526016602482015275141bdb1a58de481b9bdd081cdd185c9d1959081e595d60521b6044820152606490fd5b15612f2757565b60405162461bcd60e51b8152602060048201526012602482015271141bdb1a58de481a185cc8195e1c1a5c995960721b6044820152606490fd5b15612f6857565b60405162461bcd60e51b8152602060048201526014602482015273141bdb1a58de48199d5b1b1e4818db185a5b595960621b6044820152606490fd5b600092918154612fb381612b00565b9260019180831690811561300c5750600114612fd0575b50505050565b90919293945060005260209081600020906000915b858310612ffb5750505050019038808080612fca565b805485840152918301918101612fe5565b60ff1916845250505081151590910201915038808080612fca565b906000929180549161303883612b00565b91828252600193848116908160001461309957506001146130595750505050565b90919394506000526020928360002092846000945b838610613085575050505001019038808080612fca565b80548587018301529401938590820161306e565b9294505050602093945060ff191683830152151560051b01019038808080612fca565b906040516130c981612c71565b6080600482946040516130e7816130e08185613027565b0382612cc3565b8452600181015460208501526002810154604085015260ff600382015416151560608501520154910152565b818102929181159184041417156115a257565b90916000918335835260209060cc825260409181838620540361348b5781855260ca8152828520946006860195865461316160ff8216612e9b565b6131716004830154421015612edb565b6131816005830154421115612f20565b60ff8160081c1615801561347a575b61319990612f61565b85516131a481612c71565b6060815283858201528387820152836060820152836080820152978398845b87865260cb8088528987208054831015613468578a898f9261320c6131eb8761322b93612d6f565b5084516131ff8161103a8782018095612fa4565b5190209483810190612c3f565b9290935183819483830196873781018d83820152038084520182612cc3565b51902014613242575061323d90612bf8565b6131c3565b888761326795969798999a9b9c9d506132619450528852898720612d6f565b506130bc565b9860015b156134195760608a01511561340b5787868b0151910135115b156133ff5760028301549060078401926127106132b285549460806132a98783612e38565b9e015190613113565b049a808c116133f7575b508a156133e95761ff0019166101001790556132d9908990612e2b565b90554260088201556132ed8760cf54612e2b565b60cf5560d154600191909101805486516303efe64760e11b8152600481018790526001600160a01b039182166024820152604481018a905290939192859082906064908290869089165af19182156133de57916133c1575b501561337d57907f54670ec983883d28abb8906cded5e917c55f33799021757df77f04071546be5a929154169351868152a360019190565b845162461bcd60e51b815260048101849052601760248201527f5472656173757279207061796d656e74206661696c65640000000000000000006044820152606490fd5b6133d89150843d8611610ac057610ab28183612cc3565b38613345565b8751903d90823e3d90fd5b505050505094505050508190565b9a50386132bc565b50505094505050508190565b87868b015191013510613284565b875162461bcd60e51b815260048101879052602260248201527f506172616d657465722074797065206e6f7420666f756e6420696e20706f6c69604482015261637960f01b6064820152608490fd5b5050509990919293949596979861326b565b506007820154600283015411613190565b60649083519062461bcd60e51b8252600482015260136024820152720a4cae2eacae6e840928840dad2e6dac2e8c6d606b1b6044820152fd5b90600b6101806040516134d681612c8c565b61358781958054835260018060a01b036001820154166020840152600281015460408401526003810154606084015260048101546080840152600581015460a084015260ff6006820154818116151560c086015260081c16151560e084015260078101546101008401526008810154610120840152600981015461014084015260405161356a816130e081600a8601613027565b6101608401526135806040518096819301613027565b0384612cc3565b0152565b8051821015612c295760209160051b010190565b156135a657565b60405162461bcd60e51b8152602060048201526012602482015271496e76616c69642070657263656e7461676560701b6044820152606490fdfea26469706673582212208e349e3d6aa20f908e21d9544544515ba1d845f0af60567efcc5f8076ad65a3364736f6c634300081300336080806040523461001657612038908161001c8239f35b600080fdfe608080604052600436101561001357600080fd5b60003560e01c9081630b5df63b14611223575080630b884e5f146111b45780630d8e6e2c146110ce5780630e2600161461108957806338437df2146110265780633f4ba83a14610f9257806345d0766414610f0e57806351ca236f14610ecf57806353a15edc14610ea3578063574cfacc14610e1e5780635c975abb14610dfb57806361e6efc714610dd4578063622b6af414610d76578063715018a614610d195780638456cb5914610cbf5780638a355a5714610c7d5780638d54f04a146106255780638da5cb5b146105fc5780638fbddede1461056d5780639819adb314610311578063c98c536014610242578063df314601146101b05763f2fde38b1461011c57600080fd5b346101ab5760203660031901126101ab5761013561131c565b61013d6113e8565b6001600160a01b038116156101575761015590611440565b005b60405162461bcd60e51b815260206004820152602660248201527f4f776e61626c653a206e6577206f776e657220697320746865207a65726f206160448201526564647265737360d01b6064820152608490fd5b600080fd5b346101ab5760203660031901126101ab576101c961131c565b6101d16113e8565b6001600160a01b031680156101fd576bffffffffffffffffffffffff60a01b60ca54161760ca55600080f35b60405162461bcd60e51b815260206004820152601960248201527f496e76616c696420696e737572616e63652061646472657373000000000000006044820152606490fd5b346101ab5760603660031901126101ab576044356024356004356102646113e8565b80151580610305575b61027690611fc2565b81156102c85781831061028e5760cc5560cd5560ce55005b60405162461bcd60e51b815260206004820152601260248201527126b0bc1036bab9ba103132901f1e9036b4b760711b6044820152606490fd5b60405162461bcd60e51b8152602060048201526015602482015274496e76616c6964206d696e20726573706f6e73657360581b6044820152606490fd5b5061271081111561026d565b346101ab5760a03660031901126101ab5761032a61131c565b610332611332565b6001600160a01b039160443583811691908290036101ab576000549360ff8560081c161593848095610560575b8015610549575b156104ed5760ff19808716600190811760005596866104db575b5061039b60ff60005460081c1661039681611521565b611521565b6103a433611440565b6103cf60ff60005460081c166103b981611521565b6103c281611521565b8860655561039681611521565b609754166097556103e160c954611489565b601f811161048f575b50600a640312e302e360dc1b0160c955816bffffffffffffffffffffffff60a01b93168360ca54161760ca556119c860cc55600360cd55600a60ce556201518060cf556107d060d255168160d354161760d35560d454161760d45560643560d55560843560d65561045757005b60207f7f26b83ff96e1f2b6a682f133852f6798a09c465da95921460cefb38474024989161ff001960005416600055604051908152a1005b60c960005286601f7f66be4f155c5ef2ebd3772b228f2f00681e4ed5826cdb3b1943cc11ad15ad1d28920160051c8201915b8281106104cf5750506103ea565b600081550187906104c1565b61ffff19166101011760005587610380565b60405162461bcd60e51b815260206004820152602e60248201527f496e697469616c697a61626c653a20636f6e747261637420697320616c72656160448201526d191e481a5b9a5d1a585b1a5e995960921b6064820152608490fd5b50303b1580156103665750600160ff871614610366565b50600160ff87161061035f565b346101ab5761057b36611375565b94929190936105886113e8565b428510156105be5760206105af94826040519384928337810160d181520301902091611d47565b60009182526020526040902055005b60405162461bcd60e51b815260206004820152601660248201527543616e6e6f742073657420667574757265206461746160501b6044820152606490fd5b346101ab5760003660031901126101ab576033546040516001600160a01b039091168152602090f35b346101ab5760803660031901126101ab576024356001600160401b0381116101ab57610655903690600401611348565b6044356001600160401b0381116101ab57610674903690600401611348565b91606435906001600160401b0382116101ab57366023830112156101ab578160040135946001600160401b0386116109e3578560051b92604051966106bc60208601896113c7565b8752602087019060248295820101903682116101ab57602401915b818310610c5d57505060ca546001600160a01b031633039050610c19576106fc6115f8565b60043515610be0578115610ba2578415610b6c5785519460cd54809610610b275760009460005b88518110156107775760018060a01b0360208260051b8b0101511660005260cb60205260ff60406000205416610762575b61075d90611581565b610723565b9561076f61075d91611581565b969050610754565b5086889610610ae25760405160208101906004358252858560408301376107c4608082868982018188604083016000815237014260408201524460608201520360608101845201826113c7565b519020948560005260d060205260406000209060043582556001600160401b0386116109e357610804866107fb6001850154611489565b600185016114da565b856000601f8211600114610a7457600091610a69575b508660011b906000198860031b1c19161760018301555b6001600160401b0384116109e35760028201610857856108518354611489565b836114da565b846000601f8211600114610a04576000916109f9575b508560011b906000198760031b1c19161790555b4260038301556004820180546001600160a01b03191633179055965160058201976001600160401b0382116109e3576801000000000000000082116109e3578854828a558083106109c5575b509760005260206000209760005b8281106109a85760208989817fa1d140e05da8ffb70d1fe28264b7372073f972f70ee71e0289ac37c64ecfbe008b8b8b600060098d6006810160ff198154169055826008820155015560018060a01b0360d35416151580610994575b610975575b505083604051918783528188840152604083013760006040858301015260408160043595601f80199101168101030190a3604051908152f35b61098c916109843688866115c1565b5036916115c1565b50868061093c565b5060d4546001600160a01b03161515610937565b81516001600160a01b0316818b01556020909101906001016108db565b6109dd908a60005283602060002091820191016114c3565b896108cd565b634e487b7160e01b600052604160045260246000fd5b90508401358a61086d565b60008381526020812092505b601f1988168110610a51575086601f19811610610a37575b5050600185811b019055610881565b850135600019600388901b60f8161c191690558980610a28565b9091602060018192858a013581550193019101610a10565b90508501358961081a565b90506001830160005260206000209060005b601f1989168110610aca575087601f19811610610ab0575b5050600186811b016001830155610831565b860135600019600389901b60f8161c191690558880610a9e565b9091602060018192858b013581550193019101610a86565b60405162461bcd60e51b815260206004820152601c60248201527f496e73756666696369656e742076616c69642070726f766964657273000000006044820152606490fd5b60405162461bcd60e51b815260206004820152601b60248201527f496e73756666696369656e7420646174612070726f76696465727300000000006044820152606490fd5b60405162461bcd60e51b815260206004820152600e60248201526d24b73b30b634b2103932b3b4b7b760911b6044820152606490fd5b60405162461bcd60e51b8152602060048201526016602482015275496e76616c696420706172616d65746572207479706560501b6044820152606490fd5b60405162461bcd60e51b8152602060048201526011602482015270125b9d985b1a59081c1bdb1a58de481251607a1b6044820152606490fd5b606460405162461bcd60e51b815260206004820152602060248201527f43616c6c6572206973206e6f7420696e737572616e636520636f6e74726163746044820152fd5b82356001600160a01b03811681036101ab578152602092830192016106d7565b346101ab5760203660031901126101ab57610c9661131c565b610c9e6113e8565b6001600160a01b0316600090815260cb60205260409020805460ff19169055005b346101ab5760003660031901126101ab57610cd86113e8565b610ce06115f8565b600160ff1960975416176097557f62e78cea01bee320cd4e420270b5ea74000d11b0c9f74754ebdbfc544b05a2586020604051338152a1005b346101ab5760003660031901126101ab57610d326113e8565b603380546001600160a01b031981169091556000906001600160a01b03167f8be0079c531659141344cd1fd0a4f28419497f9722a3daafe3b4186f6b6457e08280a3005b346101ab5760203660031901126101ab57600435610d926113e8565b8015610d9d5760cf55005b60405162461bcd60e51b815260206004820152600f60248201526e125b9d985b1a59081d1a5b595bdd5d608a1b6044820152606490fd5b346101ab576020610df3610de736611375565b94939093929192611d60565b604051908152f35b346101ab5760003660031901126101ab57602060ff609754166040519015158152f35b346101ab5760603660031901126101ab576001600160401b036004358181116101ab57610e4f903690600401611348565b916024359081116101ab57610e8a92610e6e6020923690600401611348565b929093826040519384928337810160d181520301902091611d47565b6044356000526020526020604060002054604051908152f35b346101ab5760203660031901126101ab57600435610ebf6113e8565b610eca811515611fc2565b60d255005b346101ab5760203660031901126101ab576001600160a01b03610ef061131c565b1660005260cb602052602060ff604060002054166040519015158152f35b346101ab5760203660031901126101ab5760043560005260d06020526040600020600381015415610f80578060ff600660609301541690610f646008600983015492015491821515600014610f78578290611649565b604051921515835260208301526040820152f35b600190611649565b604051632589d98f60e11b8152600490fd5b346101ab5760003660031901126101ab57610fab6113e8565b60975460ff811615610fea5760ff19166097557f5db9ee0a495bf2e6ff9c91a7834c1ba4fdd244a5e8aa4e537bd38aeae4b073aa6020604051338152a1005b60405162461bcd60e51b815260206004820152601460248201527314185d5cd8589b194e881b9bdd081c185d5cd95960621b6044820152606490fd5b346101ab5760803660031901126101ab5761103f61131c565b611047611332565b61104f6113e8565b60d380546001600160a01b039384166001600160a01b03199182161790915560d4805492909316911617905560443560d55560643560d655005b346101ab5760203660031901126101ab576110a261131c565b6110aa6113e8565b6001600160a01b0316600090815260cb60205260409020805460ff19166001179055005b346101ab5760003660031901126101ab57604051600060c9546110f081611489565b8084529060019081811690811561118d5750600114611132575b61112e8461111a818603826113c7565b6040519182916020835260208301906112dc565b0390f35b60c9600090815292507f66be4f155c5ef2ebd3772b228f2f00681e4ed5826cdb3b1943cc11ad15ad1d285b82841061117557505050810160200161111a8261110a565b8054602085870181019190915290930192810161115d565b60ff191660208087019190915292151560051b8501909201925061111a915083905061110a565b346101ab576111c2366112c6565b908060005260d0602052604060002091600383015415610f805760ff6006840154166112115761120a600984600861015596016111ff8154611581565b905501918254611669565b90556118cc565b60405163533d99dd60e01b8152600490fd5b346101ab57611231366112c6565b90913360005260cb60205260ff60406000205416156112b757506112536115f8565b6002606554146112725761126b916002606555611676565b6001606555005b60405162461bcd60e51b815260206004820152601f60248201527f5265656e7472616e637947756172643a207265656e7472616e742063616c6c006044820152606490fd5b63f14cc2cd60e01b8152600490fd5b60409060031901126101ab576004359060243590565b919082519283825260005b848110611308575050826000602080949584010152601f8019910116010190565b6020818301810151848301820152016112e7565b600435906001600160a01b03821682036101ab57565b602435906001600160a01b03821682036101ab57565b9181601f840112156101ab578235916001600160401b0383116101ab57602083818601950101116101ab57565b60806003198201126101ab576001600160401b03916004358381116101ab57826113a191600401611348565b939093926024359182116101ab576113bb91600401611348565b90916044359060643590565b90601f801991011681019081106001600160401b038211176109e357604052565b6033546001600160a01b031633036113fc57565b606460405162461bcd60e51b815260206004820152602060248201527f4f776e61626c653a2063616c6c6572206973206e6f7420746865206f776e65726044820152fd5b603380546001600160a01b039283166001600160a01b0319821681179092559091167f8be0079c531659141344cd1fd0a4f28419497f9722a3daafe3b4186f6b6457e0600080a3565b90600182811c921680156114b9575b60208310146114a357565b634e487b7160e01b600052602260045260246000fd5b91607f1691611498565b8181106114ce575050565b600081556001016114c3565b9190601f81116114e957505050565b611515926000526020600020906020601f840160051c83019310611517575b601f0160051c01906114c3565b565b9091508190611508565b1561152857565b60405162461bcd60e51b815260206004820152602b60248201527f496e697469616c697a61626c653a20636f6e7472616374206973206e6f74206960448201526a6e697469616c697a696e6760a81b6064820152608490fd5b60001981146115905760010190565b634e487b7160e01b600052601160045260246000fd5b6001600160401b0381116109e357601f01601f191660200190565b9291926115cd826115a6565b916115db60405193846113c7565b8294818452818301116101ab578281602093846000960137010152565b60ff6097541661160457565b60405162461bcd60e51b815260206004820152601060248201526f14185d5cd8589b194e881c185d5cd95960821b6044820152606490fd5b9190820391821161159057565b8115611653570490565b634e487b7160e01b600052601260045260246000fd5b9190820180921161159057565b9060009082825260209060d082526040808420926003840154156118bb5760ff6006850154166118aa578485600586018054915b828110611876575b5050501561186557338552600784019052808420805460ff811661185c5760019060ff1916179055600883019260016116eb8554611581565b80865511156118165760090193845493546000198101908111611802576117129085611649565b90818411156117ca57611725828561163c565b90612710918281029281840414901517156117b657509161174e87969492611515989694611649565b60d2541015611762575b50505050506118cc565b7fead800841ff2c8a9c38239f21123bc22676bcd70d0c8f5a6bae488bfd17494b693611791836117a995611669565b90555133815260208101919091529081906040820190565b0390a28038808080611758565b634e487b7160e01b81526011600452602490fd5b6117d4848361163c565b90612710918281029281840414901517156117b65750916117fd87969492611515989694611649565b61174e565b634e487b7160e01b82526011600452602482fd5b6009018290555133815260208101919091526115159392508291507fead800841ff2c8a9c38239f21123bc22676bcd70d0c8f5a6bae488bfd17494b690604090a26118cc565b50505050505050565b815163f14cc2cd60e01b8152600490fd5b8189528489208101546001600160a01b0316331461189c5761189790611581565b6116aa565b5050505060013880806116b2565b815163533d99dd60e01b8152600490fd5b8151632589d98f60e11b8152600490fd5b600090808252602060d0815260409081842091600883015460cd548110159060ce54811091612710808302908382041483151715611d3357600587015461191291611649565b60cc5411159260038701549361192a60cf5486611669565b42119083611d07575b5050506119435750505050505050565b611951906009860154611649565b906002850191835185818a86549661196888611489565b906001988981169081600014611cf05750600114611cba575b505060d1815203019020918387019286865180928c9087546119a281611489565b908a8116908115611ca55750600114611c6f575b5081520301902090895285528084892055600686019260ff19938185825416179055877f91bbeb6693b54ed164984d080403adc3d9ef9e7712a54536723a61de8084ab90878751858152a28451928887850152828685015285845260608401946001600160401b039285871084881117611beb57610120860187811085821117611c5b5788528a875287519283918d9180548c611a5282611489565b80875296828516928315611c3b57505050600114611bff575b5050611a79925003826113c7565b6080840190815260a0840192835260c08401904282528651928784019084821090821117611beb57611b7e89611b708e9995988a9998611b5e8f998c9b8f988d9a611b3c918b52601884527f4167726f436861696e204f7261636c65204e6574776f726b00000000000000008985015260e08701938452610100870196875260018060a01b0360ca54169d549c8b519b8c9a8b019e8f6304b0314d60e21b905260248c015260448b01525160648a01525160c060848a01526101248901906112dc565b935160a48801525160c4870152519160631992838783030160e48801526112dc565b915190848303016101048501526112dc565b03601f1981018352826113c7565b51925af1923d15611be3573d611b9f611b96826115a6565b945194856113c7565b83523d92013e5b15611bb5575b8080808061185c565b7ff8c83205af6c2b9b674433dcc83812240c38b4ace2fe5e2590990740ee45f19f90549280a3388080611bac565b505050611ba6565b634e487b7160e01b8c52604160045260248cfd5b8b9250908e9182528282205b858310611c23575050611a7993508201013880611a6b565b80548388018501528694508c93909201918101611c0b565b925092509350611a799592501682840152151560051b8201013880611a6b565b634e487b7160e01b8d52604160045260248dfd5b909150878e528d898582205b838310611c8e57505050820190386119b6565b8054888401528d96889650909201918b9101611c7b565b60ff19168552508015150283019150386119b6565b9091508c52828c20878d915b838310611cd95750505081013880611981565b8054878401528b9587955090920191899101611cc6565b60ff19168552505080151502820190503880611981565b821593509091611d2b575b508115611d23575b50388080611933565b905038611d1a565b915038611d12565b634e487b7160e01b89526011600452602489fd5b6020919283604051948593843782019081520301902090565b9095919594939485851115611f8857428511611f43576000938493859688975b8189111580611f39575b15611e00576040805186888237611db38d87838a810160d1815260209586910301902091611d47565b908b600052526000205480611de1575b50611dcd90611581565b976201518081018091116115905797611d80565b611df3611df991611dcd93999a611669565b98611581565b9690611dc3565b50929394965097969094968615611e31575b5050505050508015611e2a57611e2791611649565b90565b5050600090565b611ebf90611e4b611e42848661163c565b60011c84611669565b9660409586519481898737611e718683810160d181526020988991030190208486611d47565b906000528552866000205498611e9a8851838b8237878185810160d18152030190208486611d47565b906000528552848760002054988289519384928337810160d181520301902091611d47565b9160005252600020549180611f1d575b5080611f01575b5080611ee7575b8080808080611e12565b611ef590611efb9293611669565b91611581565b38611edd565b611f1090611f16929394611669565b92611581565b9038611ed6565b611f2c90611f32929495611669565b93611581565b9138611ecf565b50601e8110611d8a565b60405162461bcd60e51b815260206004820152601960248201527f4675747572652074696d65206e6f7420617661696c61626c65000000000000006044820152606490fd5b60405162461bcd60e51b8152602060048201526012602482015271496e76616c69642074696d652072616e676560701b6044820152606490fd5b15611fc957565b60405162461bcd60e51b8152602060048201526011602482015270125b9d985b1a59081d1a1c995cda1bdb19607a1b6044820152606490fdfea26469706673582212203149c80df7f6cd9e2c454ad6b81250e0c29831f57f61384fc1fc7ea08e8afa9e64736f6c634300081300336101608060405234620000a2576060620043fb80380380916200002282620000bd565b843912620000a257516001600160a01b0381168103620000a2576200005090610180516101a051916200024e565b604051612fa5908162001416823960805181612612015260a051816126cd015260c051816125dc015260e051816126610152610100518161268701526101205181610c1e01526101405181610c470152f35b600080fd5b634e487b7160e01b600052604160045260246000fd5b601f01601f1916610160908101906001600160401b03821190821017620000e357604052565b620000a7565b604081019081106001600160401b03821117620000e357604052565b604051906200011482620000e9565b565b604051906200012582620000e9565b60048252565b604051906200013a82620000e9565b60018252565b604051906200014f82620000e9565b600982526820b3b937a1b430b4b760b91b6020830152565b156200016f57565b60405162461bcd60e51b815260206004820152601f60248201527f547265617375727920616464726573732063616e6e6f74206265207a65726f006044820152606490fd5b15620001bc57565b60405162461bcd60e51b815260206004820152601460248201527f436170206d75737420626520706f7369746976650000000000000000000000006044820152606490fd5b156200020957565b60405162461bcd60e51b815260206004820152601a60248201527f496e697469616c20737570706c792065786365656473206361700000000000006044820152606490fd5b9291926200025b62000140565b936200026662000140565b946200027162000116565b906020634147524f60e01b818401526200028a6200012b565b603160f81b828201908152895190999194916001600160401b038211620000e357620002c382620002bd60035462000459565b62000496565b8390601f8311600114620003bc5792826200038f989795936200030c93620001149d9e9896600092620003b0575b50508160011b916000199060031b1c191617600355620005fa565b6200031733620006ed565b620003228262000736565b61012052620003318362000849565b61014052815191012060e052519020610100524660a05262000352620009fa565b6080523060c0526200036f6001600160a01b038416151562000167565b6200037c811515620001b4565b6200038a8185111562000201565b601155565b601280546001600160a01b0319166001600160a01b03831617905562000acc565b015190503880620002f1565b6003600052601f19831691907fc2575a0e9e593c00f959f8c92f12db2869c3395a3b0502d05e2516446f71f85b9260005b818110620004415750936200030c93620001149d9e989693600193836200038f9d9c9a981062000427575b505050811b01600355620005fa565b015160001960f88460031b161c1916905538808062000418565b929387600181928786015181550195019301620003ed565b90600182811c921680156200048b575b60208310146200047557565b634e487b7160e01b600052602260045260246000fd5b91607f169162000469565b601f8111620004a3575050565b6000906003825260208220906020601f850160051c83019410620004e4575b601f0160051c01915b828110620004d857505050565b818155600101620004cb565b9092508290620004c2565b601f8111620004fc575050565b6000906004825260208220906020601f850160051c830194106200053d575b601f0160051c01915b8281106200053157505050565b81815560010162000524565b90925082906200051b565b601f811162000555575050565b600090600a825260208220906020601f850160051c8301941062000596575b601f0160051c01915b8281106200058a57505050565b8181556001016200057d565b909250829062000574565b601f8111620005ae575050565b600090600b825260208220906020601f850160051c83019410620005ef575b601f0160051c01915b828110620005e357505050565b818155600101620005d6565b9092508290620005cd565b80519091906001600160401b038111620000e35762000626816200062060045462000459565b620004ef565b602080601f831160011462000665575081929360009262000659575b50508160011b916000199060031b1c191617600455565b01519050388062000642565b6004600052601f198316949091907f8a35acfbc15ff81a39ae7d344fd709f28e8600b4aa8c65c6b64bfe7fe36bd19b926000905b878210620006d4575050836001959610620006ba575b505050811b01600455565b015160001960f88460031b161c19169055388080620006af565b8060018596829496860151815501950193019062000699565b600980546001600160a01b039283166001600160a01b0319821681179092559091167f8be0079c531659141344cd1fd0a4f28419497f9722a3daafe3b4186f6b6457e0600080a3565b9081516020808210600014620007575750509062000754906200097d565b90565b6001600160401b038211620000e3576200077e8262000778600a5462000459565b62000548565b80601f8311600114620007be5750819293600092620007b2575b50508160011b916000199060031b1c191617600a5560ff90565b01519050388062000798565b600a600052601f198316949091907fc65a7bb8d6351c1cf70c95a316cc6a92839c986682d98bc35f958f4883f9d2a8926000905b8782106200083057505083600195961062000816575b505050811b01600a5560ff90565b015160001960f88460031b161c1916905538808062000808565b80600185968294968601518155019501930190620007f2565b9081516020808210600014620008675750509062000754906200097d565b6001600160401b038211620000e3576200088e8262000888600b5462000459565b620005a1565b80601f8311600114620008ce5750819293600092620008c2575b50508160011b916000199060031b1c191617600b5560ff90565b015190503880620008a8565b600b600052601f198316949091907f0175b7a638427703f0dbe7bb9bbf987a2551717b34e79f33b5b1008d1fa01db9926000905b8782106200094057505083600195961062000926575b505050811b01600b5560ff90565b015160001960f88460031b161c1916905538808062000918565b8060018596829496860151815501950193019062000902565b6020815191015190602081106200096e575090565b6000199060200360031b1b1690565b601f8151116200099857620009928162000959565b90511790565b6040519063305a27a960e01b82528160208060048301528251908160248401526000935b828510620009e0575050604492506000838284010152601f80199101168101030190fd5b8481018201518686016044015293810193859350620009bc565b60e051610100516040519060208201927f8b73c3c69bb8fe3d512ecc4cf759cc79239f7b179b0ffacaa9a75d522b39400f8452604083015260608201524660808201523060a082015260a0815260c0810181811060018060401b03821117620000e35760405251902090565b1562000a6e57565b60405162461bcd60e51b815260206004820152603060248201527f4552433230566f7465733a20746f74616c20737570706c79207269736b73206f60448201526f766572666c6f77696e6720766f74657360801b6064820152608490fd5b6001600160a01b0381169190821562000c5e57826000526005602052604060002060006020526040600020546008548062000b0784620012c4565b1062000c3b575b505050600254600854908162000b2362001293565b1062000bbd575b50508162000b9b9162000bb99462000b4e62000b498460025462000cb9565b600255565b6001600160a01b038216600090815260208181526040808320805487019055518581527fddf252ad1be2c89b69c2b068fc378daa952ba7f163c4a11628f55a4df523b3ef9190a3620012eb565b60025462000bb3906001600160e01b03101562000a66565b62000e3a565b5050565b9091600654680100000000000000009384821015620000e35762000bec82600162000c05940160065562000d02565b90919082549060031b91821b91600019901b1916179055565b60075492831015620000e35762000bb99462000c32859362000bec86600162000b9b980160075562000d34565b94509162000b2a565b8262000c4e60019262000c559562001267565b0162001267565b38808062000b0e565b60405162461bcd60e51b815260206004820152601f60248201527f45524332303a206d696e7420746f20746865207a65726f2061646472657373006044820152606490fd5b634e487b7160e01b600052601160045260246000fd5b9190820180921162000cc757565b62000ca3565b604080519192919081016001600160401b03811182821017620000e357604052602081935463ffffffff81168352811c910152565b60065481101562000d1e57600660005260206000200190600090565b634e487b7160e01b600052603260045260246000fd5b60075481101562000d1e57600760005260206000200190600090565b805482101562000d1e5760005260206000200190600090565b6010549068010000000000000000821015620000e357600182018060105582101562000d1e576010600052805160209182015190911b63ffffffff191663ffffffff91909116177f1b6847dc741a1b0cd08d278845f9d819d87b734759afb55fe2de5cb82a9ae67290910155565b805468010000000000000000811015620000e35762000dfc9160018201815562000d50565b62000e2457815160209283015190921b63ffffffff191663ffffffff92909216919091179055565b634e487b7160e01b600052600060045260246000fd5b6010549091811591821562000f715762000e5362000105565b60008152600060208201525b602081015162000e8c9062000e84906001600160e01b03165b6001600160e01b031690565b9586620013f9565b9315908162000f4a575b501562000ee257620001149062000ecb62000eb1856200112f565b601060005291600080516020620043bb8339815191520190565b9063ffffffff82549181199060201b169116179055565b506200011462000f0b62000f0562000efa4362001199565b65ffffffffffff1690565b62001201565b62000f4462000f1a856200112f565b62000f3462000f2862000105565b63ffffffff9094168452565b6001600160e01b03166020830152565b62000d69565b5163ffffffff16905063ffffffff62000f6762000efa4362001199565b9116143862000e96565b601060005262000f98600080516020620043bb833981519152820162000ccd565b62000ccd565b62000e5f565b909181549182159283600014620010a25762000fb962000105565b60008152600060208201525b602081015162000feb9062000fe3906001600160e01b031662000e78565b968762001407565b941590816200107b575b5015620010225762000ecb620001149262001010866200112f565b92600019019060005260206000200190565b5062000114906200103b62000f0562000efa4362001199565b90620010756200104b866200112f565b620010656200105962000105565b63ffffffff9095168552565b6001600160e01b03166020840152565b62000dd7565b5163ffffffff16905063ffffffff6200109862000efa4362001199565b9116143862000ff5565b620010bc62000f9260001983018460005260206000200190565b62000fc5565b9091815491821592836000146200110f57620010dd62000105565b60008152600060208201525b602081015162000feb9062001107906001600160e01b031662000e78565b9687620013f9565b6200112962000f9260001983018460005260206000200190565b620010e9565b6001600160e01b039081811162001144571690565b60405162461bcd60e51b815260206004820152602760248201527f53616665436173743a2076616c756520646f65736e27742066697420696e20326044820152663234206269747360c81b6064820152608490fd5b65ffffffffffff90818111620011ad571690565b60405162461bcd60e51b815260206004820152602660248201527f53616665436173743a2076616c756520646f65736e27742066697420696e203460448201526538206269747360d01b6064820152608490fd5b63ffffffff9081811162001213571690565b60405162461bcd60e51b815260206004820152602660248201527f53616665436173743a2076616c756520646f65736e27742066697420696e203360448201526532206269747360d01b6064820152608490fd5b9081549168010000000000000000831015620000e3578262000bec916001620001149501815562000d50565b60065480620012a25750600090565b600019810190811162000cc757620012ba9062000d02565b90549060031b1c90565b805480620012d3575050600090565b600019810190811162000cc757620012ba9162000d50565b600e6020527fe710864318d4a32f37d6ce54cb3fadbef648dd12d8dbdf53973564d56b7f881c546001600160a01b039182166000908152604081205483169392909116908184141580620013ef575b62001346575b50505050565b829082620013ae575b5050508162001361575b808062001340565b6001600160a01b0382166000908152600f60205260409020600080516020620043db833981519152916200139591620010c2565b60408051928352602083019190915290a2388062001359565b600080516020620043db8339815191529160408285620013d59452600f6020522062000f9e565b60408051928352602083019190915290a23881816200134f565b508215156200133a565b90810180911162000cc75790565b90810390811162000cc7579056fe6080604052600436101561001257600080fd5b60003560e01c806306fdde0314610267578063095ea7b31461026257806318160ddd1461025d57806323b872dd14610258578063313ce56714610253578063355274ea1461024e5780633644e5151461024957806339509351146102445780633a46b1a81461023f57806340c10f191461023a57806342966c68146102355780634bf5d7e9146102305780634ee2cd7e1461022b578063587cde1e146102265780635c19a95c1461022157806361d027b31461021c5780636fcfff451461021757806370a0823114610212578063715018a61461020d57806379cc6790146102085780637ecebe001461020357806384b0196e146101fe5780638da5cb5b146101f95780638e539e8c146101f457806391ddadf4146101ef57806395d89b41146101ea5780639711715a146101e5578063981b24d0146101e05780639ab24eb0146101db578063a457c2d7146101d6578063a9059cbb146101d1578063c3cda520146101cc578063d505accf146101c7578063dd62ed3e146101c2578063f0f44260146101bd578063f1127ed8146101b85763f2fde38b146101b357600080fd5b6114ad565b611426565b611399565b611341565b6111fb565b6110d0565b61108a565b610fd0565b610f6e565b610f36565b610ee7565b610e40565b610e14565b610d24565b610cfb565b610c03565b610bc9565b610b0c565b610aae565b610a74565b610a2c565b610a03565b6109e1565b6109a6565b610949565b610897565b6107b4565b610663565b610512565b6104ba565b610497565b610479565b61045d565b610425565b610407565b6103d6565b6102c0565b919082519283825260005b848110610298575050826000602080949584010152601f8019910116010190565b602081830181015184830182015201610277565b9060206102bd92818152019061026c565b90565b346103a5576000806003193601126103a25760405190806003546102e3816115c9565b80855291600191808316908115610378575060011461031d575b6103198561030d81870382611672565b604051918291826102ac565b0390f35b9250600383527fc2575a0e9e593c00f959f8c92f12db2869c3395a3b0502d05e2516446f71f85b5b82841061036057505050810160200161030d826103196102fd565b80546020858701810191909152909301928101610345565b8695506103199693506020925061030d94915060ff191682840152151560051b82010192936102fd565b80fd5b600080fd5b600435906001600160a01b03821682036103a557565b602435906001600160a01b03821682036103a557565b346103a55760403660031901126103a5576103fc6103f26103aa565b602435903361187e565b602060405160018152f35b346103a55760003660031901126103a5576020600254604051908152f35b346103a55760603660031901126103a5576103fc6104416103aa565b6104496103c0565b604435916104588333836119ae565b611778565b346103a55760003660031901126103a557602060405160128152f35b346103a55760003660031901126103a5576020601154604051908152f35b346103a55760003660031901126103a55760206104b26125d9565b604051908152f35b346103a55760403660031901126103a5576104d36103aa565b3360009081526001602090815260408083206001600160a01b0385168452909152902054602435810180911161050d576103fc913361187e565b611694565b346103a55760403660031901126103a55761052b6103aa565b6024359061054a65ffffffffffff61054243612abc565b168310611c6a565b6001600160a01b03166000908152600f6020526040812080549290918360058111610612575b50905b8382106105c15750508161059a575050602060005b6040516001600160e01b039091168152f35b6105b56105bc91602093600019019060005260206000200190565b5460201c90565b610588565b90926105cd81856128ec565b908263ffffffff6105f26105e8858860005260206000200190565b5463ffffffff1690565b1611156106025750925b90610573565b935061060d906116aa565b6105fc565b8061062261062892969396612901565b90611cc5565b908263ffffffff6106436105e8858860005260206000200190565b1611156106535750925b38610570565b935061065e906116aa565b61064d565b346103a55760403660031901126103a55761067c6103aa565b602435610687611571565b60025481810180911161050d576011541061076f576001600160a01b03821691821561072a578181610728946106bf61070d94612b88565b6106d36106ce846002546116b8565b600255565b6001600160a01b03821660009081526020818152604080832080548701905551858152600080516020612f508339815191529190a3612dae565b600254610723906001600160e01b031015612e79565b612069565b005b60405162461bcd60e51b815260206004820152601f60248201527f45524332303a206d696e7420746f20746865207a65726f2061646472657373006044820152606490fd5b60405162461bcd60e51b815260206004820152601960248201527f45524332304361707065643a20636170206578636565646564000000000000006044820152606490fd5b346103a55760203660031901126103a557600435331561084857610728906107db33612b99565b3360009081526020819052604090208190546107f982821015612ede565b336000908152602081905260409020919003905561081a8160025403600255565b6040518181526000903390600080516020612f5083398151915290602090a36108438133612df9565b612159565b60405162461bcd60e51b815260206004820152602160248201527f45524332303a206275726e2066726f6d20746865207a65726f206164647265736044820152607360f81b6064820152608490fd5b346103a55760003660031901126103a5574365ffffffffffff6108b943612abc565b1603610904576103196040516108ce81611619565b601d81527f6d6f64653d626c6f636b6e756d6265722666726f6d3d64656661756c740000006020820152604051918291826102ac565b60405162461bcd60e51b815260206004820152601d60248201527f4552433230566f7465733a2062726f6b656e20636c6f636b206d6f64650000006044820152606490fd5b346103a55760403660031901126103a55760206001600160a01b0361096c6103aa565b1660008181526005835261098560408220602435611bff565b929015610996575050604051908152f35b60409250815280835220546104b2565b346103a55760203660031901126103a55760206001600160a01b03806109ca6103aa565b16600052600e825260406000205416604051908152f35b346103a55760203660031901126103a5576107286109fd6103aa565b33611d1e565b346103a55760003660031901126103a5576012546040516001600160a01b039091168152602090f35b346103a55760203660031901126103a5576001600160a01b03610a4d6103aa565b16600052600f6020526020610a66604060002054612b23565b63ffffffff60405191168152f35b346103a55760203660031901126103a5576001600160a01b03610a956103aa565b1660005260006020526020604060002054604051908152f35b346103a5576000806003193601126103a257610ac8611571565b600980546001600160a01b0319811690915581906001600160a01b03167f8be0079c531659141344cd1fd0a4f28419497f9722a3daafe3b4186f6b6457e08280a380f35b346103a55760403660031901126103a557610b256103aa565b602435610b338133846119ae565b6001600160a01b038216918215610848578181600061072895610b5861084395612b99565b6001600160a01b0383166000908152602081905260409020849054610b7f82821015612ede565b03610b9c8460018060a01b03166000526000602052604060002090565b55610baa8460025403600255565b604051848152600080516020612f5083398151915290602090a3612df9565b346103a55760203660031901126103a5576001600160a01b03610bea6103aa565b16600052600c6020526020604060002054604051908152f35b346103a5576000806003193601126103a257610cad90610c427f0000000000000000000000000000000000000000000000000000000000000000612719565b610c6b7f0000000000000000000000000000000000000000000000000000000000000000612812565b9160405191610c798361163a565b818352604051948594600f60f81b8652610c9f60209360e08589015260e088019061026c565b90868203604088015261026c565b904660608601523060808601528260a086015284820360c08601528080855193848152019401925b828110610ce457505050500390f35b835185528695509381019392810192600101610cd5565b346103a55760003660031901126103a5576009546040516001600160a01b039091168152602090f35b346103a55760203660031901126103a557600435610d5365ffffffffffff610d4b43612abc565b168210611c6a565b6010549060008260058111610dd1575b50905b828210610d92578280610d80575060405160008152602090f35b6105bc6105b56020926000190161226b565b9091610d9e81846128ec565b908263ffffffff610db16105e88561226b565b161115610dc15750915b90610d66565b9250610dcc906116aa565b610dbb565b80610622610de192959395612901565b908263ffffffff610df46105e88561226b565b161115610e045750915b38610d63565b9250610e0f906116aa565b610dfe565b346103a55760003660031901126103a5576020610e3043612abc565b65ffffffffffff60405191168152f35b346103a5576000806003193601126103a2576040519080600454610e63816115c9565b808552916001918083169081156103785750600114610e8c576103198561030d81870382611672565b9250600483527f8a35acfbc15ff81a39ae7d344fd709f28e8600b4aa8c65c6b64bfe7fe36bd19b5b828410610ecf57505050810160200161030d826103196102fd565b80546020858701810191909152909301928101610eb4565b346103a55760003660031901126103a557610f00611571565b7f8030e83b04d87bef53480e26263266d6ca66863aa8506aca6f2559d18aa1cb67602060016008540180600855604051908152a1005b346103a55760203660031901126103a557610f52600435611b7b565b9015610f6357602090604051908152f35b5060206002546104b2565b346103a55760203660031901126103a5576001600160a01b03610f8f6103aa565b16600052600f602052604060002080548015600014610fb657505060405160008152602090f35b602091610fc7916000190190611b63565b5054811c610588565b346103a55760403660031901126103a557610fe96103aa565b602435903360005260016020526110168160406000209060018060a01b0316600052602052604060002090565b54918083106110375761102b9203903361187e565b60405160018152602090f35b60405162461bcd60e51b815260206004820152602560248201527f45524332303a2064656372656173656420616c6c6f77616e63652062656c6f77604482015264207a65726f60d81b6064820152608490fd5b346103a55760403660031901126103a5576103fc6110a66103aa565b6024359033611778565b6064359060ff821682036103a557565b6084359060ff821682036103a557565b346103a55760c03660031901126103a5576110e96103aa565b604435906024356110f86110b0565b928042116111b6576111886111b1916107289560405190611170826111626020820195898b8860609194939260808201957fe48329057bfd03d55e49b547132e39cffd9c1820ad7b9d4c5307691425d15adf835260018060a01b0316602083015260408201520152565b03601f198101845283611672565b61118360a43593608435935190206126f3565b6123f3565b6001600160a01b0381166000908152600c60205260409020805460018101909155909214611cd2565b611d1e565b60405162461bcd60e51b815260206004820152601d60248201527f4552433230566f7465733a207369676e617475726520657870697265640000006044820152606490fd5b346103a55760e03660031901126103a5576112146103aa565b61121c6103c0565b604435906064359261122c6110c0565b938042116112fc576112e46112f791611162610728976112d161126a8760018060a01b0316600052600c602052604060002090815491600183019055565b604080517f6e71edae12b1b97f4d1f60370fef10105fa2faae0126114a169c64845d6126c9602082019081526001600160a01b03808c1693830193909352918b166060820152608081018c905260a081019290925260c082019590955292839060e0820190565b61118360c4359360a435935190206126f3565b6001600160a01b03838116911614611a47565b61187e565b60405162461bcd60e51b815260206004820152601d60248201527f45524332305065726d69743a206578706972656420646561646c696e650000006044820152606490fd5b346103a55760403660031901126103a557602061139061135f6103aa565b6113676103c0565b6001600160a01b0391821660009081526001855260408082209290931681526020919091522090565b54604051908152f35b346103a55760203660031901126103a5576113b26103aa565b6113ba611571565b6001600160a01b031680156113e1576001600160601b0360a01b6012541617601255600080f35b60405162461bcd60e51b815260206004820152601f60248201527f547265617375727920616464726573732063616e6e6f74206265207a65726f006044820152606490fd5b346103a55760403660031901126103a55761143f6103aa565b63ffffffff60243581811681036103a55761148961148f9160409460006020875161146981611619565b82815201526001600160a01b03166000908152600f602052859020611b63565b50611c48565b8251815190921682526020908101516001600160e01b031690820152f35b346103a55760203660031901126103a5576114c66103aa565b6114ce611571565b6001600160a01b0390811690811561151d57600954826001600160601b0360a01b821617600955167f8be0079c531659141344cd1fd0a4f28419497f9722a3daafe3b4186f6b6457e0600080a3005b60405162461bcd60e51b815260206004820152602660248201527f4f776e61626c653a206e6577206f776e657220697320746865207a65726f206160448201526564647265737360d01b6064820152608490fd5b6009546001600160a01b0316330361158557565b606460405162461bcd60e51b815260206004820152602060248201527f4f776e61626c653a2063616c6c6572206973206e6f7420746865206f776e65726044820152fd5b90600182811c921680156115f9575b60208310146115e357565b634e487b7160e01b600052602260045260246000fd5b91607f16916115d8565b634e487b7160e01b600052604160045260246000fd5b6040810190811067ffffffffffffffff82111761163557604052565b611603565b6020810190811067ffffffffffffffff82111761163557604052565b60c0810190811067ffffffffffffffff82111761163557604052565b90601f8019910116810190811067ffffffffffffffff82111761163557604052565b634e487b7160e01b600052601160045260246000fd5b906001820180921161050d57565b9190820180921161050d57565b156116cc57565b60405162461bcd60e51b815260206004820152602360248201527f45524332303a207472616e7366657220746f20746865207a65726f206164647260448201526265737360e81b6064820152608490fd5b1561172457565b60405162461bcd60e51b815260206004820152602660248201527f45524332303a207472616e7366657220616d6f756e7420657863656564732062604482015265616c616e636560d01b6064820152608490fd5b6001600160a01b03929190838116801561182b576118299483169061179e8215156116c5565b6117a88484612c31565b6001600160a01b03831660009081526020819052604090208590546117cf8282101561171d565b036117ec8460018060a01b03166000526000602052604060002090565b556001600160a01b038416600090815260208181526040918290208054880190559051868152600080516020612f508339815191529190a3612e47565b565b60405162461bcd60e51b815260206004820152602560248201527f45524332303a207472616e736665722066726f6d20746865207a65726f206164604482015264647265737360d81b6064820152608490fd5b6001600160a01b03808216929190831561195d57821693841561190d57806118f77f8c5be1e5ebec7d5bd14f71427d1e84f3dd0314c0f7b2291e5b200ac8c7c3b925946118e06119089560018060a01b03166000526001602052604060002090565b9060018060a01b0316600052602052604060002090565b556040519081529081906020820190565b0390a3565b60405162461bcd60e51b815260206004820152602260248201527f45524332303a20617070726f766520746f20746865207a65726f206164647265604482015261737360f01b6064820152608490fd5b60405162461bcd60e51b8152602060048201526024808201527f45524332303a20617070726f76652066726f6d20746865207a65726f206164646044820152637265737360e01b6064820152608490fd5b6001600160a01b0380821660009081526001602090815260408083209386168352929052209091905492600184016119e7575b50505050565b808410611a02576119f993039161187e565b388080806119e1565b60405162461bcd60e51b815260206004820152601d60248201527f45524332303a20696e73756666696369656e7420616c6c6f77616e63650000006044820152606490fd5b15611a4e57565b60405162461bcd60e51b815260206004820152601e60248201527f45524332305065726d69743a20696e76616c6964207369676e617475726500006044820152606490fd5b15611a9a57565b60405162461bcd60e51b815260206004820152601d60248201527f4552433230536e617073686f743a206e6f6e6578697374656e742069640000006044820152606490fd5b600754811015611b165760076000527fa66cc928b5edb82af9bd49922954155ab7b0942694bea4ce44661d9a8736c6880190600090565b634e487b7160e01b600052603260045260246000fd5b600654811015611b165760066000527ff652222313e28459528d920b65115c16c04f3efc82aaedc97be59f3f377c0d3f0190600090565b8054821015611b165760005260206000200190600090565b8015611bc157611b9890611b93600854821115611a93565b612295565b6006548103611baa5750600090600090565b611bb390611adf565b90549060031b1c9060019190565b60405162461bcd60e51b815260206004820152601660248201527504552433230536e617073686f743a20696420697320360541b6044820152606490fd5b8015611bc157611c1d90611c17600854821115611a93565b82612364565b81548103611c2f575050600090600090565b6001611bb39201611b63565b6040519061182982611619565b90604051611c5581611619565b602081935463ffffffff81168352811c910152565b15611c7157565b60405162461bcd60e51b815260206004820152601960248201527f4552433230566f7465733a20667574757265206c6f6f6b7570000000000000006044820152606490fd5b60001981019190821161050d57565b9190820391821161050d57565b15611cd957565b60405162461bcd60e51b815260206004820152601960248201527f4552433230566f7465733a20696e76616c6964206e6f6e6365000000000000006044820152606490fd5b6118299160018060a01b03809216600092818452600e602052806040852054168092856020527f3134e8a2e6d97e929a7e54011ea5485d7d196dd5f0ba4d4ef95803e8e3fc257f604087205496600e6020526040812094871694856001600160601b0360a01b82541617905580a45b6001600160a01b03808316939291168084141580611f9f575b611db05750505050565b80611e1e575b5082611dc3575b806119e1565b6001600160a01b03166000908152600f602052604090207fdec2bacdd2f05b59de34da9b523dff8be42e5e38e818c82fdb0bae774387a72491611e05916121b2565b60408051928352602083019190915290a2388080611dbd565b80600052600f6020527fdec2bacdd2f05b59de34da9b523dff8be42e5e38e818c82fdb0bae774387a7246040600020805480159182600014611f7c57611e62611c3b565b6000815260006020820152915b6020830151611e8e906001600160e01b03165b6001600160e01b031690565b92611e998985612f35565b94159081611f59575b5015611ef757611eca611ee192611eb886612a53565b92600019019060005260206000200190565b9063ffffffff82549181199060201b169116179055565b604080519182526020820192909252a238611db6565b50611f5490611f1b611f16611f0b43612abc565b65ffffffffffff1690565b612b23565b90611f4f611f2886612a53565b611f3f611f33611c3b565b63ffffffff9095168552565b6001600160e01b03166020840152565b61200f565b611ee1565b5163ffffffff16905063ffffffff611f73611f0b43612abc565b91161438611ea2565b611f99611f9460001984018360005260206000200190565b611c48565b91611e6f565b50821515611da6565b60105490600160401b821015611635576001820180601055821015611b16576010600052805160209182015190911b63ffffffff191663ffffffff91909116177f1b6847dc741a1b0cd08d278845f9d819d87b734759afb55fe2de5cb82a9ae67290910155565b8054600160401b8110156116355761202c91600182018155611b63565b61205357815160209283015190921b63ffffffff191663ffffffff92909216919091179055565b634e487b7160e01b600052600060045260246000fd5b601054909181159182156121445761207f611c3b565b60008152600060208201525b60208101516120ad906120a6906001600160e01b0316611e82565b9586612f42565b93159081612121575b50156120d65761182990611eca6120cc85612a53565b916000190161226b565b506118296120e9611f16611f0b43612abc565b61211c6120f585612a53565b61210c612100611c3b565b63ffffffff9094168452565b6001600160e01b03166020830152565b611fa8565b5163ffffffff16905063ffffffff61213b611f0b43612abc565b911614386120b6565b612154611f94600019830161226b565b61208b565b6010549091811591821561219d5761216f611c3b565b60008152600060208201525b60208101516120ad90612196906001600160e01b0316611e82565b9586612f35565b6121ad611f94600019830161226b565b61217b565b90918154918215928360001461224e576121ca611c3b565b60008152600060208201525b60208101516121f8906121f1906001600160e01b0316611e82565b9687612f42565b9415908161222b575b501561221757611eca61182992611eb886612a53565b5061182990611f1b611f16611f0b43612abc565b5163ffffffff16905063ffffffff612245611f0b43612abc565b91161438612201565b612266611f9460001983018460005260206000200190565b6121d6565b60106000527f1b6847dc741a1b0cd08d278845f9d819d87b734759afb55fe2de5cb82a9ae6720190565b600690815491821561235c5760009081935b80851061230a5750505081151590816122ca575b50156102bd576102bd90611cb6565b90506123026122d883611cb6565b60066000527ff652222313e28459528d920b65115c16c04f3efc82aaedc97be59f3f377c0d3f0190565b5414386122bb565b61231481866128ec565b9082845284827ff652222313e28459528d920b65115c16c04f3efc82aaedc97be59f3f377c0d3f01541160001461234b57506122a7565b9450612356906116aa565b936122a7565b505050600090565b805491821561235c57600080935b8085106123ba5750508215159182612395575b5050156102bd576102bd90611cb6565b6123b19192506123a484611cb6565b9060005260206000200190565b54143880612385565b6123c481866128ec565b90818584528481602086200154116000146123e0575050612372565b9095506123ed91506116aa565b93612372565b916102bd93916124029361254a565b91909161242a565b6005111561241457565b634e487b7160e01b600052602160045260246000fd5b6124338161240a565b8061243b5750565b6124448161240a565b600181036124915760405162461bcd60e51b815260206004820152601860248201527f45434453413a20696e76616c6964207369676e617475726500000000000000006044820152606490fd5b61249a8161240a565b600281036124e75760405162461bcd60e51b815260206004820152601f60248201527f45434453413a20696e76616c6964207369676e6174757265206c656e677468006044820152606490fd5b806124f360039261240a565b146124fa57565b60405162461bcd60e51b815260206004820152602260248201527f45434453413a20696e76616c6964207369676e6174757265202773272076616c604482015261756560f01b6064820152608490fd5b9291907f7fffffffffffffffffffffffffffffff5d576e7357a4501ddfe92f46681b20a083116125cd5791608094939160ff602094604051948552168484015260408301526060820152600093849182805260015afa156125c05781516001600160a01b038116156125ba579190565b50600190565b50604051903d90823e3d90fd5b50505050600090600390565b307f00000000000000000000000000000000000000000000000000000000000000006001600160a01b031614806126ca575b15612634577f000000000000000000000000000000000000000000000000000000000000000090565b60405160208101907f8b73c3c69bb8fe3d512ecc4cf759cc79239f7b179b0ffacaa9a75d522b39400f82527f000000000000000000000000000000000000000000000000000000000000000060408201527f000000000000000000000000000000000000000000000000000000000000000060608201524660808201523060a082015260a081526126c481611656565b51902090565b507f0000000000000000000000000000000000000000000000000000000000000000461461260b565b6042906126fe6125d9565b906040519161190160f01b8352600283015260228201522090565b60ff81146127575760ff811690601f8211612745576040519161273b83611619565b8252602082015290565b604051632cd44ac360e21b8152600490fd5b50604051600a5481600061276a836115c9565b808352926001908181169081156127f05750600114612791575b506102bd92500382611672565b600a600090815291507fc65a7bb8d6351c1cf70c95a316cc6a92839c986682d98bc35f958f4883f9d2a85b8483106127d557506102bd935050810160200138612784565b819350908160209254838589010152019101909184926127bc565b9050602092506102bd94915060ff191682840152151560051b82010138612784565b60ff81146128345760ff811690601f8211612745576040519161273b83611619565b50604051600b54816000612847836115c9565b808352926001908181169081156127f0575060011461286d57506102bd92500382611672565b600b600090815291507f0175b7a638427703f0dbe7bb9bbf987a2551717b34e79f33b5b1008d1fa01db95b8483106128b157506102bd935050810160200138612784565b81935090816020925483858901015201910190918492612898565b81156128d6570490565b634e487b7160e01b600052601260045260246000fd5b90808216911860011c810180911161050d5790565b8015612a3b57806129d46129cd6129c36129b96129af6129a561299b61299160016102bd9a6000908b60801c80612a2f575b508060401c80612a22575b508060201c80612a15575b508060101c80612a08575b508060081c806129fb575b508060041c806129ee575b508060021c806129e1575b50821c6129da575b811c1b61298a818b6128cc565b0160011c90565b61298a818a6128cc565b61298a81896128cc565b61298a81886128cc565b61298a81876128cc565b61298a81866128cc565b61298a81856128cc565b80926128cc565b90612a41565b810161297d565b6002915091019038612975565b600491509101903861296a565b600891509101903861295f565b6010915091019038612954565b6020915091019038612949565b604091509101903861293e565b91505060809038612933565b50600090565b9080821015612a4e575090565b905090565b6001600160e01b0390818111612a67571690565b60405162461bcd60e51b815260206004820152602760248201527f53616665436173743a2076616c756520646f65736e27742066697420696e20326044820152663234206269747360c81b6064820152608490fd5b65ffffffffffff90818111612acf571690565b60405162461bcd60e51b815260206004820152602660248201527f53616665436173743a2076616c756520646f65736e27742066697420696e203460448201526538206269747360d01b6064820152608490fd5b63ffffffff90818111612b34571690565b60405162461bcd60e51b815260206004820152602660248201527f53616665436173743a2076616c756520646f65736e27742066697420696e203360448201526532206269747360d01b6064820152608490fd5b612b9190612c64565b611829612cab565b6001600160a01b038116612b88575060008080526020527fad3228b676f7d3cd4284a5443f17f1962b36e491b30a40b2405849e597ba5fb5546008547f05b8ccbb9d4d8fb16ea74ce3c29a41f1b461fbdaff4714a0d9a8eb05499746bc919080612c0284612d8b565b10612c13575b505050611829612cab565b82612c23600192612c2995612d29565b01612d29565b388080612c08565b906001600160a01b03808316612c4c5750612b919150612c64565b8116612c5c5750612b9190612c64565b612c64611829925b60018060a01b031660005260056020526040600020600060205260406000205460085480612c9184612d8b565b10612c9b57505050565b82612c2360019261182995612d29565b6002546008549081612cbb612d5e565b10612cc4575050565b600654600160401b908181101561163557806001612ce59201600655611b2c565b81549060031b906000198096831b921b19161790556007549081101561163557806001612d159201600755611adf565b909283549160031b92831b921b1916179055565b8054600160401b81101561163557612d4691600182018155611b63565b819291549060031b91821b91600019901b1916179055565b60065480612d6c5750600090565b600019810190811161050d57612d8190611b2c565b90549060031b1c90565b805480612d99575050600090565b600019810190811161050d57612d8191611b63565b600e6020527fe710864318d4a32f37d6ce54cb3fadbef648dd12d8dbdf53973564d56b7f881c546001600160a01b039182166000908152604090205461182993929081169116611d8d565b6001600160a01b039081166000908152600e60205260408120549080527fe710864318d4a32f37d6ce54cb3fadbef648dd12d8dbdf53973564d56b7f881c5461182993929081169116611d8d565b6001600160a01b039081166000908152600e602052604080822054938316825290205461182993929082169116611d8d565b15612e8057565b60405162461bcd60e51b815260206004820152603060248201527f4552433230566f7465733a20746f74616c20737570706c79207269736b73206f60448201526f766572666c6f77696e6720766f74657360801b6064820152608490fd5b15612ee557565b60405162461bcd60e51b815260206004820152602260248201527f45524332303a206275726e20616d6f756e7420657863656564732062616c616e604482015261636560f01b6064820152608490fd5b90810390811161050d5790565b90810180911161050d579056feddf252ad1be2c89b69c2b068fc378daa952ba7f163c4a11628f55a4df523b3efa2646970667358221220e791228fe014eeef7a1d1ab6d4dcf3c01515f1d1b9a73c7c468d91cb0beabd4c64736f6c634300081300331b6847dc741a1b0cd08d278845f9d819d87b734759afb55fe2de5cb82a9ae671dec2bacdd2f05b59de34da9b523dff8be42e5e38e818c82fdb0bae774387a724608080604052346100165761209c908161001c8239f35b600080fdfe60806040908082526004908136101561006a575b5050361561002057600080fd5b61002c3460cc54611bd0565b60cc5561003b3460d054611bd0565b60d055513481527f5511b8c44e0b2636184a3835fd15fe9e9378e48facdcf16c8c5eb4941185806260203392a2005b600090813560e01c90816307dfcc8e1461158b575080630d8e6e2c1461148e5780631619abcc1461130e5780631645242a146112de57806324532867146112575780633a8107cf146112095780633f4ba83a146111725780634110b2c9146110f2578063508f44a21461100657806357d9989c14610ef65780635c975abb14610ed25780635e318e0714610ddb5780636dcc0d8614610d50578063715018a614610cf35780638456cb5914610c985780638da5cb5b14610c6f578063ab7a578814610c4e578063beb529401461098f578063c4d66de814610774578063c81be65c14610744578063d35efe7714610657578063d5d3f78b14610617578063df31460114610583578063eeab8ed014610314578063f2fde38b1461027d578063fc00e6281461022d5763fd4a7ccd0361001357823461022957816003193601126102295760db549160d2549360cc549182151560001461021b576127109182860292868404148615171561020857505061020492916101e791611c06565b905b51938493846040919493926060820195825260208201520152565b0390f35b634e487b7160e01b825260119052602490fd5b9050610204929150906101e9565b5080fd5b50823461022957816003193601126102295760cb5460cc5460cd5460a0939061025f8161025a8587611bd0565b611bd0565b9160cf54938151958652602086015284015260608301526080820152f35b50919034610310576020366003190112610310576102996117d6565b916102a26117ec565b6001600160a01b038316156102be57836102bb84611844565b80f35b906020608492519162461bcd60e51b8352820152602660248201527f4f776e61626c653a206e6577206f776e657220697320746865207a65726f206160448201526564647265737360d01b6064820152fd5b8280fd5b509190602092836003193601126105805760ca54823592906001600160a01b03908116330361057157610345611c33565b341561052e578260249185825260de8852868220600160ff1982541617905560ca5416865192838092630cc0380160e41b825288878301525afa908115610524578391610501575b508481019081516103c56103b389610160850151818b5193828580945193849201611769565b810160d9815203019020918254611bd0565b90556103fa6103e8886101808551940151818a5193828580945193849201611769565b810160da815203019020918254611bd0565b9055610409815160db54611bd0565b60db555183835260df86528483205560d25460001981146104ee5760010160d255611b589081340291348304036104db57612710809204926107d09182340292348404036102085750506104929291610487910461047c6104738261046e8634611c26565b611c26565b9360cc54611bd0565b60cc5560cd54611bd0565b60cd5560cb54611bd0565b60cb556104a13460ce54611bd0565b60ce557f450e6679419a88571339543f4388d600bc5484457d8810dc154bb8ad5710f7de838351348152a26104d4611f3b565b5160018152f35b634e487b7160e01b835260119052602482fd5b634e487b7160e01b835260118252602483fd5b61051d91503d8085833e6105158183611927565b8101906119cd565b503861038d565b85513d85823e3d90fd5b845162461bcd60e51b8152808301879052601f60248201527f5072656d69756d20616d6f756e74206d75737420626520706f736974697665006044820152606490fd5b508351635c427cd960e01b8152fd5b80fd5b509190346103105760203660031901126103105761059f6117d6565b6105a76117ec565b6001600160a01b03169182156105d45750506bffffffffffffffffffffffff60a01b60ca54161760ca5580f35b906020606492519162461bcd60e51b8352820152601960248201527f496e76616c696420696e737572616e63652061646472657373000000000000006044820152fd5b508234610229576020366003190112610229576106326117d6565b61063a6117ec565b6001600160a01b0316825260d76020528120805460ff1916905580f35b5091346103105780600319360112610310576106716117d6565b916024359261067e6117ec565b6001600160a01b031690811561070157831515806106f5575b156106bd5750835260dc602052808320600160ff1982541617905560dd60205282205580f35b606490602084519162461bcd60e51b8352820152601260248201527124b73b30b634b21030b63637b1b0ba34b7b760711b6044820152fd5b50611388841115610697565b606490602084519162461bcd60e51b8352820152601860248201527f496e76616c6964207374726174656779206164647265737300000000000000006044820152fd5b50823461022957602090816107583661178c565b91908284519384928337810160d9815203019020549051908152f35b5091346103105760203660031901126103105761078f6117d6565b9183549260ff8460081c161591828093610982575b801561096b575b15610911575060ff19808516600190811787559483610900575b506107df60ff875460081c166107da816118c7565b6118c7565b6107e833611844565b61081260ff875460081c166107fc816118c7565b610805816118c7565b866065556107da816118c7565b6097541660975561082460c95461188d565b601f81116108b6575b50600a640312e302e360dc1b0160c95560ca80546001600160a01b0319166001600160a01b0392909216919091179055613a9860d355612ee060d455610bb860d5556107d060d65561087d578280f35b825461ff0019168355519081527f7f26b83ff96e1f2b6a682f133852f6798a09c465da95921460cefb384740249890602090a138808280f35b60c9865284601f7f66be4f155c5ef2ebd3772b228f2f00681e4ed5826cdb3b1943cc11ad15ad1d28920160051c8201915b8281106108f557505061082d565b8781550185906108e7565b61ffff1916610101178655386107c5565b608490602085519162461bcd60e51b8352820152602e60248201527f496e697469616c697a61626c653a20636f6e747261637420697320616c72656160448201526d191e481a5b9a5d1a585b1a5e995960921b6064820152fd5b50303b1580156107ab5750600160ff8616146107ab565b50600160ff8616106107a4565b50829034610580576109a03661173a565b60ca546001600160a01b039691929087163303610c3f576109bf611c33565b6109c7611d27565b8215610bfc578616936109db851515611c77565b83815260209660de88526109f460ff8884205416611cb7565b8160cb54858110610b7c575b50602491610a108660cb54611c26565b60cb5586825260de8a5288822060ff19815416905560ca5416885192838092630cc0380160e41b825289888301525afa908115610b725790610acc918391610b57575b50878101908151610a8c610a7a8c8c81610160870151915193828580945193849201611769565b810160d9815203019020918254611c26565b9055610ac1610aaf8b6101808551940151818d5193828580945193849201611769565b810160da815203019020918254611c26565b90555160db54611c26565b60db5583815260df8752808681205560d2548015610b44576000190160d25580808085885af1610afa611cf7565b5015610b365750847f79ff6a60b3e21b3630b207e2a7b0b50b69b197d3d7ca776108ed2afb8fbac8dc918551908152a360016065555160018152f35b84516312171d8360e31b8152fd5b506011602492634e487b7160e01b835252fd5b610b6b91503d8085833e6105158183611927565b5089610a53565b87513d84823e3d90fd5b905060cd5485610b8c8284611bd0565b10610bec579160008051602061204783398151915289610bdb8461025a610bce602498610bc4610bbd8c9a8f611c26565b8092611c26565b938460cd55611bd0565b918260cb5560cc54611bd0565b8151904282528d820152a191610a00565b885163356680b760e01b81528590fd5b855162461bcd60e51b8152602081840152601e60248201527f526566756e6420616d6f756e74206d75737420626520706f73697469766500006044820152606490fd5b508451635c427cd960e01b8152fd5b5034610580578060031936011261058057610c676117ec565b6102bb611dc9565b50823461022957816003193601126102295760335490516001600160a01b039091168152602090f35b50823461022957816003193601126102295760207f62e78cea01bee320cd4e420270b5ea74000d11b0c9f74754ebdbfc544b05a25891610cd66117ec565b610cde611c33565b600160ff19609754161760975551338152a180f35b5034610580578060031936011261058057610d0c6117ec565b603380546001600160a01b0319811690915581906001600160a01b03167f8be0079c531659141344cd1fd0a4f28419497f9722a3daafe3b4186f6b6457e08280a380f35b509190826003193601126103105733835260dc60205260ff828420541615610dcd575060207fba940f7e525c0c7e2b83c7fbf8f07b95c7da51604106be88403040d914a6979b91610da2341515611d7d565b610dae3460cd54611bd0565b60cd55610dbd3460d154611bd0565b60d15551348152a16102bb611dc9565b9051635c427cd960e01b8152fd5b5091903461031057602036600319011261031057803590610dfa6117ec565b610e02611d27565b610e0d821515611d7d565b60cb548060011c8311610e8f5782610e2491611c26565b60cb5560018060a01b0390848080808686603354165af1610e43611cf7565b5015610e8157507ffd282af50c2a0af33f26b6abcc27c8bae5fc57dc3f7ce9b71612b4cd6db59ca091602091603354169351908152a2600160655580f35b83516312171d8360e31b8152fd5b835162461bcd60e51b8152602081840152601e60248201527f45786365656473206d6178696d756d20666565207769746864726177616c00006044820152606490fd5b50823461022957816003193601126102295760209060ff6097541690519015158152f35b509134610310578060031936011261031057610f106117d6565b9060243591610f1d6117ec565b610f25611d27565b6001600160a01b031680855260dc6020528185205490939060ff1615610fd157610f50831515611d7d565b60cb5490612710610f7c610f73610f6a60cc548096611bd0565b60cd5490611bd0565b60d65490611bf3565b048411610fc3575091602091610fb3827ffd282af50c2a0af33f26b6abcc27c8bae5fc57dc3f7ce9b71612b4cd6db59ca095611bd0565b60cc5551908152a2600160655580f35b8251630e50c7b360e11b8152fd5b6020606492519162461bcd60e51b8352820152601060248201526f496e76616c696420737472617465677960801b6044820152fd5b50823461022957816003193601126102295760cb5460cc549361102c610f6a8684611bd0565b60db5495861580159692906110e857612710908181029181830414901517156110ca578761105991611c06565b955b156110dd576127108082029082820414821517156110ca5761107f88600a92611c06565b975b049384156110b8579061109391611bd0565b916127109283810293818504149015171561020857505061020492916101e791611c06565b505050505061020490612710906101e9565b634e487b7160e01b835260118452602483fd5b600a61271097611081565b506127109561105b565b50828160031936011261022957611107611d27565b61110f611c33565b61111a341515611d7d565b6111263460cc54611bd0565b60cc556111353460d054611bd0565b60d055513481527f5511b8c44e0b2636184a3835fd15fe9e9378e48facdcf16c8c5eb4941185806260203392a261116a611dc9565b600160655580f35b5091903461031057826003193601126103105761118d6117ec565b6097549060ff8216156111cf575060ff1916609755513381527f5db9ee0a495bf2e6ff9c91a7834c1ba4fdd244a5e8aa4e537bd38aeae4b073aa90602090a180f35b606490602084519162461bcd60e51b8352820152601460248201527314185d5cd8589b194e881b9bdd081c185d5cd95960621b6044820152fd5b50808334611254576020366003190112611254576112256117d6565b61122d6117ec565b6001600160a01b0316825260dc6020908152818320805460ff1916905560dd905281205580f35b50fd5b50919034610310576020366003190112610310576112736117d6565b61127b6117ec565b6001600160a01b03169081156112a35750825260d76020528120805460ff1916600117905580f35b606490602084519162461bcd60e51b83528201526015602482015274496e76616c696420746f6b656e206164647265737360581b6044820152fd5b50823461022957602090816112f23661178c565b91908284519384928337810160da815203019020549051908152f35b509190346103105760803660031901126103105780356024359060443592606435946113386117ec565b8383111561144b5783156113f9576113888086116113b657861161136757505060d35560d45560d55560d65580f35b906020608492519162461bcd60e51b8352820152602360248201527f456d657267656e6379207769746864726177616c206c696d697420746f6f20686044820152620d2ced60eb1b6064820152fd5b815162461bcd60e51b8152602081850152601d60248201527f4d6178207969656c6420616c6c6f636174696f6e20746f6f20686967680000006044820152606490fd5b906020608492519162461bcd60e51b8352820152602660248201527f4d696e696d756d207265736572766520726174696f206d75737420626520706f60448201526573697469766560d01b6064820152fd5b906020606492519162461bcd60e51b8352820152601a60248201527f546172676574206d75737420657863656564206d696e696d756d0000000000006044820152fd5b50823461022957816003193601126102295780518260c954826114b08261188d565b95868252602096879384840195600191828116908160001461156a575060011461150e575b5050506114e492500383611927565b6115008351948593818552519283809286015285850190611769565b601f01601f19168101030190f35b60c981527f66be4f155c5ef2ebd3772b228f2f00681e4ed5826cdb3b1943cc11ad15ad1d2895935091905b8183106115525750889450508201016114e488806114d5565b85548884018501529485019487945091830191611539565b925050506114e494925060ff19168552151560051b820101869288806114d5565b84929150346102295761159d3661173a565b60ca54909692936001600160a01b0392918316330361172c57506115bf611c33565b6115c7611d27565b86156116e95716926115da841515611c77565b82815260de6020526115f160ff8683205416611cb7565b60cc54868110611670575b506116098660cc54611c26565b60cc556116188660cf54611bd0565b60cf5580808088875af161162a611cf7565b5015610e8157507faf3c8fdd75d667f71d36d7840b8ef9086c516c9b047ad6a83a5a66151342123a602080958551908152a3611664611dc9565b60016065555160018152f35b60cd548761167e8284611bd0565b106116d9576116c76116be836116b58a946116ab610bbd600080516020612047833981519152988f611c26565b928360cd55611bd0565b8060cc55611bd0565b60cb5490611bd0565b8151904282526020820152a1866115fc565b865163356680b760e01b81528490fd5b855162461bcd60e51b8152602081850152601d60248201527f436c61696d20616d6f756e74206d75737420626520706f7369746976650000006044820152606490fd5b635c427cd960e01b81528390fd5b606090600319011261176457600435906024356001600160a01b0381168103611764579060443590565b600080fd5b60005b83811061177c5750506000910152565b818101518382015260200161176c565b9060206003198301126117645760043567ffffffffffffffff9283821161176457806023830112156117645781600401359384116117645760248483010111611764576024019190565b600435906001600160a01b038216820361176457565b6033546001600160a01b0316330361180057565b606460405162461bcd60e51b815260206004820152602060248201527f4f776e61626c653a2063616c6c6572206973206e6f7420746865206f776e65726044820152fd5b603380546001600160a01b039283166001600160a01b0319821681179092559091167f8be0079c531659141344cd1fd0a4f28419497f9722a3daafe3b4186f6b6457e0600080a3565b90600182811c921680156118bd575b60208310146118a757565b634e487b7160e01b600052602260045260246000fd5b91607f169161189c565b156118ce57565b60405162461bcd60e51b815260206004820152602b60248201527f496e697469616c697a61626c653a20636f6e7472616374206973206e6f74206960448201526a6e697469616c697a696e6760a81b6064820152608490fd5b90601f8019910116810190811067ffffffffffffffff82111761194957604052565b634e487b7160e01b600052604160045260246000fd5b5190811515820361176457565b67ffffffffffffffff811161194957601f01601f191660200190565b81601f8201121561176457805161199e8161196c565b926119ac6040519485611927565b81845260208284010111611764576119ca9160208085019101611769565b90565b919060409081848203126117645783519067ffffffffffffffff91828111611764578501906101a0808383031261176457845190810181811085821117611949578552825181526020808401519094906001600160a01b0381168103611764578583015285840151868301526060918285015183820152608090818601518282015260a0958681015187830152611a6660c0820161195f565b60c0830152611a7760e0820161195f565b60e0830152610100808201519083015261012080820151908301526101408082015190830152610160808201518581116117645787611ab7918401611988565b9083015261018090818101519085821161176457611ad791889101611988565b9082015298868101519083821161176457019484601f8701121561176457855197838911611949578860051b94815199611b138a88018c611927565b8a5288808b01968901019787891161176457898101965b898810611b3f57505050505050505050505090565b875187811161176457820185601f19828c030112611764578451918683018381108a821117611bbb5786528c820151928984116117645787838f958e87611b899281980101611988565b835288810151858401528781015189840152611ba68b820161195f565b88840152015189820152815201970196611b2a565b60246000634e487b7160e01b81526041600452fd5b91908201809211611bdd57565b634e487b7160e01b600052601160045260246000fd5b81810292918115918404141715611bdd57565b8115611c10570490565b634e487b7160e01b600052601260045260246000fd5b91908203918211611bdd57565b60ff60975416611c3f57565b60405162461bcd60e51b815260206004820152601060248201526f14185d5cd8589b194e881c185d5cd95960821b6044820152606490fd5b15611c7e57565b60405162461bcd60e51b8152602060048201526011602482015270125b9d985b1a59081c9958da5c1a595b9d607a1b6044820152606490fd5b15611cbe57565b60405162461bcd60e51b8152602060048201526011602482015270506f6c696379206e6f742061637469766560781b6044820152606490fd5b3d15611d22573d90611d088261196c565b91611d166040519384611927565b82523d6000602084013e565b606090565b600260655414611d38576002606555565b60405162461bcd60e51b815260206004820152601f60248201527f5265656e7472616e637947756172643a207265656e7472616e742063616c6c006044820152606490fd5b15611d8457565b60405162461bcd60e51b815260206004820152601760248201527f416d6f756e74206d75737420626520706f7369746976650000000000000000006044820152606490fd5b60db548015611f325760cc547e068db8bac710cb295e9e1b089a027525460aa64c2f837b4a2339c0ebedfa438111611f1d5761271090818102918183041490151715611bdd5781611e1991611c06565b905b60d454809210611e32575b5050611e30611f3b565b565b60008215611f095750600019918083048211611ef657611e559061271092611bf3565b04905b60cc5491828111611e6a575b50611e26565b82611e7491611c26565b9060cd5492838311611eee575b82611e8d575b50611e64565b611eac836116ab60409560008051602061204783398151915297611c26565b908160cc558101908110600014611ed457505b8151904282526020820152a138808080611e87565b60cb54810190811015611ee75750611ebf565b9050611ebf565b839250611e81565b612710611f039204611bf3565b90611e58565b634e487b7160e01b81526012600452602490fd5b611f2c90612710830490611c06565b90611e1b565b61271090611e1b565b611f6b60cb5460cc54611f4e8183611bd0565b91611f5c60cd548094611bd0565b61271094859160d55490611bf3565b04938484101561203f5760db54801561203957818402848104831485151715611bdd5781611f9891611c06565b60d354809111611fac575b50505050505050565b611fcb92611fbe611fc5928894611bf3565b0485611c26565b95611c26565b808511612031575b5083611fe2575b808080611fa3565b61025a604093612012866120086000805160206120478339815191529861201c97611c26565b928360cc55611bd0565b908160cd55611bd0565b8151904282526020820152a138808080611fda565b935038611fd3565b81611f98565b505050505056fe61edca141e69b2f7b6056a1b5b95cd7105defd0d2985d897ca0242c227e44e4da2646970667358221220c580d2380996931cbb3a9ff4f5fcf637f75d0970e10e4588b22845f3e20a036a64736f6c634300081300336080346200040357601f906001600160401b0390601f1962003023388190038581018316840185811185821017620003ed578492829160405283396020938491810103126200040357516001600160a01b03808216959094909186900362000403576200006b62000408565b91601083526f4167726f436861696e20506f6c69637960801b858401526200009262000408565b600581526404147524f560dc1b86820152835194838611620003ed576000958654956001968781811c91168015620003e2575b8a821014620003ce579081868493116200037b575b5089908683116001146200031a5789926200030e575b5050600019600383901b1c191690861b1786555b8151938411620002fa5784548581811c91168015620002ef575b88821014620002db57908184869594931162000284575b5087928411600114620002235750859262000217575b5050600019600383901b1c191690821b1790555b600b5490610100600160a81b033360081b1660018060a81b0319831617600b557f8be0079c531659141344cd1fd0a4f28419497f9722a3daafe3b4186f6b6457e060405194339360081c169180a38215620001d657600d80546001600160a01b03191684179055604051612bfa9081620004298239f35b62461bcd60e51b82526004820152601a60248201527f496e76616c696420696e737572616e636520636f6e7472616374000000000000604482015260649150fd5b0151905038806200014b565b85875287872086959093929116875b898282106200026d575050841162000253575b505050811b0190556200015f565b015160001960f88460031b161c1916905538808062000245565b838501518655889790950194938401930162000232565b90919293508587528787208480870160051c8201928a8810620002d1575b9187968992969594930160051c01915b828110620002c257505062000135565b898155879650889101620002b2565b92508192620002a2565b634e487b7160e01b87526022600452602487fd5b90607f16906200011e565b634e487b7160e01b86526041600452602486fd5b015190503880620000f0565b9084899416918a80528b8b20928b5b8d8282106200036457505084116200034a575b505050811b01865562000104565b015160001960f88460031b161c191690553880806200033c565b8385015186558c9790950194938401930162000329565b9091508880528989208680850160051c8201928c8610620003c4575b918a91869594930160051c01915b828110620003b5575050620000da565b8b81558594508a9101620003a5565b9250819262000397565b634e487b7160e01b89526022600452602489fd5b90607f1690620000c5565b634e487b7160e01b600052604160045260246000fd5b600080fd5b60408051919082016001600160401b03811183821017620003ed5760405256fe608080604052600436101561001357600080fd5b60003560e01c90816301ffc9a714611d475750806306fdde0314611ca4578063081812fc14611c86578063095ea7b314611b0c5780630fe92cae14611ade57806314ff5ea314611aab57806318160ddd14611a8d578063205de66a14611a4457806323b872dd14611a205780632f745c591461196e5780633f4ba83a146118da57806342842e0e146118a75780634422456614610e6b5780634f6ccce714610dda5780635499851814610baf5780635c975abb14610b8c5780636352211e14610b5c57806370a0823114610b31578063715018a614610ad05780638456cb5914610a765780638da5cb5b14610a4957806395d89b411461096a578063a22cb46514610898578063a574cea41461077f578063b88d4fde146106f8578063c87b56dd14610682578063df314601146105f5578063e985e9c51461059f578063f2fde38b146104cb5763f457a0fe1461016957600080fd5b346104c6576020806003193601126104c657600d54600435916001600160a01b0391821633036104b4576000838152600260205260409020546101b6906001600160a01b031615156127ce565b82600052600f81526040600020549182600052600e82526000604081205583600052600f82526000604081205560108252610228600660406000206101fa81612828565b61020660018201612828565b6000600282015560006003820155600060048201556000600582015501612828565b61023184612074565b610239612b80565b8082169081610418575050600854846000526009835280604060002055600160401b811015610402578461027682600161028f9401600855612735565b90919082549060031b91821b91600019901b1916179055565b600854600019908181019081116103ec5785600052600984526102b760406000205491612735565b90549060031b1c6102cb8161027684612735565b6000526009845260406000205584600052600060408120556008549081156103d657859281600093016102fd81612735565b8482549160031b1b1916905560085561031584612074565b908484526004865260408420916001600160601b0360a01b928381541690551691828452600386526040842090815401905583835260028552604083209081541690557fddf252ad1be2c89b69c2b068fc378daa952ba7f163c4a11628f55a4df523b3ef8280a4600a815261038e604060002054612097565b6103bb575b507f348510a0dc81be13edea3b824f9f457b535830aa287cb051ac58ecc2eaa622a0600080a3005b600a9083600052526103d06040600020612828565b38610393565b634e487b7160e01b600052603160045260246000fd5b634e487b7160e01b600052601160045260246000fd5b634e487b7160e01b600052604160045260246000fd5b61042190611fb1565b6000198101919082116103ec57856000526007845260406000205482810361046e575b5085600052600060408120556000526006835260406000209060005282526000604081205561028f565b8160005260068552604060002083600052855260406000205482600052600686526040600020826000528652806040600020556000526007855260406000205538610444565b604051635c427cd960e01b8152600490fd5b600080fd5b346104c65760203660031901126104c6576104e4611e2e565b6104ec611f56565b6001600160a01b0381811691821561054b57600b8054610100600160a81b03198116600893841b610100600160a81b031617909155901c167f8be0079c531659141344cd1fd0a4f28419497f9722a3daafe3b4186f6b6457e0600080a3005b60405162461bcd60e51b815260206004820152602660248201527f4f776e61626c653a206e6577206f776e657220697320746865207a65726f206160448201526564647265737360d01b6064820152608490fd5b346104c65760403660031901126104c6576105b8611e2e565b6105c0611e44565b9060018060a01b03809116600052600560205260406000209116600052602052602060ff604060002054166040519015158152f35b346104c65760203660031901126104c65761060e611e2e565b610616611f56565b6001600160a01b0316801561063d576001600160601b0360a01b600d541617600d55600080f35b60405162461bcd60e51b815260206004820152601a60248201527f496e76616c696420696e737572616e636520636f6e74726163740000000000006044820152606490fd5b346104c65760203660031901126104c6576004356000818152600260205260409020546106b9906001600160a01b03161515612028565b600052600a6020526106f46106d160406000206120d1565b60006040516106df81611eaa565b52604051918291602083526020830190611e09565b0390f35b346104c65760803660031901126104c657610711611e2e565b610719611e44565b90606435906044356001600160401b0383116104c657366023840112156104c65761077d93610755610778943690602481600401359101611f01565b92610768610763843361228e565b6121b5565b610773838383612356565b6126aa565b61226a565b005b346104c65760203660031901126104c6576004356000818152600260205260409020546001600160a01b03161561088657600052601060205261085660406000206106f4604051916107d083611e8f565b6107d9816120d1565b83526107e7600182016120d1565b92602081019384526002820154604082019081526003830154926060830193845260048101546080840190815261086461082f600660058501549460a08801958652016120d1565b948560c0820152519751935195519151925193604051998a9960e08b5260e08b0190611e09565b9089820360208b0152611e09565b9460408801526060870152608086015260a085015283820360c0850152611e09565b60405163720caa4f60e01b8152600490fd5b346104c65760403660031901126104c6576108b1611e2e565b602435908115158092036104c6576001600160a01b03169033821461092557336000526005602052604060002082600052602052604060002060ff1981541660ff83161790556040519081527f17307eab39ab6107e8899845ad3d59bd9653f200f220920489ca2b5937696c3160203392a3005b60405162461bcd60e51b815260206004820152601960248201527f4552433732313a20617070726f766520746f2063616c6c6572000000000000006044820152606490fd5b346104c65760003660031901126104c6576040516000600180549061098e82612097565b80855291818116908115610a2257506001146109c9575b6106f4846109b581860382611ec5565b604051918291602083526020830190611e09565b600081815292507fb10e2d527612073b26eecdfd717e6a320cf44b4afac2b0732d9fcbe2b7fa0cf65b828410610a0a5750505081016020016109b5826109a5565b805460208587018101919091529093019281016109f2565b60ff191660208087019190915292151560051b850190920192506109b591508390506109a5565b346104c65760003660031901126104c657600b5460405160089190911c6001600160a01b03168152602090f35b346104c65760003660031901126104c657610a8f611f56565b610a97612b80565b600160ff19600b541617600b557f62e78cea01bee320cd4e420270b5ea74000d11b0c9f74754ebdbfc544b05a2586020604051338152a1005b346104c65760003660031901126104c657610ae9611f56565b600b8054610100600160a81b0319811690915560009060081c6001600160a01b03167f8be0079c531659141344cd1fd0a4f28419497f9722a3daafe3b4186f6b6457e08280a3005b346104c65760203660031901126104c6576020610b54610b4f611e2e565b611fb1565b604051908152f35b346104c65760203660031901126104c6576020610b7a600435612074565b6040516001600160a01b039091168152f35b346104c65760003660031901126104c657602060ff600b54166040519015158152f35b346104c65760403660031901126104c657600435610bcb611e44565b600d546001600160a01b0390811633036104b45782600052602092600e8452604060002054610dc8576001600c54019283600c5581600052600e85528360406000205583600052600f85528160406000205560405192610c2a84611eaa565b600084528116928315610d8557600085815260026020526040902054610c5c906001600160a01b031615155b15612782565b610c64612b80565b60085493856000526009875284604060002055600160401b85101561040257610d766107788893887fb1827ee2a5e482a2668b121ecb8dc532511579e049d7428f6eac87f1c7deb30196610cc3826102768c6001839e01600855612735565b610ccc81611fb1565b86600052600688526040600020816000528852826040600020558260005260078852604060002055610d16610c5683600052600260205260018060a01b0360406000205416151590565b856000526003875260406000206001815401905581600052600287526040600020866001600160601b0360a01b825416179055818660007fddf252ad1be2c89b69c2b068fc378daa952ba7f163c4a11628f55a4df523b3ef8180a461258a565b604051908152a3604051908152f35b6064866040519062461bcd60e51b825280600483015260248201527f4552433732313a206d696e7420746f20746865207a65726f20616464726573736044820152fd5b60405163472c8f8b60e01b8152600490fd5b346104c65760203660031901126104c657600435600854811015610e1157610e03602091612735565b90546040519160031b1c8152f35b60405162461bcd60e51b815260206004820152602c60248201527f455243373231456e756d657261626c653a20676c6f62616c20696e646578206f60448201526b7574206f6620626f756e647360a01b6064820152608490fd5b346104c6576101003660031901126104c6576024356001600160401b0381116104c657610e9c903690600401611f38565b6044356001600160401b0381116104c657610ebb903690600401611f38565b60e4356001600160401b0381116104c657610eda903690600401611f38565b600d549091906001600160a01b031633036104b457600435600090815260026020526040902054610f15906001600160a01b031615156127ce565b60405192610f2284611e8f565b835260208301526064356040830152608435606083015260a435608083015260c43560a083015260c08201526004356000526010602052604060002081519182516001600160401b03811161040257610f7b8354612097565b601f8111611875575b506020601f821160011461180d5781929394600092611802575b50508160011b916000199060031b1c19161782555b60208101518051906001600160401b03821161040257610fd66001850154612097565b601f81116117cd575b50602090601f831160011461175a5760c09392916000918361174f575b50508160011b916000199060031b1c19161760018401555b60408101516002840155606081015160038401556080810151600484015560a0810151600584015501518051906001600160401b0382116104025761105c6006840154612097565b601f811161171a575b50602090601f83116001146116aa57600692916000918361169f575b50508160011b916000199060031b1c1916179101555b6004356000526010602052611493604060002061148e6101b76040516110bc81611e8f565b6110c5846120d1565b81526110d3600185016120d1565b936020820194855260028101546040830190815260038201546060840190815260048301549060808501918252611140611139611139611132611124600660058a01549960a08c019a8b52016120d1565b9460c08a01958652516129e8565b94516129e8565b9451612ac1565b9161114c6004356129e8565b95519851915194604051998a97607b60f81b60208a01527f226e616d65223a20224167726f436861696e20506f6c6963792023000000000060218a015261119d815180926020603c8d019101611de6565b61088b60f21b603c918a01918201527f226465736372697074696f6e223a20224167726963756c747572616c20706172603e8201527f616d657472696320696e737572616e636520706f6c696379206f6e204167726f605e8201526610da185a5b888b60ca1b607e8201526e2261747472696275746573223a205b60881b60858201527f7b2274726169745f74797065223a2022526567696f6e222c202276616c7565226094820152621d101160e91b60b482015281519161126890839060b7840190602001611de6565b019262089f4b60ea1b938460b78201527f7b2274726169745f74797065223a202243726f702054797065222c202276616c60ba820152653ab2911d101160d11b60da8201526112c182518093602060e085019101611de6565b01908360e08301527f7b2274726169745f74797065223a2022436f766572616765222c202276616c7560e38301526432911d101160d91b9182610103820152815190611317826101089460208685019101611de6565b016608115512089f4b60ca1b80928201527f7b2274726169745f74797065223a20225072656d69756d222c202276616c756561010f82015263111d101160e11b61012f820152855190611374826101339860208a85019101611de6565b01948501527f7b2274726169745f74797065223a202253746172742044617465222c2022766161013a8501528266363ab2911d101160c91b948561015a8201528351906113cb826101619660208885019101611de6565b01928301527f7b2274726169745f74797065223a2022456e642044617465222c202276616c75610164830152610184820152835190611414826101899660208885019101611de6565b01928301527f7b2274726169745f74797065223a2022506172616d6574657273222c2022766161018c8301526101ac82015281519061145d826101b39460208685019101611de6565b019061227d60f01b90820152605d60f81b6101b5820152607d60f81b6101b682015203610197810184520182611ec5565b612871565b6114e6603d60405180937f646174613a6170706c69636174696f6e2f6a736f6e3b6261736536342c00000060208301526114d68151809260208686019101611de6565b810103601d810184520182611ec5565b6004356000908152600260205260409020546001600160a01b03161561164357600435600052600a602052604060002081516001600160401b038111610402576115308254612097565b601f8111611606575b50602092601f82116001146115a25792819293600092611597575b50508160011b916000199060031b1c19161790555b7ff8e1a15aba9398e019f0b49df1a4fde98ee17ae345cb5f6b5e2c27f5033e8ce760206040516004358152a1005b015190508380611554565b601f198216938360005260206000209160005b8681106115ee57508360019596106115d5575b505050811b019055611569565b015160001960f88460031b161c191690558380806115c8565b919260206001819286850151815501940192016115b5565b61163390836000526020600020601f840160051c81019160208510611639575b601f0160051c0190612811565b83611539565b9091508190611626565b60405162461bcd60e51b815260206004820152602e60248201527f45524337323155524953746f726167653a2055524920736574206f66206e6f6e60448201526d32bc34b9ba32b73a103a37b5b2b760911b6064820152608490fd5b015190508480611081565b906006840160005260206000209160005b601f19851681106117025750918391600193600695601f198116106116e9575b505050811b01910155611097565b015160001960f88460031b161c191690558480806116db565b919260206001819286850151815501940192016116bb565b61174990600685016000526020600020601f850160051c8101916020861061163957601f0160051c0190612811565b83611065565b015190508580610ffc565b906001850160005260206000209160005b601f19851681106117b5575091839160019360c09695601f1981161061179c575b505050811b016001840155611014565b015160001960f88460031b161c1916905585808061178c565b9192602060018192868501518155019401920161176b565b6117fc90600186016000526020600020601f850160051c8101916020861061163957601f0160051c0190612811565b84610fdf565b015190508480610f9e565b8360005260206000209060005b601f198416811061185d5750600193949583601f19811610611844575b505050811b018255610fb3565b015160001960f88460031b161c19169055848080611837565b9091602060018192858a01518155019301910161181a565b6118a190846000526020600020601f840160051c8101916020851061163957601f0160051c0190612811565b84610f84565b346104c65761077d6107786118bb36611e5a565b90604051926118c984611eaa565b60008452610768610763843361228e565b346104c65760003660031901126104c6576118f3611f56565b600b5460ff8116156119325760ff1916600b557f5db9ee0a495bf2e6ff9c91a7834c1ba4fdd244a5e8aa4e537bd38aeae4b073aa6020604051338152a1005b60405162461bcd60e51b815260206004820152601460248201527314185d5cd8589b194e881b9bdd081c185d5cd95960621b6044820152606490fd5b346104c65760403660031901126104c657611987611e2e565b6024359061199481611fb1565b8210156119c75760018060a01b031660005260066020526040600020906000526020526020604060002054604051908152f35b60405162461bcd60e51b815260206004820152602b60248201527f455243373231456e756d657261626c653a206f776e657220696e646578206f7560448201526a74206f6620626f756e647360a81b6064820152608490fd5b346104c65761077d611a3136611e5a565b91611a3f610763843361228e565b612356565b346104c65760203660031901126104c6576004356000818152600260205260409020546001600160a01b03161561088657600052600f6020526020604060002054604051908152f35b346104c65760003660031901126104c6576020600854604051908152f35b346104c65760203660031901126104c657600435600052600e602052604060002054801561088657602090604051908152f35b346104c65760203660031901126104c657600435600052600e60205260206040600020541515604051908152f35b346104c65760403660031901126104c657611b25611e2e565b602435906001600160a01b038080611b3c85612074565b16921691808314611c3757803314908115611c12575b5015611ba757600083815260046020526040902080546001600160a01b03191683179055611b7f83612074565b167f8c5be1e5ebec7d5bd14f71427d1e84f3dd0314c0f7b2291e5b200ac8c7c3b925600080a4005b60405162461bcd60e51b815260206004820152603d60248201527f4552433732313a20617070726f76652063616c6c6572206973206e6f7420746f60448201527f6b656e206f776e6572206f7220617070726f76656420666f7220616c6c0000006064820152608490fd5b9050600052600560205260406000203360005260205260ff6040600020541684611b52565b60405162461bcd60e51b815260206004820152602160248201527f4552433732313a20617070726f76616c20746f2063757272656e74206f776e656044820152603960f91b6064820152608490fd5b346104c65760203660031901126104c6576020610b7a600435612177565b346104c65760003660031901126104c65760405160008054611cc581612097565b80845290600190818116908115610a225750600114611cee576106f4846109b581860382611ec5565b600080805292507f290decd9548b62a8d60345a988386fc84ba6bc95484008f6362f93160ef3e5635b828410611d2f5750505081016020016109b5826109a5565b80546020858701810191909152909301928101611d17565b346104c65760203660031901126104c6576004359063ffffffff60e01b82168092036104c657602091632483248360e11b8114908115611d89575b5015158152f35b63780e9d6360e01b811491508115611da3575b5083611d82565b6380ac58cd60e01b811491508115611dd5575b8115611dc4575b5083611d9c565b6301ffc9a760e01b14905083611dbd565b635b5e139f60e01b81149150611db6565b60005b838110611df95750506000910152565b8181015183820152602001611de9565b90602091611e2281518092818552858086019101611de6565b601f01601f1916010190565b600435906001600160a01b03821682036104c657565b602435906001600160a01b03821682036104c657565b60609060031901126104c6576001600160a01b039060043582811681036104c6579160243590811681036104c6579060443590565b60e081019081106001600160401b0382111761040257604052565b602081019081106001600160401b0382111761040257604052565b90601f801991011681019081106001600160401b0382111761040257604052565b6001600160401b03811161040257601f01601f191660200190565b929192611f0d82611ee6565b91611f1b6040519384611ec5565b8294818452818301116104c6578281602093846000960137010152565b9080601f830112156104c657816020611f5393359101611f01565b90565b600b5460081c6001600160a01b03163303611f6d57565b606460405162461bcd60e51b815260206004820152602060248201527f4f776e61626c653a2063616c6c6572206973206e6f7420746865206f776e65726044820152fd5b6001600160a01b03168015611fd157600052600360205260406000205490565b60405162461bcd60e51b815260206004820152602960248201527f4552433732313a2061646472657373207a65726f206973206e6f7420612076616044820152683634b21037bbb732b960b91b6064820152608490fd5b1561202f57565b60405162461bcd60e51b815260206004820152601860248201527f4552433732313a20696e76616c696420746f6b656e20494400000000000000006044820152606490fd5b6000908152600260205260409020546001600160a01b0316611f53811515612028565b90600182811c921680156120c7575b60208310146120b157565b634e487b7160e01b600052602260045260246000fd5b91607f16916120a6565b90604051918260008254926120e584612097565b9081845260019485811690816000146121545750600114612111575b505061210f92500383611ec5565b565b9093915060005260209081600020936000915b81831061213c57505061210f93508201013880612101565b85548884018501529485019487945091830191612124565b91505061210f94506020925060ff191682840152151560051b8201013880612101565b60008181526002602052604090205461219a906001600160a01b03161515612028565b6000908152600460205260409020546001600160a01b031690565b156121bc57565b60405162461bcd60e51b815260206004820152602d60248201527f4552433732313a2063616c6c6572206973206e6f7420746f6b656e206f776e6560448201526c1c881bdc88185c1c1c9bdd9959609a1b6064820152608490fd5b60809060208152603260208201527f4552433732313a207472616e7366657220746f206e6f6e20455243373231526560408201527131b2b4bb32b91034b6b83632b6b2b73a32b960711b60608201520190565b1561227157565b60405162461bcd60e51b81528061228a60048201612217565b0390fd5b906001600160a01b0380806122a284612074565b169316918383149384156122d5575b5083156122bf575b50505090565b6122cb91929350612177565b16143880806122b9565b909350600052600560205260406000208260005260205260ff6040600020541692386122b1565b1561230357565b60405162461bcd60e51b815260206004820152602560248201527f4552433732313a207472616e736665722066726f6d20696e636f72726563742060448201526437bbb732b960d91b6064820152608490fd5b61237a9161236384612074565b6001600160a01b03938484169391851684146122fc565b83821693841561253957839161238e612b80565b82612496575090506008549085600052600960205281604060002055600160401b821015610402576123e8926123cf87610276856001899701600855612735565b828603612463575b506123e186612074565b16146122fc565b7fddf252ad1be2c89b69c2b068fc378daa952ba7f163c4a11628f55a4df523b3ef60008481526004602052604081206001600160601b0360a01b9081815416905583825260036020526040822060001981540190558482526040822060018154019055858252600260205284604083209182541617905580a4565b61246c90611fb1565b604060008781526006602052818120838252602052888282205588815260076020522055386123d7565b8583036124a8575b506123e8926123cf565b6124b3919250611fb1565b6000198101919082116103ec576123e89284926000908882526020906007825260409182842054828103612502575b508a8452838381205586845260068152828420918452528120559261249e565b87855260068252838520838652825283852054888652600683528486208287528352808587205585526007825283852055386124e2565b60405162461bcd60e51b8152602060048201526024808201527f4552433732313a207472616e7366657220746f20746865207a65726f206164646044820152637265737360e01b6064820152608490fd5b9192600092909190803b156126a0576125d8946040518092630a85bd0160e11b9485835233600484015287602484015260448301526080606483015281878160209a8b966084830190611e09565b03926001600160a01b03165af184918161265c575b5061264b575050503d600014612643573d61260781611ee6565b906126156040519283611ec5565b81528091833d92013e5b805191826126405760405162461bcd60e51b81528061228a60048201612217565b01fd5b50606061261f565b6001600160e01b0319161492509050565b9091508581813d8311612699575b6126748183611ec5565b8101031261269557516001600160e01b0319811681036126955790386125ed565b8480fd5b503d61266a565b5050915050600190565b9293600093909291803b1561272a579484916127049660405180948193630a85bd0160e11b9788845233600485015260018060a01b0380921660248501526044840152608060648401528260209b8c976084830190611e09565b0393165af184918161265c575061264b575050503d600014612643573d61260781611ee6565b505050915050600190565b60085481101561276c5760086000527ff3f7a9fe364faab93b216da50a3214154f22a0a2b415b23a84c8169e8b636ee30190600090565b634e487b7160e01b600052603260045260246000fd5b1561278957565b60405162461bcd60e51b815260206004820152601c60248201527f4552433732313a20746f6b656e20616c7265616479206d696e746564000000006044820152606490fd5b156127d557565b60405162461bcd60e51b8152602060048201526014602482015273151bdad95b88191bd95cc81b9bdd08195e1a5cdd60621b6044820152606490fd5b81811061281c575050565b60008155600101612811565b6128328154612097565b908161283c575050565b81601f6000931160011461284e575055565b90808391825261286d601f60208420940160051c840160018501612811565b5555565b8051156129d457604051606081018181106001600160401b0382111761040257604052604081527f4142434445464748494a4b4c4d4e4f505152535455565758595a61626364656660208201527f6768696a6b6c6d6e6f707172737475767778797a303132333435363738392b2f604082015281516002928382018092116103ec5760039182900480851b94906001600160fe1b038116036103ec579261293061291a86611ee6565b956129286040519788611ec5565b808752611ee6565b6020860190601f190136823793829183518401925b838110612983575050505051068060011461297057600214612965575090565b603d90600019015390565b50603d9081600019820153600119015390565b85600491979293949701918251600190603f9082828260121c16880101518453828282600c1c16880101518385015382828260061c1688010151888501531685010151878201530195929190612945565b506040516129e181611eaa565b6000815290565b8015612a9357600081805b612a7b5750612a0181611ee6565b90612a0f6040519283611ec5565b808252601f19612a1e82611ee6565b013660208401375b80928015612a745760001982019182116103ec578193600a9260309084840682018092116103ec578551111561276c5760f81b6001600160f81b03191660001a908401601f01530491612a26565b5050905090565b9060001981146103ec576001600a91019104806129f3565b50604051604081018181106001600160401b038211176104025760405260018152600360fc1b602082015290565b662386f26fc1000090046064612ad88183046129e8565b910690600a612ae6836129e8565b9210612b3a575b6021611f53916040519381612b0c869351809260208087019101611de6565b8201601760f91b6020820152612b2b8251809360208785019101611de6565b01036001810184520182611ec5565b906021611f5391612b77826040518093600360fc1b6020830152612b678151809260208686019101611de6565b8101036001810184520182611ec5565b92915050612aed565b60ff600b5416612b8c57565b60405162461bcd60e51b815260206004820152601060248201526f14185d5cd8589b194e881c185d5cd95960821b6044820152606490fdfea2646970667358221220216b094496bb77ef28f131b35aef4acceddcb89fc46aef549dfb19e944ea15a764736f6c63430008130033a264697066735822122030860801f36f6b6c5c739ec826fc90a130a6c56b350ea17f3a4669dffec4aaaf64736f6c63430008130033","linkReferences":{}},"methodIdentifiers":{"deployAgroChainSystem(address,uint256,uint256,uint256,uint256,uint256,uint256,address,address,bytes32,uint256)":"aeb18c52","governanceContract()":"b172b222","insuranceContract()":"d012a5a8","oracleContract()":"bece7532","policyNFTContract()":"24357b69","proxyAdmin()":"3e47158c","tokenContract()":"55a373d6","treasuryContract()":"18da0011"},"id":88}