{"abi":[{"type":"function","name":"activatePolicy","inputs":[{"name":"_policyId","type":"uint256","internalType":"uint256"}],"outputs":[],"stateMutability":"payable"},{"type":"function","name":"addSupportedCrop","inputs":[{"name":"_cropType","type":"string","internalType":"string"}],"outputs":[],"stateMutability":"nonpayable"},{"type":"function","name":"addSupportedRegion","inputs":[{"name":"_region","type":"string","internalType":"string"}],"outputs":[],"stateMutability":"nonpayable"},{"type":"function","name":"cancelPolicy","inputs":[{"name":"_policyId","type":"uint256","internalType":"uint256"}],"outputs":[{"name":"refundAmount","type":"uint256","internalType":"uint256"}],"stateMutability":"nonpayable"},{"type":"function","name":"createPolicy","inputs":[{"name":"_farmer","type":"address","internalType":"address payable"},{"name":"_coverageAmount","type":"uint256","internalType":"uint256"},{"name":"_startDate","type":"uint256","internalType":"uint256"},{"name":"_endDate","type":"uint256","internalType":"uint256"},{"name":"_region","type":"string","internalType":"string"},{"name":"_cropType","type":"string","internalType":"string"},{"name":"_parameters","type":"tuple[]","internalType":"struct IAgroChainInsurance.ClimateParameter[]","components":[{"name":"parameterType","type":"string","internalType":"string"},{"name":"thresholdValue","type":"uint256","internalType":"uint256"},{"name":"periodInDays","type":"uint256","internalType":"uint256"},{"name":"triggerAbove","type":"bool","internalType":"bool"},{"name":"payoutPercentage","type":"uint256","internalType":"uint256"}]},{"name":"zkProofHash","type":"string","internalType":"string"}],"outputs":[{"name":"policyId","type":"uint256","internalType":"uint256"}],"stateMutability":"nonpayable"},{"type":"function","name":"getPolicyCounter","inputs":[],"outputs":[{"name":"","type":"uint256","internalType":"uint256"}],"stateMutability":"view"},{"type":"function","name":"getPolicyDetails","inputs":[{"name":"_policyId","type":"uint256","internalType":"uint256"}],"outputs":[{"name":"","type":"tuple","internalType":"struct IAgroChainInsurance.Policy","components":[{"name":"id","type":"uint256","internalType":"uint256"},{"name":"farmer","type":"address","internalType":"address payable"},{"name":"coverageAmount","type":"uint256","internalType":"uint256"},{"name":"premium","type":"uint256","internalType":"uint256"},{"name":"startDate","type":"uint256","internalType":"uint256"},{"name":"endDate","type":"uint256","internalType":"uint256"},{"name":"active","type":"bool","internalType":"bool"},{"name":"claimed","type":"bool","internalType":"bool"},{"name":"claimPaid","type":"uint256","internalType":"uint256"},{"name":"lastClaimDate","type":"uint256","internalType":"uint256"},{"name":"policyDataHash","type":"bytes32","internalType":"bytes32"},{"name":"region","type":"string","internalType":"string"},{"name":"cropType","type":"string","internalType":"string"}]},{"name":"","type":"tuple[]","internalType":"struct IAgroChainInsurance.ClimateParameter[]","components":[{"name":"parameterType","type":"string","internalType":"string"},{"name":"thresholdValue","type":"uint256","internalType":"uint256"},{"name":"periodInDays","type":"uint256","internalType":"uint256"},{"name":"triggerAbove","type":"bool","internalType":"bool"},{"name":"payoutPercentage","type":"uint256","internalType":"uint256"}]}],"stateMutability":"view"},{"type":"function","name":"getPolicyStatus","inputs":[{"name":"_policyId","type":"uint256","internalType":"uint256"}],"outputs":[{"name":"active","type":"bool","internalType":"bool"},{"name":"claimed","type":"bool","internalType":"bool"},{"name":"claimPaid","type":"uint256","internalType":"uint256"},{"name":"remainingCoverage","type":"uint256","internalType":"uint256"},{"name":"timeRemaining","type":"uint256","internalType":"uint256"}],"stateMutability":"view"},{"type":"function","name":"getSystemStats","inputs":[],"outputs":[{"name":"totalPolicies","type":"uint256","internalType":"uint256"},{"name":"totalPremiums","type":"uint256","internalType":"uint256"},{"name":"totalClaims","type":"uint256","internalType":"uint256"}],"stateMutability":"view"},{"type":"function","name":"getVersion","inputs":[],"outputs":[{"name":"","type":"string","internalType":"string"}],"stateMutability":"view"},{"type":"function","name":"initialize","inputs":[{"name":"oracleAddress","type":"address","internalType":"address"},{"name":"treasuryAddress","type":"address","internalType":"address"},{"name":"governanceAddress","type":"address","internalType":"address"}],"outputs":[],"stateMutability":"nonpayable"},{"type":"function","name":"owner","inputs":[],"outputs":[{"name":"","type":"address","internalType":"address"}],"stateMutability":"view"},{"type":"function","name":"pause","inputs":[],"outputs":[],"stateMutability":"nonpayable"},{"type":"function","name":"paused","inputs":[],"outputs":[{"name":"","type":"bool","internalType":"bool"}],"stateMutability":"view"},{"type":"function","name":"processClaim","inputs":[{"name":"_policyId","type":"uint256","internalType":"uint256"},{"name":"_climateData","type":"tuple","internalType":"struct IAgroChainInsurance.ClimateData","components":[{"name":"requestId","type":"bytes32","internalType":"bytes32"},{"name":"parameterType","type":"string","internalType":"string"},{"name":"measuredValue","type":"uint256","internalType":"uint256"},{"name":"timestamp","type":"uint256","internalType":"uint256"},{"name":"dataSource","type":"string","internalType":"string"},{"name":"signature","type":"bytes","internalType":"bytes"}]}],"outputs":[{"name":"success","type":"bool","internalType":"bool"},{"name":"amount","type":"uint256","internalType":"uint256"}],"stateMutability":"nonpayable"},{"type":"function","name":"removeSupportedCrop","inputs":[{"name":"_cropType","type":"string","internalType":"string"}],"outputs":[],"stateMutability":"nonpayable"},{"type":"function","name":"removeSupportedRegion","inputs":[{"name":"_region","type":"string","internalType":"string"}],"outputs":[],"stateMutability":"nonpayable"},{"type":"function","name":"renounceOwnership","inputs":[],"outputs":[],"stateMutability":"nonpayable"},{"type":"function","name":"requestClimateData","inputs":[{"name":"_policyId","type":"uint256","internalType":"uint256"},{"name":"_parameterType","type":"string","internalType":"string"}],"outputs":[{"name":"","type":"bytes32","internalType":"bytes32"}],"stateMutability":"nonpayable"},{"type":"function","name":"setBaseRiskScore","inputs":[{"name":"_region","type":"string","internalType":"string"},{"name":"_cropType","type":"string","internalType":"string"},{"name":"_riskScore","type":"uint256","internalType":"uint256"}],"outputs":[],"stateMutability":"nonpayable"},{"type":"function","name":"setCancellationFeePercentage","inputs":[{"name":"_percentage","type":"uint256","internalType":"uint256"}],"outputs":[],"stateMutability":"nonpayable"},{"type":"function","name":"setCoverageLimits","inputs":[{"name":"_min","type":"uint256","internalType":"uint256"},{"name":"_max","type":"uint256","internalType":"uint256"}],"outputs":[],"stateMutability":"nonpayable"},{"type":"function","name":"setGovernanceContract","inputs":[{"name":"_governanceAddress","type":"address","internalType":"address"}],"outputs":[],"stateMutability":"nonpayable"},{"type":"function","name":"setMinimumPremiumPercentage","inputs":[{"name":"_percentage","type":"uint256","internalType":"uint256"}],"outputs":[],"stateMutability":"nonpayable"},{"type":"function","name":"setOracleContract","inputs":[{"name":"_oracleAddress","type":"address","internalType":"address"}],"outputs":[],"stateMutability":"nonpayable"},{"type":"function","name":"setRegionalOracles","inputs":[{"name":"_region","type":"string","internalType":"string"},{"name":"_oracles","type":"address[]","internalType":"address[]"}],"outputs":[],"stateMutability":"nonpayable"},{"type":"function","name":"setTreasuryContract","inputs":[{"name":"_treasuryAddress","type":"address","internalType":"address"}],"outputs":[],"stateMutability":"nonpayable"},{"type":"function","name":"transferOwnership","inputs":[{"name":"newOwner","type":"address","internalType":"address"}],"outputs":[],"stateMutability":"nonpayable"},{"type":"function","name":"unpause","inputs":[],"outputs":[],"stateMutability":"nonpayable"},{"type":"event","name":"ClaimTriggered","inputs":[{"name":"policyId","type":"uint256","indexed":true,"internalType":"uint256"},{"name":"farmer","type":"address","indexed":true,"internalType":"address"},{"name":"payoutAmount","type":"uint256","indexed":false,"internalType":"uint256"}],"anonymous":false},{"type":"event","name":"ClimateDataRequested","inputs":[{"name":"policyId","type":"uint256","indexed":true,"internalType":"uint256"},{"name":"requestId","type":"bytes32","indexed":false,"internalType":"bytes32"},{"name":"parameterType","type":"string","indexed":false,"internalType":"string"}],"anonymous":false},{"type":"event","name":"Initialized","inputs":[{"name":"version","type":"uint8","indexed":false,"internalType":"uint8"}],"anonymous":false},{"type":"event","name":"OwnershipTransferred","inputs":[{"name":"previousOwner","type":"address","indexed":true,"internalType":"address"},{"name":"newOwner","type":"address","indexed":true,"internalType":"address"}],"anonymous":false},{"type":"event","name":"Paused","inputs":[{"name":"account","type":"address","indexed":false,"internalType":"address"}],"anonymous":false},{"type":"event","name":"PolicyActivated","inputs":[{"name":"policyId","type":"uint256","indexed":true,"internalType":"uint256"},{"name":"premium","type":"uint256","indexed":false,"internalType":"uint256"}],"anonymous":false},{"type":"event","name":"PolicyCancelled","inputs":[{"name":"policyId","type":"uint256","indexed":true,"internalType":"uint256"},{"name":"refundAmount","type":"uint256","indexed":false,"internalType":"uint256"}],"anonymous":false},{"type":"event","name":"PolicyCreated","inputs":[{"name":"policyId","type":"uint256","indexed":true,"internalType":"uint256"},{"name":"farmer","type":"address","indexed":true,"internalType":"address"},{"name":"coverageAmount","type":"uint256","indexed":false,"internalType":"uint256"},{"name":"cropType","type":"string","indexed":false,"internalType":"string"}],"anonymous":false},{"type":"event","name":"PolicyExpired","inputs":[{"name":"policyId","type":"uint256","indexed":true,"internalType":"uint256"}],"anonymous":false},{"type":"event","name":"Unpaused","inputs":[{"name":"account","type":"address","indexed":false,"internalType":"address"}],"anonymous":false}],"bytecode":{"object":"0x6080806040523461001657613616908161001c8239f35b600080fdfe608080604052600436101561001357600080fd5b60003560e01c9081630d8e6e2c146128c1575080631129753f1461283457806312c0c534146127825780631ed65110146126f557806339f851601461269a5780633b03249c146125f25780633f4ba83a1461255e578063496ccd9b146124d85780635c975abb146124b5578063715018a61461245857806372362c87146123e457806378df9bb6146123c65780637dec3d2e1461130457806383d0e32f14610f525780638456cb5914610ef8578063871ae93a14610ce45780638b86d48a14610cb55780638da5cb5b14610c8c5780639bd52fa914610c4d5780639ee3ca9b14610bef578063b1df32cf14610b94578063b20e8bcc1461090b578063b93621ce14610813578063c0c53b8b146105bc578063cc03801014610357578063d1ce59a714610328578063eb2aa3bc146102ca578063f26e7065146101f25763f2fde38b1461015e57600080fd5b346101ed5760203660031901126101ed576101776129ec565b61017f612a5f565b6001600160a01b038116156101995761019790612ab7565b005b60405162461bcd60e51b815260206004820152602660248201527f4f776e61626c653a206e6577206f776e657220697320746865207a65726f206160448201526564647265737360d01b6064820152608490fd5b600080fd5b346101ed5760603660031901126101ed576001600160401b036004358181116101ed57610223903690600401612a02565b916024359081116101ed5761023c903690600401612a02565b91906044359361024a612a5f565b841515806102be575b156102845760208093826040519384928337810160da81520301902083604051948593843782019081520301902055005b60405162461bcd60e51b8152602060048201526012602482015271496e76616c6964207269736b2073636f726560701b6044820152606490fd5b50612710851115610253565b346101ed5760203660031901126101ed576004356001600160401b0381116101ed576102fc6020913690600401612a02565b9190610306612a5f565b82604051938492833760d790820190815203019020805460ff19166001179055005b346101ed5760003660031901126101ed57606060cd5460ce5460cf549060405192835260208301526040820152f35b346101ed5760203660031901126101ed5760405160043561037782612c8c565b6000825260006020830152600060408301526000606083015260006080830152600060a0830152600060c0830152600060e0830152606061018061010093600085820152600061012082015260006101408201528261016082015201528060005260ca6020526103ed8160406000205414612dcf565b60005260ca60205260406000209060cb60205261040e6040600020926134c4565b91805461041a81612d2a565b906104286040519283612cc3565b80825260208201809360005260206000206000915b8383106105945750505050610502604051948594604086528151604087015260018060a01b03602083015116606087015260408201516080870152606082015160a0870152608082015160c087015260a082015160e087015260c082015115158187015260e082015115156101208701528101516101408601526101208101516101608601526101408101516101808601526101806104ed6101608301516101a0808901526101e08801906129c7565b910151858203603f19016101c08701526129c7565b90838203602085015251808252602082019160208260051b82010193926000915b8383106105305786860387f35b919395509193602080600192601f1985820301865288519060808061055e845160a0855260a08501906129c7565b93858101518685015260408101516040850152606081015115156060850152015191015297019301930190928695949293610523565b600560206001926105a9859b98999a9b6130bc565b815201920192019190969594939661043d565b346101ed5760603660031901126101ed576105d56129ec565b6001600160a01b0360243581811692908390036101ed57604435908282168092036101ed576000549360ff8560081c161593848095610806575b80156107ef575b156107935760ff1980871660019081176000559686610781575b5061064b60ff60005460081c1661064681612b98565b612b98565b61065433612ab7565b61067f60ff60005460081c1661066981612b98565b61067281612b98565b8860655561064681612b98565b6097541660975561069160c954612b00565b601f8111610735575b50600a640312e302e360dc1b0160c9556101f460d3556107d060d45569d3c21bcecceda100000060d55567016345785d8a000060d6556001600160601b0360a01b92168260d054161760d0558160d154161760d15560d254161760d2556106fd57005b60207f7f26b83ff96e1f2b6a682f133852f6798a09c465da95921460cefb38474024989161ff001960005416600055604051908152a1005b60c960005286601f7f66be4f155c5ef2ebd3772b228f2f00681e4ed5826cdb3b1943cc11ad15ad1d28920160051c8201915b82811061077557505061069a565b60008155018790610767565b61ffff19166101011760005587610630565b60405162461bcd60e51b815260206004820152602e60248201527f496e697469616c697a61626c653a20636f6e747261637420697320616c72656160448201526d191e481a5b9a5d1a585b1a5e995960921b6064820152608490fd5b50303b1580156106165750600160ff871614610616565b50600160ff87161061060f565b346101ed5760403660031901126101ed576001600160401b036004358181116101ed57610844903690600401612a02565b916024358181116101ed5761085d903690600401612a2f565b92610866612a5f565b846040519586928337810160d981526020958691030190209183116108f557600160401b83116108f55781548383558084106108d8575b509060005282600020906000905b8382106108b457005b8035916001600160a01b03831683036101ed578560019201928185015501906108ab565b6108ef908360005284866000209182019101612b3a565b8461089d565b634e487b7160e01b600052604160045260246000fd5b346101ed576020806003193601126101ed576004358060005260ca82526109388160406000205414612dcf565b600081815260ca835260409020600101546001600160a01b03919082163303610b4f57610963612e45565b8060005260ca8352604060002091600683019283549161098560ff8416612e9b565b6004820154421015610b115760ff8360081c16610ad3579181610a0d936109c16003899501546127106109ba60d45483613113565b0490612e38565b96879360ff1916905560018160d154169201541660006040518096819582946302fad4a560e61b84528a600485016040919493926060820195825260018060a01b031660208201520152565b03925af1908115610ac757600091610a9a575b5015610a5c577f7c41b459dc71e42d9c8413ad0079d0a19b31e18ab9fb49082b826577e005f3fc83604051848152a26001606555604051908152f35b60405162461bcd60e51b8152600481018490526016602482015275151c99585cdd5c9e481c99599d5b990819985a5b195960521b6044820152606490fd5b610aba9150843d8611610ac0575b610ab28183612cc3565b810190612e13565b84610a20565b503d610aa8565b6040513d6000823e3d90fd5b60405162461bcd60e51b8152600481018790526016602482015275141bdb1a58de48185b1c9958591e4818db185a5b595960521b6044820152606490fd5b60405162461bcd60e51b8152600481018790526016602482015275141bdb1a58de48185b1c9958591e481cdd185c9d195960521b6044820152606490fd5b60405162461bcd60e51b815260048101849052601a60248201527f43616c6c6572206973206e6f7420706f6c696379206f776e65720000000000006044820152606490fd5b346101ed5760203660031901126101ed576004356001600160401b0381116101ed57610bc66020913690600401612a02565b9190610bd0612a5f565b82604051938492833760d790820190815203019020805460ff19169055005b346101ed5760203660031901126101ed576004356001600160401b0381116101ed57610c216020913690600401612a02565b9190610c2b612a5f565b82604051938492833760d890820190815203019020805460ff19166001179055005b346101ed5760203660031901126101ed57600435610c69612a5f565b80151580610c80575b610c7b9061359f565b60d355005b50611388811115610c72565b346101ed5760003660031901126101ed576033546040516001600160a01b039091168152602090f35b346101ed5760203660031901126101ed57600435610cd1612a5f565b610cdf61138882111561359f565b60d455005b6020806003193601126101ed5760043590610cfd612d8b565b8160005260ca8152610d158260406000205414612dcf565b610d1d612e45565b8160005260ca8152604060002090600682019182549060ff8216610ebb576004810154421015610e765760030192835491823410610e315760ff1916600117905560d154604051630eeab8ed60e41b81526004810186905291839183916024918391906001600160a01b03165af18015610ac757610e14575b50610da4825460ce54612e2b565b60ce55610db2825434612e38565b80158015610dee575b50507ff83ccf084d824ee54c49feff5dbce3c2ec49e68747e28bbfd429720226fed10e9154604051908152a26001606555005b600080809381938290610e0b575b3390f115610ac7578380610dbb565b506108fc610dfc565b610e2a90823d8411610ac057610ab28183612cc3565b5083610d96565b60405162461bcd60e51b815260048101859052601c60248201527f496e73756666696369656e74207072656d69756d207061796d656e74000000006044820152606490fd5b60405162461bcd60e51b815260048101849052601c60248201527f506f6c69637920737461727420646174652068617320706173736564000000006044820152606490fd5b60405162461bcd60e51b8152600481018490526015602482015274506f6c69637920616c72656164792061637469766560581b6044820152606490fd5b346101ed5760003660031901126101ed57610f11612a5f565b610f19612d8b565b600160ff1960975416176097557f62e78cea01bee320cd4e420270b5ea74000d11b0c9f74754ebdbfc544b05a2586020604051338152a1005b346101ed576003196040368201126101ed576024356001600160401b0381116101ed57610f83903690600401612a02565b90610f8c612d8b565b6004358060005260209160ca8352610faa8260406000205414612dcf565b8160005260ca835260406000209360ff6006860154610fca828216612e9b565b610fda6004880154421015612edb565b610fea6005880154421115612f20565b60081c161580156112f3575b610fff90612f61565b60009460005b8460005260cb8652604060002080548210156112e7578161102591612d6f565b506040516110488161103a8a82018095612fa4565b03601f198101835282612cc3565b519020604051878101908587833761106f8982888101600083820152038084520182612cc3565b519020146110855761108090612bf8565b611005565b5090919293945060015b156112a25760405185816110a681600a8601612fa4565b60d981520301902060405196878888845492838152018094600052896000209260005b8b828210611283575050506110e092500389612cc3565b8751156112465760d0546040516346aa782560e11b815260048101889052608060248201529798899489946001600160a01b0393841694909392909187919061114490600a61113360848b018d8f612d4e565b91868b84030160448c015201613027565b9287840301606488015251918281520192916000905b8282106112285750505050600083809203925af1938415610ac7576000946111d7575b50907f3bf0ce61f7eaf6fd0666d2734b024cb3aceb277f30b6c8196fb4752e201097a7918460005260cc8652836040600020556111cc6040519283928784526040898501526040840191612d4e565b0390a2604051908152f35b919093508482813d8311611221575b6111f08183612cc3565b810103126101ed579051927f3bf0ce61f7eaf6fd0666d2734b024cb3aceb277f30b6c8196fb4752e201097a761117d565b503d6111e6565b8351811685528c978c9750948501949093019260019091019061115a565b60405162461bcd60e51b815260048101889052601560248201527427379037b930b1b632b9903337b9103932b3b4b7b760591b6044820152606490fd5b85546001600160a01b031684526001958601958e9550930192016110c9565b60405162461bcd60e51b815260048101869052601c60248201527f506172616d657465722074797065206e6f7420696e20706f6c696379000000006044820152606490fd5b5050909192939461108f565b506007850154600286015411610ff6565b346101ed576101003660031901126101ed576004356001600160a01b03811690036101ed576084356001600160401b0381116101ed57611348903690600401612a02565b9060a4356001600160401b0381116101ed57611368903690600401612a02565b929060c4356001600160401b0381116101ed57611389903690600401612a2f565b909460e4356001600160401b0381116101ed576113aa903690600401612a02565b9690926113b5612d8b565b6004356001600160a01b0316156123885760d654602435106123435760d554602435116122fe574260443511156122b957604435606435111561226a5780156122265760ff6040518789823760d788820152602081898101030190205416156121ea5760ff6040518487823760208186810160d88152030190205416156121a55785156121675782156121225787156120dd5760005b818110611d7c575061145e368789612ce4565b9761146a368588612ce4565b61147383612d2a565b996114816040519b8c612cc3565b838b5260208b01368560051b8701116101ed5785905b8560051b87018210611cd35750506114e0916114c36020809381604051938285809451938492016129a4565b810160da81520301902082604051948386809551938492016129a4565b82019081520301902054978815611cc9575b600097885b8b518a10156115d95761151d90606460806115138f8e9061358b565b5101510490612e2b565b898c82606061152c848461358b565b510151156115b8575061154360649260209261358b565b510151046001810181116115a257600181011561158c578c600a60406115138e61157a611586976001611580980160640490612e2b565b9461358b565b99612bf8565b986114f7565b634e487b7160e01b600052601260045260246000fd5b634e487b7160e01b600052601160045260246000fd5b611586935060406115138461157a600a948560206115136115809a8a61358b565b8a908c816064810204606414821517156115a2575190811561158c576127109261162492606461160b93020490612e2b565b60d354808210611cc1575b506024999493959935613113565b04928361163260cd54612bf8565b9889948560cd556040518860408201602080840152528a8d6060830160608c60051b850101908d908d6000905b8110611be657505050946020846116f583958c98956116906117809f996117109c601f198282030182520385612cc3565b6040519b8c99868b01526001600160601b031960043560601b1660408b015260243560548b015260748a015260443560948a015260643560b48a01528c60d49a8b8b0137818d8a01918b830160008152370191888301600081528151948592016129a4565b019185830137016000838201520360b4810184520182612cc3565b602081519101206040519461172486612c8c565b8986526004356001600160a01b0316602087015260243560408701526060860152604435608086015260643560a0860152600060c0860181905260e0860181905261010086018190526101208601526101408501523691612ce4565b610160820152611791368588612ce4565b6101808201528460005260ca602052604060002090805182556001820160018060a01b036020830151166001600160601b0360a01b82541617905560408101516002830155606081015160038301556080810151600483015560a081015160058301556006820161181460c08301511515829060ff801983541691151516179055565b60e0820151151561ff0082549160081b169061ff0019161790556101008101516007830155610120810151600883015561014081015160098301556101608101518051906001600160401b0382116108f55761188082611877600a870154612b00565b600a8701612b51565b602090601f8311600114611b725761018093929160009183611b67575b50508160011b916000199060031b1c191617600a8401555b01518051906001600160401b0382116108f5576118e2826118d9600b860154612b00565b600b8601612b51565b602090601f8311600114611af757600b929160009183611aec575b50508160011b916000199060031b1c1916179101555b60005b81811061197a57505050817f3ba6e40afa81c8fea5bd9b9e8a175e2f7d27d2ac53139854cf6266c4e38add5c61196f602095604051918291602435835260408984015260018060a01b0360043516966040840191612d4e565b0390a3604051908152f35b8460005260cb602052604060002090611994818486612c07565b918054600160401b8110156108f5576119b291600182018155612d6f565b611ad6576119c08380612c3f565b906001600160401b0382116108f55781906119e5826119df8654612b00565b86612b51565b600090601f8311600114611a6e57600092611a63575b50508160011b916000199060031b1c19161781555b602083013560018201556040830135600282015560608301359283151584036101ed576080600491611a54611a5e96600386019060ff801983541691151516179055565b0135910155612bf8565b611916565b013590508a806119fb565b600085815260208120909450915b601f1984168510611abe576001945083601f19811610611aa4575b505050811b018155611a10565b0135600019600384901b60f8161c191690558a8080611a97565b81810135835560209485019460019093019201611a7c565b634e487b7160e01b600052600060045260246000fd5b0151905089806118fd565b90600b840160005260206000209160005b601f1985168110611b4f5750918391600193600b95601f19811610611b36575b505050811b01910155611913565b015160001960f88460031b161c19169055898080611b28565b91926020600181928685015181550194019201611b08565b015190508a8061189d565b90600a850160005260206000209160005b601f1985168110611bce57509183916001936101809695601f19811610611bb5575b505050811b01600a8401556118b5565b015160001960f88460031b161c191690558a8080611ba5565b91926020600181928685015181550194019201611b83565b9450949698999a509496509050605f19858203018352609e198c360301843512156101ed5783358c018035903603601e19018112156101ed576001600160401b038d863501820135116101ed5784358d018101803536036020909101136101ed5760208d600193611c6e839460a080845283019085858c350182013591868d35010101612d4e565b88358301808501358386015260408082013590840152909290611c9390606001612d41565b15156060830152608080918a350101359101529501930191018995938f91938f9a99989694938f948e61165f565b90508b611616565b6101f498506114f2565b6001600160401b038235116101ed5760a0823588013603126101ed5760405190611cfc82612c71565b8235880135906001600160401b0382116101ed5736601f8386358c01010112156101ed576020928392611d3a90369087358d01018035908601612ce4565b815284358a01808401358483015260408082013590830152606090611d60908201612d41565b9082015260808086358c01013590820152815201910190611497565b6020611d89828486612c07565b013515612098576040611d9d828486612c07565b01351561206257608080611db2838587612c07565b013515159081612048575b501561200357611de1611dda611dd4838587612c07565b80612c3f565b3691612ce4565b604051611e0b60208281611dfe81830196878151938492016129a4565b8101038084520182612cc3565b5190206040519060208201671c985a5b99985b1b60c21b8152600892838152611e3381612ca8565b5190208114918215611fd0575b8215611fa0575b508115611f6e575b8115611f3a575b8115611f09575b5015611ecb57611e71611dd4828486612c07565b905015611e8657611e8190612bf8565b61144b565b60405162461bcd60e51b815260206004820152601e60248201527f506172616d6574657220747970652063616e6e6f7420626520656d70747900006044820152606490fd5b60405162461bcd60e51b8152602060048201526016602482015275496e76616c696420706172616d65746572207479706560501b6044820152606490fd5b905060405160208101906966726f73745f6461797360b01b8252600a8152611f3081612ca8565b519020148a611e5d565b905060405160208101906b64726f756768745f6461797360a01b8252600c8152611f6381612ca8565b519020811490611e56565b90506040516020810190691dda5b9917dcdc19595960b21b8252600a8152611f9581612ca8565b519020811490611e4f565b90915060405160208101916768756d696469747960c01b83528152611fc481612ca8565b5190208114908b611e47565b915060405160208101906a74656d706572617475726560a81b8252600b8152611ff881612ca8565b519020811491611e40565b60405162461bcd60e51b815260206004820152601960248201527f496e76616c6964207061796f75742070657263656e74616765000000000000006044820152606490fd5b6127109150612058838587612c07565b013511158a611dbd565b60405162461bcd60e51b815260206004820152600e60248201526d125b9d985b1a59081c195c9a5bd960921b6044820152606490fd5b60405162461bcd60e51b815260206004820152601760248201527f496e76616c6964207468726573686f6c642076616c75650000000000000000006044820152606490fd5b60405162461bcd60e51b815260206004820152601d60248201527f5a4b2070726f6f6620686173682063616e6e6f7420626520656d7074790000006044820152606490fd5b60405162461bcd60e51b815260206004820152601960248201527f43726f7020747970652063616e6e6f7420626520656d707479000000000000006044820152606490fd5b60405162461bcd60e51b8152602060048201526016602482015275526567696f6e2063616e6e6f7420626520656d70747960501b6044820152606490fd5b60405162461bcd60e51b815260206004820152601760248201527f43726f702074797065206e6f7420737570706f727465640000000000000000006044820152606490fd5b60405162461bcd60e51b8152602060048201526014602482015273149959da5bdb881b9bdd081cdd5c1c1bdc9d195960621b6044820152606490fd5b606460405162461bcd60e51b815260206004820152602060248201527f4d7573742068617665206174206c65617374206f6e6520706172616d657465726044820152fd5b60405162461bcd60e51b815260206004820152602160248201527f456e642064617465206d757374206265206166746572207374617274206461746044820152606560f81b6064820152608490fd5b60405162461bcd60e51b815260206004820152601c60248201527f53746172742064617465206d75737420626520696e20667574757265000000006044820152606490fd5b60405162461bcd60e51b815260206004820152601860248201527f436f76657261676520616d6f756e7420746f6f206869676800000000000000006044820152606490fd5b60405162461bcd60e51b815260206004820152601760248201527f436f76657261676520616d6f756e7420746f6f206c6f770000000000000000006044820152606490fd5b60405162461bcd60e51b8152602060048201526016602482015275496e76616c6964206661726d6572206164647265737360501b6044820152606490fd5b346101ed5760003660031901126101ed57602060cd54604051908152f35b346101ed5760403660031901126101ed57602435600435612403612a5f565b8015158061244f575b156124195760d65560d555005b60405162461bcd60e51b815260206004820152600e60248201526d496e76616c6964206c696d69747360901b6044820152606490fd5b5080821161240c565b346101ed5760003660031901126101ed57612471612a5f565b603380546001600160a01b031981169091556000906001600160a01b03167f8be0079c531659141344cd1fd0a4f28419497f9722a3daafe3b4186f6b6457e08280a3005b346101ed5760003660031901126101ed57602060ff609754166040519015158152f35b346101ed5760203660031901126101ed576124f16129ec565b6124f9612a5f565b6001600160a01b03168015612520576001600160601b0360a01b60d054161760d055600080f35b60405162461bcd60e51b8152602060048201526016602482015275496e76616c6964206f7261636c65206164647265737360501b6044820152606490fd5b346101ed5760003660031901126101ed57612577612a5f565b60975460ff8116156125b65760ff19166097557f5db9ee0a495bf2e6ff9c91a7834c1ba4fdd244a5e8aa4e537bd38aeae4b073aa6020604051338152a1005b60405162461bcd60e51b815260206004820152601460248201527314185d5cd8589b194e881b9bdd081c185d5cd95960621b6044820152606490fd5b346101ed5760203660031901126101ed576004358060005260ca60205261261f8160406000205414612dcf565b60005260ca60205260a061263660406000206134c4565b60c081015115159060e08101511515906101008101518461265b826040850151612e38565b92015180421060001461269157612673904290612e38565b925b6040519485526020850152604084015260608301526080820152f35b50600092612675565b346101ed5760203660031901126101ed576004356001600160401b0381116101ed576126cc6020913690600401612a02565b91906126d6612a5f565b82604051938492833760d890820190815203019020805460ff19169055005b346101ed5760203660031901126101ed5761270e6129ec565b612716612a5f565b6001600160a01b0316801561273d576001600160601b0360a01b60d154161760d155600080f35b60405162461bcd60e51b815260206004820152601860248201527f496e76616c6964207472656173757279206164647265737300000000000000006044820152606490fd5b346101ed576003196040368201126101ed57602435906001600160401b0382116101ed5760c09082360301126101ed576127ba612d8b565b60d0546001600160a01b031633036127f8576127e56040916127da612e45565b600401600435613126565b6001606555825191151582526020820152f35b60405162461bcd60e51b815260206004820152601460248201527343616c6c6572206973206e6f74206f7261636c6560601b6044820152606490fd5b346101ed5760203660031901126101ed5761284d6129ec565b612855612a5f565b6001600160a01b0316801561287c576001600160601b0360a01b60d254161760d255600080f35b60405162461bcd60e51b815260206004820152601a60248201527f496e76616c696420676f7665726e616e636520616464726573730000000000006044820152606490fd5b346101ed5760003660031901126101ed57600060c9546128e081612b00565b8084529060019081811690811561297d5750600114612922575b61291e8461290a81860382612cc3565b6040519182916020835260208301906129c7565b0390f35b60c9600090815292507f66be4f155c5ef2ebd3772b228f2f00681e4ed5826cdb3b1943cc11ad15ad1d285b82841061296557505050810160200161290a826128fa565b8054602085870181019190915290930192810161294d565b60ff191660208087019190915292151560051b8501909201925061290a91508390506128fa565b60005b8381106129b75750506000910152565b81810151838201526020016129a7565b906020916129e0815180928185528580860191016129a4565b601f01601f1916010190565b600435906001600160a01b03821682036101ed57565b9181601f840112156101ed578235916001600160401b0383116101ed57602083818601950101116101ed57565b9181601f840112156101ed578235916001600160401b0383116101ed576020808501948460051b0101116101ed57565b6033546001600160a01b03163303612a7357565b606460405162461bcd60e51b815260206004820152602060248201527f4f776e61626c653a2063616c6c6572206973206e6f7420746865206f776e65726044820152fd5b603380546001600160a01b039283166001600160a01b0319821681179092559091167f8be0079c531659141344cd1fd0a4f28419497f9722a3daafe3b4186f6b6457e0600080a3565b90600182811c92168015612b30575b6020831014612b1a57565b634e487b7160e01b600052602260045260246000fd5b91607f1691612b0f565b818110612b45575050565b60008155600101612b3a565b9190601f8111612b6057505050565b612b8c926000526020600020906020601f840160051c83019310612b8e575b601f0160051c0190612b3a565b565b9091508190612b7f565b15612b9f57565b60405162461bcd60e51b815260206004820152602b60248201527f496e697469616c697a61626c653a20636f6e7472616374206973206e6f74206960448201526a6e697469616c697a696e6760a81b6064820152608490fd5b60001981146115a25760010190565b9190811015612c295760051b81013590609e19813603018212156101ed570190565b634e487b7160e01b600052603260045260246000fd5b903590601e19813603018212156101ed57018035906001600160401b0382116101ed576020019181360383136101ed57565b60a081019081106001600160401b038211176108f557604052565b6101a081019081106001600160401b038211176108f557604052565b604081019081106001600160401b038211176108f557604052565b90601f801991011681019081106001600160401b038211176108f557604052565b9291926001600160401b0382116108f55760405191612d0d601f8201601f191660200184612cc3565b8294818452818301116101ed578281602093846000960137010152565b6001600160401b0381116108f55760051b60200190565b359081151582036101ed57565b908060209392818452848401376000828201840152601f01601f1916010190565b8054821015612c29576000526005602060002091020190600090565b60ff60975416612d9757565b60405162461bcd60e51b815260206004820152601060248201526f14185d5cd8589b194e881c185d5cd95960821b6044820152606490fd5b15612dd657565b60405162461bcd60e51b8152602060048201526015602482015274141bdb1a58de48191bd95cc81b9bdd08195e1a5cdd605a1b6044820152606490fd5b908160209103126101ed575180151581036101ed5790565b919082018092116115a257565b919082039182116115a257565b600260655414612e56576002606555565b60405162461bcd60e51b815260206004820152601f60248201527f5265656e7472616e637947756172643a207265656e7472616e742063616c6c006044820152606490fd5b15612ea257565b60405162461bcd60e51b8152602060048201526011602482015270506f6c696379206e6f742061637469766560781b6044820152606490fd5b15612ee257565b60405162461bcd60e51b8152602060048201526016602482015275141bdb1a58de481b9bdd081cdd185c9d1959081e595d60521b6044820152606490fd5b15612f2757565b60405162461bcd60e51b8152602060048201526012602482015271141bdb1a58de481a185cc8195e1c1a5c995960721b6044820152606490fd5b15612f6857565b60405162461bcd60e51b8152602060048201526014602482015273141bdb1a58de48199d5b1b1e4818db185a5b595960621b6044820152606490fd5b600092918154612fb381612b00565b9260019180831690811561300c5750600114612fd0575b50505050565b90919293945060005260209081600020906000915b858310612ffb5750505050019038808080612fca565b805485840152918301918101612fe5565b60ff1916845250505081151590910201915038808080612fca565b906000929180549161303883612b00565b91828252600193848116908160001461309957506001146130595750505050565b90919394506000526020928360002092846000945b838610613085575050505001019038808080612fca565b80548587018301529401938590820161306e565b9294505050602093945060ff191683830152151560051b01019038808080612fca565b906040516130c981612c71565b6080600482946040516130e7816130e08185613027565b0382612cc3565b8452600181015460208501526002810154604085015260ff600382015416151560608501520154910152565b818102929181159184041417156115a257565b90916000918335835260209060cc825260409181838620540361348b5781855260ca8152828520946006860195865461316160ff8216612e9b565b6131716004830154421015612edb565b6131816005830154421115612f20565b60ff8160081c1615801561347a575b61319990612f61565b85516131a481612c71565b6060815283858201528387820152836060820152836080820152978398845b87865260cb8088528987208054831015613468578a898f9261320c6131eb8761322b93612d6f565b5084516131ff8161103a8782018095612fa4565b5190209483810190612c3f565b9290935183819483830196873781018d83820152038084520182612cc3565b51902014613242575061323d90612bf8565b6131c3565b888761326795969798999a9b9c9d506132619450528852898720612d6f565b506130bc565b9860015b156134195760608a01511561340b5787868b0151910135115b156133ff5760028301549060078401926127106132b285549460806132a98783612e38565b9e015190613113565b049a808c116133f7575b508a156133e95761ff0019166101001790556132d9908990612e2b565b90554260088201556132ed8760cf54612e2b565b60cf5560d154600191909101805486516303efe64760e11b8152600481018790526001600160a01b039182166024820152604481018a905290939192859082906064908290869089165af19182156133de57916133c1575b501561337d57907f54670ec983883d28abb8906cded5e917c55f33799021757df77f04071546be5a929154169351868152a360019190565b845162461bcd60e51b815260048101849052601760248201527f5472656173757279207061796d656e74206661696c65640000000000000000006044820152606490fd5b6133d89150843d8611610ac057610ab28183612cc3565b38613345565b8751903d90823e3d90fd5b505050505094505050508190565b9a50386132bc565b50505094505050508190565b87868b015191013510613284565b875162461bcd60e51b815260048101879052602260248201527f506172616d657465722074797065206e6f7420666f756e6420696e20706f6c69604482015261637960f01b6064820152608490fd5b5050509990919293949596979861326b565b506007820154600283015411613190565b60649083519062461bcd60e51b8252600482015260136024820152720a4cae2eacae6e840928840dad2e6dac2e8c6d606b1b6044820152fd5b90600b6101806040516134d681612c8c565b61358781958054835260018060a01b036001820154166020840152600281015460408401526003810154606084015260048101546080840152600581015460a084015260ff6006820154818116151560c086015260081c16151560e084015260078101546101008401526008810154610120840152600981015461014084015260405161356a816130e081600a8601613027565b6101608401526135806040518096819301613027565b0384612cc3565b0152565b8051821015612c295760209160051b010190565b156135a657565b60405162461bcd60e51b8152602060048201526012602482015271496e76616c69642070657263656e7461676560701b6044820152606490fdfea26469706673582212208e349e3d6aa20f908e21d9544544515ba1d845f0af60567efcc5f8076ad65a3364736f6c63430008130033","linkReferences":{}},"methodIdentifiers":{"activatePolicy(uint256)":"871ae93a","addSupportedCrop(string)":"9ee3ca9b","addSupportedRegion(string)":"eb2aa3bc","cancelPolicy(uint256)":"b20e8bcc","createPolicy(address,uint256,uint256,uint256,string,string,(string,uint256,uint256,bool,uint256)[],string)":"7dec3d2e","getPolicyCounter()":"78df9bb6","getPolicyDetails(uint256)":"cc038010","getPolicyStatus(uint256)":"3b03249c","getSystemStats()":"d1ce59a7","getVersion()":"0d8e6e2c","initialize(address,address,address)":"c0c53b8b","owner()":"8da5cb5b","pause()":"8456cb59","paused()":"5c975abb","processClaim(uint256,(bytes32,string,uint256,uint256,string,bytes))":"12c0c534","removeSupportedCrop(string)":"39f85160","removeSupportedRegion(string)":"b1df32cf","renounceOwnership()":"715018a6","requestClimateData(uint256,string)":"83d0e32f","setBaseRiskScore(string,string,uint256)":"f26e7065","setCancellationFeePercentage(uint256)":"8b86d48a","setCoverageLimits(uint256,uint256)":"72362c87","setGovernanceContract(address)":"1129753f","setMinimumPremiumPercentage(uint256)":"9bd52fa9","setOracleContract(address)":"496ccd9b","setRegionalOracles(string,address[])":"b93621ce","setTreasuryContract(address)":"1ed65110","transferOwnership(address)":"f2fde38b","unpause()":"3f4ba83a"},"id":90}