{"abi":[{"type":"constructor","inputs":[{"name":"treasuryAddr","type":"address","internalType":"address"},{"name":"initialSupply","type":"uint256","internalType":"uint256"},{"name":"maxSupplyCap","type":"uint256","internalType":"uint256"}],"stateMutability":"nonpayable"},{"type":"function","name":"CLOCK_MODE","inputs":[],"outputs":[{"name":"","type":"string","internalType":"string"}],"stateMutability":"view"},{"type":"function","name":"DOMAIN_SEPARATOR","inputs":[],"outputs":[{"name":"","type":"bytes32","internalType":"bytes32"}],"stateMutability":"view"},{"type":"function","name":"allowance","inputs":[{"name":"owner","type":"address","internalType":"address"},{"name":"spender","type":"address","internalType":"address"}],"outputs":[{"name":"","type":"uint256","internalType":"uint256"}],"stateMutability":"view"},{"type":"function","name":"approve","inputs":[{"name":"spender","type":"address","internalType":"address"},{"name":"amount","type":"uint256","internalType":"uint256"}],"outputs":[{"name":"","type":"bool","internalType":"bool"}],"stateMutability":"nonpayable"},{"type":"function","name":"balanceOf","inputs":[{"name":"account","type":"address","internalType":"address"}],"outputs":[{"name":"","type":"uint256","internalType":"uint256"}],"stateMutability":"view"},{"type":"function","name":"balanceOfAt","inputs":[{"name":"account","type":"address","internalType":"address"},{"name":"snapshotId","type":"uint256","internalType":"uint256"}],"outputs":[{"name":"","type":"uint256","internalType":"uint256"}],"stateMutability":"view"},{"type":"function","name":"burn","inputs":[{"name":"amount","type":"uint256","internalType":"uint256"}],"outputs":[],"stateMutability":"nonpayable"},{"type":"function","name":"burnFrom","inputs":[{"name":"account","type":"address","internalType":"address"},{"name":"amount","type":"uint256","internalType":"uint256"}],"outputs":[],"stateMutability":"nonpayable"},{"type":"function","name":"cap","inputs":[],"outputs":[{"name":"","type":"uint256","internalType":"uint256"}],"stateMutability":"view"},{"type":"function","name":"checkpoints","inputs":[{"name":"account","type":"address","internalType":"address"},{"name":"pos","type":"uint32","internalType":"uint32"}],"outputs":[{"name":"","type":"tuple","internalType":"struct ERC20Votes.Checkpoint","components":[{"name":"fromBlock","type":"uint32","internalType":"uint32"},{"name":"votes","type":"uint224","internalType":"uint224"}]}],"stateMutability":"view"},{"type":"function","name":"clock","inputs":[],"outputs":[{"name":"","type":"uint48","internalType":"uint48"}],"stateMutability":"view"},{"type":"function","name":"decimals","inputs":[],"outputs":[{"name":"","type":"uint8","internalType":"uint8"}],"stateMutability":"view"},{"type":"function","name":"decreaseAllowance","inputs":[{"name":"spender","type":"address","internalType":"address"},{"name":"subtractedValue","type":"uint256","internalType":"uint256"}],"outputs":[{"name":"","type":"bool","internalType":"bool"}],"stateMutability":"nonpayable"},{"type":"function","name":"delegate","inputs":[{"name":"delegatee","type":"address","internalType":"address"}],"outputs":[],"stateMutability":"nonpayable"},{"type":"function","name":"delegateBySig","inputs":[{"name":"delegatee","type":"address","internalType":"address"},{"name":"nonce","type":"uint256","internalType":"uint256"},{"name":"expiry","type":"uint256","internalType":"uint256"},{"name":"v","type":"uint8","internalType":"uint8"},{"name":"r","type":"bytes32","internalType":"bytes32"},{"name":"s","type":"bytes32","internalType":"bytes32"}],"outputs":[],"stateMutability":"nonpayable"},{"type":"function","name":"delegates","inputs":[{"name":"account","type":"address","internalType":"address"}],"outputs":[{"name":"","type":"address","internalType":"address"}],"stateMutability":"view"},{"type":"function","name":"eip712Domain","inputs":[],"outputs":[{"name":"fields","type":"bytes1","internalType":"bytes1"},{"name":"name","type":"string","internalType":"string"},{"name":"version","type":"string","internalType":"string"},{"name":"chainId","type":"uint256","internalType":"uint256"},{"name":"verifyingContract","type":"address","internalType":"address"},{"name":"salt","type":"bytes32","internalType":"bytes32"},{"name":"extensions","type":"uint256[]","internalType":"uint256[]"}],"stateMutability":"view"},{"type":"function","name":"getPastTotalSupply","inputs":[{"name":"timepoint","type":"uint256","internalType":"uint256"}],"outputs":[{"name":"","type":"uint256","internalType":"uint256"}],"stateMutability":"view"},{"type":"function","name":"getPastVotes","inputs":[{"name":"account","type":"address","internalType":"address"},{"name":"timepoint","type":"uint256","internalType":"uint256"}],"outputs":[{"name":"","type":"uint256","internalType":"uint256"}],"stateMutability":"view"},{"type":"function","name":"getVotes","inputs":[{"name":"account","type":"address","internalType":"address"}],"outputs":[{"name":"","type":"uint256","internalType":"uint256"}],"stateMutability":"view"},{"type":"function","name":"increaseAllowance","inputs":[{"name":"spender","type":"address","internalType":"address"},{"name":"addedValue","type":"uint256","internalType":"uint256"}],"outputs":[{"name":"","type":"bool","internalType":"bool"}],"stateMutability":"nonpayable"},{"type":"function","name":"mint","inputs":[{"name":"to","type":"address","internalType":"address"},{"name":"amount","type":"uint256","internalType":"uint256"}],"outputs":[],"stateMutability":"nonpayable"},{"type":"function","name":"name","inputs":[],"outputs":[{"name":"","type":"string","internalType":"string"}],"stateMutability":"view"},{"type":"function","name":"nonces","inputs":[{"name":"owner","type":"address","internalType":"address"}],"outputs":[{"name":"","type":"uint256","internalType":"uint256"}],"stateMutability":"view"},{"type":"function","name":"numCheckpoints","inputs":[{"name":"account","type":"address","internalType":"address"}],"outputs":[{"name":"","type":"uint32","internalType":"uint32"}],"stateMutability":"view"},{"type":"function","name":"owner","inputs":[],"outputs":[{"name":"","type":"address","internalType":"address"}],"stateMutability":"view"},{"type":"function","name":"permit","inputs":[{"name":"owner","type":"address","internalType":"address"},{"name":"spender","type":"address","internalType":"address"},{"name":"value","type":"uint256","internalType":"uint256"},{"name":"deadline","type":"uint256","internalType":"uint256"},{"name":"v","type":"uint8","internalType":"uint8"},{"name":"r","type":"bytes32","internalType":"bytes32"},{"name":"s","type":"bytes32","internalType":"bytes32"}],"outputs":[],"stateMutability":"nonpayable"},{"type":"function","name":"renounceOwnership","inputs":[],"outputs":[],"stateMutability":"nonpayable"},{"type":"function","name":"setTreasury","inputs":[{"name":"newTreasury","type":"address","internalType":"address"}],"outputs":[],"stateMutability":"nonpayable"},{"type":"function","name":"snapshot","inputs":[],"outputs":[],"stateMutability":"nonpayable"},{"type":"function","name":"symbol","inputs":[],"outputs":[{"name":"","type":"string","internalType":"string"}],"stateMutability":"view"},{"type":"function","name":"totalSupply","inputs":[],"outputs":[{"name":"","type":"uint256","internalType":"uint256"}],"stateMutability":"view"},{"type":"function","name":"totalSupplyAt","inputs":[{"name":"snapshotId","type":"uint256","internalType":"uint256"}],"outputs":[{"name":"","type":"uint256","internalType":"uint256"}],"stateMutability":"view"},{"type":"function","name":"transfer","inputs":[{"name":"to","type":"address","internalType":"address"},{"name":"amount","type":"uint256","internalType":"uint256"}],"outputs":[{"name":"","type":"bool","internalType":"bool"}],"stateMutability":"nonpayable"},{"type":"function","name":"transferFrom","inputs":[{"name":"from","type":"address","internalType":"address"},{"name":"to","type":"address","internalType":"address"},{"name":"amount","type":"uint256","internalType":"uint256"}],"outputs":[{"name":"","type":"bool","internalType":"bool"}],"stateMutability":"nonpayable"},{"type":"function","name":"transferOwnership","inputs":[{"name":"newOwner","type":"address","internalType":"address"}],"outputs":[],"stateMutability":"nonpayable"},{"type":"function","name":"treasury","inputs":[],"outputs":[{"name":"","type":"address","internalType":"address"}],"stateMutability":"view"},{"type":"event","name":"Approval","inputs":[{"name":"owner","type":"address","indexed":true,"internalType":"address"},{"name":"spender","type":"address","indexed":true,"internalType":"address"},{"name":"value","type":"uint256","indexed":false,"internalType":"uint256"}],"anonymous":false},{"type":"event","name":"DelegateChanged","inputs":[{"name":"delegator","type":"address","indexed":true,"internalType":"address"},{"name":"fromDelegate","type":"address","indexed":true,"internalType":"address"},{"name":"toDelegate","type":"address","indexed":true,"internalType":"address"}],"anonymous":false},{"type":"event","name":"DelegateVotesChanged","inputs":[{"name":"delegate","type":"address","indexed":true,"internalType":"address"},{"name":"previousBalance","type":"uint256","indexed":false,"internalType":"uint256"},{"name":"newBalance","type":"uint256","indexed":false,"internalType":"uint256"}],"anonymous":false},{"type":"event","name":"EIP712DomainChanged","inputs":[],"anonymous":false},{"type":"event","name":"OwnershipTransferred","inputs":[{"name":"previousOwner","type":"address","indexed":true,"internalType":"address"},{"name":"newOwner","type":"address","indexed":true,"internalType":"address"}],"anonymous":false},{"type":"event","name":"Snapshot","inputs":[{"name":"id","type":"uint256","indexed":false,"internalType":"uint256"}],"anonymous":false},{"type":"event","name":"Transfer","inputs":[{"name":"from","type":"address","indexed":true,"internalType":"address"},{"name":"to","type":"address","indexed":true,"internalType":"address"},{"name":"value","type":"uint256","indexed":false,"internalType":"uint256"}],"anonymous":false},{"type":"error","name":"InvalidShortString","inputs":[]},{"type":"error","name":"StringTooLong","inputs":[{"name":"str","type":"string","internalType":"string"}]}],"bytecode":{"object":"0x6101608060405234620000a2576060620043fb80380380916200002282620000bd565b843912620000a257516001600160a01b0381168103620000a2576200005090610180516101a051916200024e565b604051612fa5908162001416823960805181612612015260a051816126cd015260c051816125dc015260e051816126610152610100518161268701526101205181610c1e01526101405181610c470152f35b600080fd5b634e487b7160e01b600052604160045260246000fd5b601f01601f1916610160908101906001600160401b03821190821017620000e357604052565b620000a7565b604081019081106001600160401b03821117620000e357604052565b604051906200011482620000e9565b565b604051906200012582620000e9565b60048252565b604051906200013a82620000e9565b60018252565b604051906200014f82620000e9565b600982526820b3b937a1b430b4b760b91b6020830152565b156200016f57565b60405162461bcd60e51b815260206004820152601f60248201527f547265617375727920616464726573732063616e6e6f74206265207a65726f006044820152606490fd5b15620001bc57565b60405162461bcd60e51b815260206004820152601460248201527f436170206d75737420626520706f7369746976650000000000000000000000006044820152606490fd5b156200020957565b60405162461bcd60e51b815260206004820152601a60248201527f496e697469616c20737570706c792065786365656473206361700000000000006044820152606490fd5b9291926200025b62000140565b936200026662000140565b946200027162000116565b906020634147524f60e01b818401526200028a6200012b565b603160f81b828201908152895190999194916001600160401b038211620000e357620002c382620002bd60035462000459565b62000496565b8390601f8311600114620003bc5792826200038f989795936200030c93620001149d9e9896600092620003b0575b50508160011b916000199060031b1c191617600355620005fa565b6200031733620006ed565b620003228262000736565b61012052620003318362000849565b61014052815191012060e052519020610100524660a05262000352620009fa565b6080523060c0526200036f6001600160a01b038416151562000167565b6200037c811515620001b4565b6200038a8185111562000201565b601155565b601280546001600160a01b0319166001600160a01b03831617905562000acc565b015190503880620002f1565b6003600052601f19831691907fc2575a0e9e593c00f959f8c92f12db2869c3395a3b0502d05e2516446f71f85b9260005b818110620004415750936200030c93620001149d9e989693600193836200038f9d9c9a981062000427575b505050811b01600355620005fa565b015160001960f88460031b161c1916905538808062000418565b929387600181928786015181550195019301620003ed565b90600182811c921680156200048b575b60208310146200047557565b634e487b7160e01b600052602260045260246000fd5b91607f169162000469565b601f8111620004a3575050565b6000906003825260208220906020601f850160051c83019410620004e4575b601f0160051c01915b828110620004d857505050565b818155600101620004cb565b9092508290620004c2565b601f8111620004fc575050565b6000906004825260208220906020601f850160051c830194106200053d575b601f0160051c01915b8281106200053157505050565b81815560010162000524565b90925082906200051b565b601f811162000555575050565b600090600a825260208220906020601f850160051c8301941062000596575b601f0160051c01915b8281106200058a57505050565b8181556001016200057d565b909250829062000574565b601f8111620005ae575050565b600090600b825260208220906020601f850160051c83019410620005ef575b601f0160051c01915b828110620005e357505050565b818155600101620005d6565b9092508290620005cd565b80519091906001600160401b038111620000e35762000626816200062060045462000459565b620004ef565b602080601f831160011462000665575081929360009262000659575b50508160011b916000199060031b1c191617600455565b01519050388062000642565b6004600052601f198316949091907f8a35acfbc15ff81a39ae7d344fd709f28e8600b4aa8c65c6b64bfe7fe36bd19b926000905b878210620006d4575050836001959610620006ba575b505050811b01600455565b015160001960f88460031b161c19169055388080620006af565b8060018596829496860151815501950193019062000699565b600980546001600160a01b039283166001600160a01b0319821681179092559091167f8be0079c531659141344cd1fd0a4f28419497f9722a3daafe3b4186f6b6457e0600080a3565b9081516020808210600014620007575750509062000754906200097d565b90565b6001600160401b038211620000e3576200077e8262000778600a5462000459565b62000548565b80601f8311600114620007be5750819293600092620007b2575b50508160011b916000199060031b1c191617600a5560ff90565b01519050388062000798565b600a600052601f198316949091907fc65a7bb8d6351c1cf70c95a316cc6a92839c986682d98bc35f958f4883f9d2a8926000905b8782106200083057505083600195961062000816575b505050811b01600a5560ff90565b015160001960f88460031b161c1916905538808062000808565b80600185968294968601518155019501930190620007f2565b9081516020808210600014620008675750509062000754906200097d565b6001600160401b038211620000e3576200088e8262000888600b5462000459565b620005a1565b80601f8311600114620008ce5750819293600092620008c2575b50508160011b916000199060031b1c191617600b5560ff90565b015190503880620008a8565b600b600052601f198316949091907f0175b7a638427703f0dbe7bb9bbf987a2551717b34e79f33b5b1008d1fa01db9926000905b8782106200094057505083600195961062000926575b505050811b01600b5560ff90565b015160001960f88460031b161c1916905538808062000918565b8060018596829496860151815501950193019062000902565b6020815191015190602081106200096e575090565b6000199060200360031b1b1690565b601f8151116200099857620009928162000959565b90511790565b6040519063305a27a960e01b82528160208060048301528251908160248401526000935b828510620009e0575050604492506000838284010152601f80199101168101030190fd5b8481018201518686016044015293810193859350620009bc565b60e051610100516040519060208201927f8b73c3c69bb8fe3d512ecc4cf759cc79239f7b179b0ffacaa9a75d522b39400f8452604083015260608201524660808201523060a082015260a0815260c0810181811060018060401b03821117620000e35760405251902090565b1562000a6e57565b60405162461bcd60e51b815260206004820152603060248201527f4552433230566f7465733a20746f74616c20737570706c79207269736b73206f60448201526f766572666c6f77696e6720766f74657360801b6064820152608490fd5b6001600160a01b0381169190821562000c5e57826000526005602052604060002060006020526040600020546008548062000b0784620012c4565b1062000c3b575b505050600254600854908162000b2362001293565b1062000bbd575b50508162000b9b9162000bb99462000b4e62000b498460025462000cb9565b600255565b6001600160a01b038216600090815260208181526040808320805487019055518581527fddf252ad1be2c89b69c2b068fc378daa952ba7f163c4a11628f55a4df523b3ef9190a3620012eb565b60025462000bb3906001600160e01b03101562000a66565b62000e3a565b5050565b9091600654680100000000000000009384821015620000e35762000bec82600162000c05940160065562000d02565b90919082549060031b91821b91600019901b1916179055565b60075492831015620000e35762000bb99462000c32859362000bec86600162000b9b980160075562000d34565b94509162000b2a565b8262000c4e60019262000c559562001267565b0162001267565b38808062000b0e565b60405162461bcd60e51b815260206004820152601f60248201527f45524332303a206d696e7420746f20746865207a65726f2061646472657373006044820152606490fd5b634e487b7160e01b600052601160045260246000fd5b9190820180921162000cc757565b62000ca3565b604080519192919081016001600160401b03811182821017620000e357604052602081935463ffffffff81168352811c910152565b60065481101562000d1e57600660005260206000200190600090565b634e487b7160e01b600052603260045260246000fd5b60075481101562000d1e57600760005260206000200190600090565b805482101562000d1e5760005260206000200190600090565b6010549068010000000000000000821015620000e357600182018060105582101562000d1e576010600052805160209182015190911b63ffffffff191663ffffffff91909116177f1b6847dc741a1b0cd08d278845f9d819d87b734759afb55fe2de5cb82a9ae67290910155565b805468010000000000000000811015620000e35762000dfc9160018201815562000d50565b62000e2457815160209283015190921b63ffffffff191663ffffffff92909216919091179055565b634e487b7160e01b600052600060045260246000fd5b6010549091811591821562000f715762000e5362000105565b60008152600060208201525b602081015162000e8c9062000e84906001600160e01b03165b6001600160e01b031690565b9586620013f9565b9315908162000f4a575b501562000ee257620001149062000ecb62000eb1856200112f565b601060005291600080516020620043bb8339815191520190565b9063ffffffff82549181199060201b169116179055565b506200011462000f0b62000f0562000efa4362001199565b65ffffffffffff1690565b62001201565b62000f4462000f1a856200112f565b62000f3462000f2862000105565b63ffffffff9094168452565b6001600160e01b03166020830152565b62000d69565b5163ffffffff16905063ffffffff62000f6762000efa4362001199565b9116143862000e96565b601060005262000f98600080516020620043bb833981519152820162000ccd565b62000ccd565b62000e5f565b909181549182159283600014620010a25762000fb962000105565b60008152600060208201525b602081015162000feb9062000fe3906001600160e01b031662000e78565b968762001407565b941590816200107b575b5015620010225762000ecb620001149262001010866200112f565b92600019019060005260206000200190565b5062000114906200103b62000f0562000efa4362001199565b90620010756200104b866200112f565b620010656200105962000105565b63ffffffff9095168552565b6001600160e01b03166020840152565b62000dd7565b5163ffffffff16905063ffffffff6200109862000efa4362001199565b9116143862000ff5565b620010bc62000f9260001983018460005260206000200190565b62000fc5565b9091815491821592836000146200110f57620010dd62000105565b60008152600060208201525b602081015162000feb9062001107906001600160e01b031662000e78565b9687620013f9565b6200112962000f9260001983018460005260206000200190565b620010e9565b6001600160e01b039081811162001144571690565b60405162461bcd60e51b815260206004820152602760248201527f53616665436173743a2076616c756520646f65736e27742066697420696e20326044820152663234206269747360c81b6064820152608490fd5b65ffffffffffff90818111620011ad571690565b60405162461bcd60e51b815260206004820152602660248201527f53616665436173743a2076616c756520646f65736e27742066697420696e203460448201526538206269747360d01b6064820152608490fd5b63ffffffff9081811162001213571690565b60405162461bcd60e51b815260206004820152602660248201527f53616665436173743a2076616c756520646f65736e27742066697420696e203360448201526532206269747360d01b6064820152608490fd5b9081549168010000000000000000831015620000e3578262000bec916001620001149501815562000d50565b60065480620012a25750600090565b600019810190811162000cc757620012ba9062000d02565b90549060031b1c90565b805480620012d3575050600090565b600019810190811162000cc757620012ba9162000d50565b600e6020527fe710864318d4a32f37d6ce54cb3fadbef648dd12d8dbdf53973564d56b7f881c546001600160a01b039182166000908152604081205483169392909116908184141580620013ef575b62001346575b50505050565b829082620013ae575b5050508162001361575b808062001340565b6001600160a01b0382166000908152600f60205260409020600080516020620043db833981519152916200139591620010c2565b60408051928352602083019190915290a2388062001359565b600080516020620043db8339815191529160408285620013d59452600f6020522062000f9e565b60408051928352602083019190915290a23881816200134f565b508215156200133a565b90810180911162000cc75790565b90810390811162000cc7579056fe6080604052600436101561001257600080fd5b60003560e01c806306fdde0314610267578063095ea7b31461026257806318160ddd1461025d57806323b872dd14610258578063313ce56714610253578063355274ea1461024e5780633644e5151461024957806339509351146102445780633a46b1a81461023f57806340c10f191461023a57806342966c68146102355780634bf5d7e9146102305780634ee2cd7e1461022b578063587cde1e146102265780635c19a95c1461022157806361d027b31461021c5780636fcfff451461021757806370a0823114610212578063715018a61461020d57806379cc6790146102085780637ecebe001461020357806384b0196e146101fe5780638da5cb5b146101f95780638e539e8c146101f457806391ddadf4146101ef57806395d89b41146101ea5780639711715a146101e5578063981b24d0146101e05780639ab24eb0146101db578063a457c2d7146101d6578063a9059cbb146101d1578063c3cda520146101cc578063d505accf146101c7578063dd62ed3e146101c2578063f0f44260146101bd578063f1127ed8146101b85763f2fde38b146101b357600080fd5b6114ad565b611426565b611399565b611341565b6111fb565b6110d0565b61108a565b610fd0565b610f6e565b610f36565b610ee7565b610e40565b610e14565b610d24565b610cfb565b610c03565b610bc9565b610b0c565b610aae565b610a74565b610a2c565b610a03565b6109e1565b6109a6565b610949565b610897565b6107b4565b610663565b610512565b6104ba565b610497565b610479565b61045d565b610425565b610407565b6103d6565b6102c0565b919082519283825260005b848110610298575050826000602080949584010152601f8019910116010190565b602081830181015184830182015201610277565b9060206102bd92818152019061026c565b90565b346103a5576000806003193601126103a25760405190806003546102e3816115c9565b80855291600191808316908115610378575060011461031d575b6103198561030d81870382611672565b604051918291826102ac565b0390f35b9250600383527fc2575a0e9e593c00f959f8c92f12db2869c3395a3b0502d05e2516446f71f85b5b82841061036057505050810160200161030d826103196102fd565b80546020858701810191909152909301928101610345565b8695506103199693506020925061030d94915060ff191682840152151560051b82010192936102fd565b80fd5b600080fd5b600435906001600160a01b03821682036103a557565b602435906001600160a01b03821682036103a557565b346103a55760403660031901126103a5576103fc6103f26103aa565b602435903361187e565b602060405160018152f35b346103a55760003660031901126103a5576020600254604051908152f35b346103a55760603660031901126103a5576103fc6104416103aa565b6104496103c0565b604435916104588333836119ae565b611778565b346103a55760003660031901126103a557602060405160128152f35b346103a55760003660031901126103a5576020601154604051908152f35b346103a55760003660031901126103a55760206104b26125d9565b604051908152f35b346103a55760403660031901126103a5576104d36103aa565b3360009081526001602090815260408083206001600160a01b0385168452909152902054602435810180911161050d576103fc913361187e565b611694565b346103a55760403660031901126103a55761052b6103aa565b6024359061054a65ffffffffffff61054243612abc565b168310611c6a565b6001600160a01b03166000908152600f6020526040812080549290918360058111610612575b50905b8382106105c15750508161059a575050602060005b6040516001600160e01b039091168152f35b6105b56105bc91602093600019019060005260206000200190565b5460201c90565b610588565b90926105cd81856128ec565b908263ffffffff6105f26105e8858860005260206000200190565b5463ffffffff1690565b1611156106025750925b90610573565b935061060d906116aa565b6105fc565b8061062261062892969396612901565b90611cc5565b908263ffffffff6106436105e8858860005260206000200190565b1611156106535750925b38610570565b935061065e906116aa565b61064d565b346103a55760403660031901126103a55761067c6103aa565b602435610687611571565b60025481810180911161050d576011541061076f576001600160a01b03821691821561072a578181610728946106bf61070d94612b88565b6106d36106ce846002546116b8565b600255565b6001600160a01b03821660009081526020818152604080832080548701905551858152600080516020612f508339815191529190a3612dae565b600254610723906001600160e01b031015612e79565b612069565b005b60405162461bcd60e51b815260206004820152601f60248201527f45524332303a206d696e7420746f20746865207a65726f2061646472657373006044820152606490fd5b60405162461bcd60e51b815260206004820152601960248201527f45524332304361707065643a20636170206578636565646564000000000000006044820152606490fd5b346103a55760203660031901126103a557600435331561084857610728906107db33612b99565b3360009081526020819052604090208190546107f982821015612ede565b336000908152602081905260409020919003905561081a8160025403600255565b6040518181526000903390600080516020612f5083398151915290602090a36108438133612df9565b612159565b60405162461bcd60e51b815260206004820152602160248201527f45524332303a206275726e2066726f6d20746865207a65726f206164647265736044820152607360f81b6064820152608490fd5b346103a55760003660031901126103a5574365ffffffffffff6108b943612abc565b1603610904576103196040516108ce81611619565b601d81527f6d6f64653d626c6f636b6e756d6265722666726f6d3d64656661756c740000006020820152604051918291826102ac565b60405162461bcd60e51b815260206004820152601d60248201527f4552433230566f7465733a2062726f6b656e20636c6f636b206d6f64650000006044820152606490fd5b346103a55760403660031901126103a55760206001600160a01b0361096c6103aa565b1660008181526005835261098560408220602435611bff565b929015610996575050604051908152f35b60409250815280835220546104b2565b346103a55760203660031901126103a55760206001600160a01b03806109ca6103aa565b16600052600e825260406000205416604051908152f35b346103a55760203660031901126103a5576107286109fd6103aa565b33611d1e565b346103a55760003660031901126103a5576012546040516001600160a01b039091168152602090f35b346103a55760203660031901126103a5576001600160a01b03610a4d6103aa565b16600052600f6020526020610a66604060002054612b23565b63ffffffff60405191168152f35b346103a55760203660031901126103a5576001600160a01b03610a956103aa565b1660005260006020526020604060002054604051908152f35b346103a5576000806003193601126103a257610ac8611571565b600980546001600160a01b0319811690915581906001600160a01b03167f8be0079c531659141344cd1fd0a4f28419497f9722a3daafe3b4186f6b6457e08280a380f35b346103a55760403660031901126103a557610b256103aa565b602435610b338133846119ae565b6001600160a01b038216918215610848578181600061072895610b5861084395612b99565b6001600160a01b0383166000908152602081905260409020849054610b7f82821015612ede565b03610b9c8460018060a01b03166000526000602052604060002090565b55610baa8460025403600255565b604051848152600080516020612f5083398151915290602090a3612df9565b346103a55760203660031901126103a5576001600160a01b03610bea6103aa565b16600052600c6020526020604060002054604051908152f35b346103a5576000806003193601126103a257610cad90610c427f0000000000000000000000000000000000000000000000000000000000000000612719565b610c6b7f0000000000000000000000000000000000000000000000000000000000000000612812565b9160405191610c798361163a565b818352604051948594600f60f81b8652610c9f60209360e08589015260e088019061026c565b90868203604088015261026c565b904660608601523060808601528260a086015284820360c08601528080855193848152019401925b828110610ce457505050500390f35b835185528695509381019392810192600101610cd5565b346103a55760003660031901126103a5576009546040516001600160a01b039091168152602090f35b346103a55760203660031901126103a557600435610d5365ffffffffffff610d4b43612abc565b168210611c6a565b6010549060008260058111610dd1575b50905b828210610d92578280610d80575060405160008152602090f35b6105bc6105b56020926000190161226b565b9091610d9e81846128ec565b908263ffffffff610db16105e88561226b565b161115610dc15750915b90610d66565b9250610dcc906116aa565b610dbb565b80610622610de192959395612901565b908263ffffffff610df46105e88561226b565b161115610e045750915b38610d63565b9250610e0f906116aa565b610dfe565b346103a55760003660031901126103a5576020610e3043612abc565b65ffffffffffff60405191168152f35b346103a5576000806003193601126103a2576040519080600454610e63816115c9565b808552916001918083169081156103785750600114610e8c576103198561030d81870382611672565b9250600483527f8a35acfbc15ff81a39ae7d344fd709f28e8600b4aa8c65c6b64bfe7fe36bd19b5b828410610ecf57505050810160200161030d826103196102fd565b80546020858701810191909152909301928101610eb4565b346103a55760003660031901126103a557610f00611571565b7f8030e83b04d87bef53480e26263266d6ca66863aa8506aca6f2559d18aa1cb67602060016008540180600855604051908152a1005b346103a55760203660031901126103a557610f52600435611b7b565b9015610f6357602090604051908152f35b5060206002546104b2565b346103a55760203660031901126103a5576001600160a01b03610f8f6103aa565b16600052600f602052604060002080548015600014610fb657505060405160008152602090f35b602091610fc7916000190190611b63565b5054811c610588565b346103a55760403660031901126103a557610fe96103aa565b602435903360005260016020526110168160406000209060018060a01b0316600052602052604060002090565b54918083106110375761102b9203903361187e565b60405160018152602090f35b60405162461bcd60e51b815260206004820152602560248201527f45524332303a2064656372656173656420616c6c6f77616e63652062656c6f77604482015264207a65726f60d81b6064820152608490fd5b346103a55760403660031901126103a5576103fc6110a66103aa565b6024359033611778565b6064359060ff821682036103a557565b6084359060ff821682036103a557565b346103a55760c03660031901126103a5576110e96103aa565b604435906024356110f86110b0565b928042116111b6576111886111b1916107289560405190611170826111626020820195898b8860609194939260808201957fe48329057bfd03d55e49b547132e39cffd9c1820ad7b9d4c5307691425d15adf835260018060a01b0316602083015260408201520152565b03601f198101845283611672565b61118360a43593608435935190206126f3565b6123f3565b6001600160a01b0381166000908152600c60205260409020805460018101909155909214611cd2565b611d1e565b60405162461bcd60e51b815260206004820152601d60248201527f4552433230566f7465733a207369676e617475726520657870697265640000006044820152606490fd5b346103a55760e03660031901126103a5576112146103aa565b61121c6103c0565b604435906064359261122c6110c0565b938042116112fc576112e46112f791611162610728976112d161126a8760018060a01b0316600052600c602052604060002090815491600183019055565b604080517f6e71edae12b1b97f4d1f60370fef10105fa2faae0126114a169c64845d6126c9602082019081526001600160a01b03808c1693830193909352918b166060820152608081018c905260a081019290925260c082019590955292839060e0820190565b61118360c4359360a435935190206126f3565b6001600160a01b03838116911614611a47565b61187e565b60405162461bcd60e51b815260206004820152601d60248201527f45524332305065726d69743a206578706972656420646561646c696e650000006044820152606490fd5b346103a55760403660031901126103a557602061139061135f6103aa565b6113676103c0565b6001600160a01b0391821660009081526001855260408082209290931681526020919091522090565b54604051908152f35b346103a55760203660031901126103a5576113b26103aa565b6113ba611571565b6001600160a01b031680156113e1576001600160601b0360a01b6012541617601255600080f35b60405162461bcd60e51b815260206004820152601f60248201527f547265617375727920616464726573732063616e6e6f74206265207a65726f006044820152606490fd5b346103a55760403660031901126103a55761143f6103aa565b63ffffffff60243581811681036103a55761148961148f9160409460006020875161146981611619565b82815201526001600160a01b03166000908152600f602052859020611b63565b50611c48565b8251815190921682526020908101516001600160e01b031690820152f35b346103a55760203660031901126103a5576114c66103aa565b6114ce611571565b6001600160a01b0390811690811561151d57600954826001600160601b0360a01b821617600955167f8be0079c531659141344cd1fd0a4f28419497f9722a3daafe3b4186f6b6457e0600080a3005b60405162461bcd60e51b815260206004820152602660248201527f4f776e61626c653a206e6577206f776e657220697320746865207a65726f206160448201526564647265737360d01b6064820152608490fd5b6009546001600160a01b0316330361158557565b606460405162461bcd60e51b815260206004820152602060248201527f4f776e61626c653a2063616c6c6572206973206e6f7420746865206f776e65726044820152fd5b90600182811c921680156115f9575b60208310146115e357565b634e487b7160e01b600052602260045260246000fd5b91607f16916115d8565b634e487b7160e01b600052604160045260246000fd5b6040810190811067ffffffffffffffff82111761163557604052565b611603565b6020810190811067ffffffffffffffff82111761163557604052565b60c0810190811067ffffffffffffffff82111761163557604052565b90601f8019910116810190811067ffffffffffffffff82111761163557604052565b634e487b7160e01b600052601160045260246000fd5b906001820180921161050d57565b9190820180921161050d57565b156116cc57565b60405162461bcd60e51b815260206004820152602360248201527f45524332303a207472616e7366657220746f20746865207a65726f206164647260448201526265737360e81b6064820152608490fd5b1561172457565b60405162461bcd60e51b815260206004820152602660248201527f45524332303a207472616e7366657220616d6f756e7420657863656564732062604482015265616c616e636560d01b6064820152608490fd5b6001600160a01b03929190838116801561182b576118299483169061179e8215156116c5565b6117a88484612c31565b6001600160a01b03831660009081526020819052604090208590546117cf8282101561171d565b036117ec8460018060a01b03166000526000602052604060002090565b556001600160a01b038416600090815260208181526040918290208054880190559051868152600080516020612f508339815191529190a3612e47565b565b60405162461bcd60e51b815260206004820152602560248201527f45524332303a207472616e736665722066726f6d20746865207a65726f206164604482015264647265737360d81b6064820152608490fd5b6001600160a01b03808216929190831561195d57821693841561190d57806118f77f8c5be1e5ebec7d5bd14f71427d1e84f3dd0314c0f7b2291e5b200ac8c7c3b925946118e06119089560018060a01b03166000526001602052604060002090565b9060018060a01b0316600052602052604060002090565b556040519081529081906020820190565b0390a3565b60405162461bcd60e51b815260206004820152602260248201527f45524332303a20617070726f766520746f20746865207a65726f206164647265604482015261737360f01b6064820152608490fd5b60405162461bcd60e51b8152602060048201526024808201527f45524332303a20617070726f76652066726f6d20746865207a65726f206164646044820152637265737360e01b6064820152608490fd5b6001600160a01b0380821660009081526001602090815260408083209386168352929052209091905492600184016119e7575b50505050565b808410611a02576119f993039161187e565b388080806119e1565b60405162461bcd60e51b815260206004820152601d60248201527f45524332303a20696e73756666696369656e7420616c6c6f77616e63650000006044820152606490fd5b15611a4e57565b60405162461bcd60e51b815260206004820152601e60248201527f45524332305065726d69743a20696e76616c6964207369676e617475726500006044820152606490fd5b15611a9a57565b60405162461bcd60e51b815260206004820152601d60248201527f4552433230536e617073686f743a206e6f6e6578697374656e742069640000006044820152606490fd5b600754811015611b165760076000527fa66cc928b5edb82af9bd49922954155ab7b0942694bea4ce44661d9a8736c6880190600090565b634e487b7160e01b600052603260045260246000fd5b600654811015611b165760066000527ff652222313e28459528d920b65115c16c04f3efc82aaedc97be59f3f377c0d3f0190600090565b8054821015611b165760005260206000200190600090565b8015611bc157611b9890611b93600854821115611a93565b612295565b6006548103611baa5750600090600090565b611bb390611adf565b90549060031b1c9060019190565b60405162461bcd60e51b815260206004820152601660248201527504552433230536e617073686f743a20696420697320360541b6044820152606490fd5b8015611bc157611c1d90611c17600854821115611a93565b82612364565b81548103611c2f575050600090600090565b6001611bb39201611b63565b6040519061182982611619565b90604051611c5581611619565b602081935463ffffffff81168352811c910152565b15611c7157565b60405162461bcd60e51b815260206004820152601960248201527f4552433230566f7465733a20667574757265206c6f6f6b7570000000000000006044820152606490fd5b60001981019190821161050d57565b9190820391821161050d57565b15611cd957565b60405162461bcd60e51b815260206004820152601960248201527f4552433230566f7465733a20696e76616c6964206e6f6e6365000000000000006044820152606490fd5b6118299160018060a01b03809216600092818452600e602052806040852054168092856020527f3134e8a2e6d97e929a7e54011ea5485d7d196dd5f0ba4d4ef95803e8e3fc257f604087205496600e6020526040812094871694856001600160601b0360a01b82541617905580a45b6001600160a01b03808316939291168084141580611f9f575b611db05750505050565b80611e1e575b5082611dc3575b806119e1565b6001600160a01b03166000908152600f602052604090207fdec2bacdd2f05b59de34da9b523dff8be42e5e38e818c82fdb0bae774387a72491611e05916121b2565b60408051928352602083019190915290a2388080611dbd565b80600052600f6020527fdec2bacdd2f05b59de34da9b523dff8be42e5e38e818c82fdb0bae774387a7246040600020805480159182600014611f7c57611e62611c3b565b6000815260006020820152915b6020830151611e8e906001600160e01b03165b6001600160e01b031690565b92611e998985612f35565b94159081611f59575b5015611ef757611eca611ee192611eb886612a53565b92600019019060005260206000200190565b9063ffffffff82549181199060201b169116179055565b604080519182526020820192909252a238611db6565b50611f5490611f1b611f16611f0b43612abc565b65ffffffffffff1690565b612b23565b90611f4f611f2886612a53565b611f3f611f33611c3b565b63ffffffff9095168552565b6001600160e01b03166020840152565b61200f565b611ee1565b5163ffffffff16905063ffffffff611f73611f0b43612abc565b91161438611ea2565b611f99611f9460001984018360005260206000200190565b611c48565b91611e6f565b50821515611da6565b60105490600160401b821015611635576001820180601055821015611b16576010600052805160209182015190911b63ffffffff191663ffffffff91909116177f1b6847dc741a1b0cd08d278845f9d819d87b734759afb55fe2de5cb82a9ae67290910155565b8054600160401b8110156116355761202c91600182018155611b63565b61205357815160209283015190921b63ffffffff191663ffffffff92909216919091179055565b634e487b7160e01b600052600060045260246000fd5b601054909181159182156121445761207f611c3b565b60008152600060208201525b60208101516120ad906120a6906001600160e01b0316611e82565b9586612f42565b93159081612121575b50156120d65761182990611eca6120cc85612a53565b916000190161226b565b506118296120e9611f16611f0b43612abc565b61211c6120f585612a53565b61210c612100611c3b565b63ffffffff9094168452565b6001600160e01b03166020830152565b611fa8565b5163ffffffff16905063ffffffff61213b611f0b43612abc565b911614386120b6565b612154611f94600019830161226b565b61208b565b6010549091811591821561219d5761216f611c3b565b60008152600060208201525b60208101516120ad90612196906001600160e01b0316611e82565b9586612f35565b6121ad611f94600019830161226b565b61217b565b90918154918215928360001461224e576121ca611c3b565b60008152600060208201525b60208101516121f8906121f1906001600160e01b0316611e82565b9687612f42565b9415908161222b575b501561221757611eca61182992611eb886612a53565b5061182990611f1b611f16611f0b43612abc565b5163ffffffff16905063ffffffff612245611f0b43612abc565b91161438612201565b612266611f9460001983018460005260206000200190565b6121d6565b60106000527f1b6847dc741a1b0cd08d278845f9d819d87b734759afb55fe2de5cb82a9ae6720190565b600690815491821561235c5760009081935b80851061230a5750505081151590816122ca575b50156102bd576102bd90611cb6565b90506123026122d883611cb6565b60066000527ff652222313e28459528d920b65115c16c04f3efc82aaedc97be59f3f377c0d3f0190565b5414386122bb565b61231481866128ec565b9082845284827ff652222313e28459528d920b65115c16c04f3efc82aaedc97be59f3f377c0d3f01541160001461234b57506122a7565b9450612356906116aa565b936122a7565b505050600090565b805491821561235c57600080935b8085106123ba5750508215159182612395575b5050156102bd576102bd90611cb6565b6123b19192506123a484611cb6565b9060005260206000200190565b54143880612385565b6123c481866128ec565b90818584528481602086200154116000146123e0575050612372565b9095506123ed91506116aa565b93612372565b916102bd93916124029361254a565b91909161242a565b6005111561241457565b634e487b7160e01b600052602160045260246000fd5b6124338161240a565b8061243b5750565b6124448161240a565b600181036124915760405162461bcd60e51b815260206004820152601860248201527f45434453413a20696e76616c6964207369676e617475726500000000000000006044820152606490fd5b61249a8161240a565b600281036124e75760405162461bcd60e51b815260206004820152601f60248201527f45434453413a20696e76616c6964207369676e6174757265206c656e677468006044820152606490fd5b806124f360039261240a565b146124fa57565b60405162461bcd60e51b815260206004820152602260248201527f45434453413a20696e76616c6964207369676e6174757265202773272076616c604482015261756560f01b6064820152608490fd5b9291907f7fffffffffffffffffffffffffffffff5d576e7357a4501ddfe92f46681b20a083116125cd5791608094939160ff602094604051948552168484015260408301526060820152600093849182805260015afa156125c05781516001600160a01b038116156125ba579190565b50600190565b50604051903d90823e3d90fd5b50505050600090600390565b307f00000000000000000000000000000000000000000000000000000000000000006001600160a01b031614806126ca575b15612634577f000000000000000000000000000000000000000000000000000000000000000090565b60405160208101907f8b73c3c69bb8fe3d512ecc4cf759cc79239f7b179b0ffacaa9a75d522b39400f82527f000000000000000000000000000000000000000000000000000000000000000060408201527f000000000000000000000000000000000000000000000000000000000000000060608201524660808201523060a082015260a081526126c481611656565b51902090565b507f0000000000000000000000000000000000000000000000000000000000000000461461260b565b6042906126fe6125d9565b906040519161190160f01b8352600283015260228201522090565b60ff81146127575760ff811690601f8211612745576040519161273b83611619565b8252602082015290565b604051632cd44ac360e21b8152600490fd5b50604051600a5481600061276a836115c9565b808352926001908181169081156127f05750600114612791575b506102bd92500382611672565b600a600090815291507fc65a7bb8d6351c1cf70c95a316cc6a92839c986682d98bc35f958f4883f9d2a85b8483106127d557506102bd935050810160200138612784565b819350908160209254838589010152019101909184926127bc565b9050602092506102bd94915060ff191682840152151560051b82010138612784565b60ff81146128345760ff811690601f8211612745576040519161273b83611619565b50604051600b54816000612847836115c9565b808352926001908181169081156127f0575060011461286d57506102bd92500382611672565b600b600090815291507f0175b7a638427703f0dbe7bb9bbf987a2551717b34e79f33b5b1008d1fa01db95b8483106128b157506102bd935050810160200138612784565b81935090816020925483858901015201910190918492612898565b81156128d6570490565b634e487b7160e01b600052601260045260246000fd5b90808216911860011c810180911161050d5790565b8015612a3b57806129d46129cd6129c36129b96129af6129a561299b61299160016102bd9a6000908b60801c80612a2f575b508060401c80612a22575b508060201c80612a15575b508060101c80612a08575b508060081c806129fb575b508060041c806129ee575b508060021c806129e1575b50821c6129da575b811c1b61298a818b6128cc565b0160011c90565b61298a818a6128cc565b61298a81896128cc565b61298a81886128cc565b61298a81876128cc565b61298a81866128cc565b61298a81856128cc565b80926128cc565b90612a41565b810161297d565b6002915091019038612975565b600491509101903861296a565b600891509101903861295f565b6010915091019038612954565b6020915091019038612949565b604091509101903861293e565b91505060809038612933565b50600090565b9080821015612a4e575090565b905090565b6001600160e01b0390818111612a67571690565b60405162461bcd60e51b815260206004820152602760248201527f53616665436173743a2076616c756520646f65736e27742066697420696e20326044820152663234206269747360c81b6064820152608490fd5b65ffffffffffff90818111612acf571690565b60405162461bcd60e51b815260206004820152602660248201527f53616665436173743a2076616c756520646f65736e27742066697420696e203460448201526538206269747360d01b6064820152608490fd5b63ffffffff90818111612b34571690565b60405162461bcd60e51b815260206004820152602660248201527f53616665436173743a2076616c756520646f65736e27742066697420696e203360448201526532206269747360d01b6064820152608490fd5b612b9190612c64565b611829612cab565b6001600160a01b038116612b88575060008080526020527fad3228b676f7d3cd4284a5443f17f1962b36e491b30a40b2405849e597ba5fb5546008547f05b8ccbb9d4d8fb16ea74ce3c29a41f1b461fbdaff4714a0d9a8eb05499746bc919080612c0284612d8b565b10612c13575b505050611829612cab565b82612c23600192612c2995612d29565b01612d29565b388080612c08565b906001600160a01b03808316612c4c5750612b919150612c64565b8116612c5c5750612b9190612c64565b612c64611829925b60018060a01b031660005260056020526040600020600060205260406000205460085480612c9184612d8b565b10612c9b57505050565b82612c2360019261182995612d29565b6002546008549081612cbb612d5e565b10612cc4575050565b600654600160401b908181101561163557806001612ce59201600655611b2c565b81549060031b906000198096831b921b19161790556007549081101561163557806001612d159201600755611adf565b909283549160031b92831b921b1916179055565b8054600160401b81101561163557612d4691600182018155611b63565b819291549060031b91821b91600019901b1916179055565b60065480612d6c5750600090565b600019810190811161050d57612d8190611b2c565b90549060031b1c90565b805480612d99575050600090565b600019810190811161050d57612d8191611b63565b600e6020527fe710864318d4a32f37d6ce54cb3fadbef648dd12d8dbdf53973564d56b7f881c546001600160a01b039182166000908152604090205461182993929081169116611d8d565b6001600160a01b039081166000908152600e60205260408120549080527fe710864318d4a32f37d6ce54cb3fadbef648dd12d8dbdf53973564d56b7f881c5461182993929081169116611d8d565b6001600160a01b039081166000908152600e602052604080822054938316825290205461182993929082169116611d8d565b15612e8057565b60405162461bcd60e51b815260206004820152603060248201527f4552433230566f7465733a20746f74616c20737570706c79207269736b73206f60448201526f766572666c6f77696e6720766f74657360801b6064820152608490fd5b15612ee557565b60405162461bcd60e51b815260206004820152602260248201527f45524332303a206275726e20616d6f756e7420657863656564732062616c616e604482015261636560f01b6064820152608490fd5b90810390811161050d5790565b90810180911161050d579056feddf252ad1be2c89b69c2b068fc378daa952ba7f163c4a11628f55a4df523b3efa2646970667358221220e791228fe014eeef7a1d1ab6d4dcf3c01515f1d1b9a73c7c468d91cb0beabd4c64736f6c634300081300331b6847dc741a1b0cd08d278845f9d819d87b734759afb55fe2de5cb82a9ae671dec2bacdd2f05b59de34da9b523dff8be42e5e38e818c82fdb0bae774387a724","linkReferences":{}},"methodIdentifiers":{"CLOCK_MODE()":"4bf5d7e9","DOMAIN_SEPARATOR()":"3644e515","allowance(address,address)":"dd62ed3e","approve(address,uint256)":"095ea7b3","balanceOf(address)":"70a08231","balanceOfAt(address,uint256)":"4ee2cd7e","burn(uint256)":"42966c68","burnFrom(address,uint256)":"79cc6790","cap()":"355274ea","checkpoints(address,uint32)":"f1127ed8","clock()":"91ddadf4","decimals()":"313ce567","decreaseAllowance(address,uint256)":"a457c2d7","delegate(address)":"5c19a95c","delegateBySig(address,uint256,uint256,uint8,bytes32,bytes32)":"c3cda520","delegates(address)":"587cde1e","eip712Domain()":"84b0196e","getPastTotalSupply(uint256)":"8e539e8c","getPastVotes(address,uint256)":"3a46b1a8","getVotes(address)":"9ab24eb0","increaseAllowance(address,uint256)":"39509351","mint(address,uint256)":"40c10f19","name()":"06fdde03","nonces(address)":"7ecebe00","numCheckpoints(address)":"6fcfff45","owner()":"8da5cb5b","permit(address,address,uint256,uint256,uint8,bytes32,bytes32)":"d505accf","renounceOwnership()":"715018a6","setTreasury(address)":"f0f44260","snapshot()":"9711715a","symbol()":"95d89b41","totalSupply()":"18160ddd","totalSupplyAt(uint256)":"981b24d0","transfer(address,uint256)":"a9059cbb","transferFrom(address,address,uint256)":"23b872dd","transferOwnership(address)":"f2fde38b","treasury()":"61d027b3"},"id":92}